{
  "transactions": [
    {
      "hash": "0x89c398d56471fa9c1b44b5659cbe64a841faf4b6425ec59f6f398e1e23e768ca",
      "transactionType": "CALL",
      "contractName": null,
      "contractAddress": "0x696d02db93291651ed510704c9b286841d506987",
      "function": "approve(address,uint256)",
      "arguments": [
        "0xbF3E996821D43ac3b6069Ae74Efa101ffc6137E0",
        "500000000"
      ],
      "transaction": {
        "from": "0x5555e978e0732c198bc801477dfbccce66252ff5",
        "to": "0x696d02db93291651ed510704c9b286841d506987",
        "gas": "0x11aad",
        "value": "0x0",
        "input": "0x095ea7b3000000000000000000000000bf3e996821d43ac3b6069ae74efa101ffc6137e0000000000000000000000000000000000000000000000000000000001dcd6500",
        "nonce": "0x93",
        "chainId": "0x1"
      },
      "additionalContracts": [],
      "isFixedGasLimit": false
    },
    {
      "hash": "0x7e6baf96949de8774cd29018f6ba134a9db98795e6f2dcd97dda923ee642289b",
      "transactionType": "CALL",
      "contractName": null,
      "contractAddress": "0xbf3e996821d43ac3b6069ae74efa101ffc6137e0",
      "function": "open_leveraged_trove((address,address,address,address,uint256,uint256,uint256,uint256,uint256,uint256,uint256,uint256,uint256,uint256,(address,bytes),(address,bytes)))",
      "arguments": [
        "(0x5555E978E0732c198bc801477DFbccce66252fF5, 0xd82DB9893751E9C90E2a6C3bE31183048E8E2e49, 0xA0b86991c6218b36c1d19D4a2e9Eb0cE3606eB48, 0x1Ee35C67f8031291AEf79e2aBC87b904B9c47f07, 1779541547, 2024966000, 500000000, 2025168516, 19415366253230838187990856554055836262280025827684039580478059612191488053017, 0, 1000, 493729, 2025168516, 0, (0xF75584eF6673aD213a685a1B58Cc0330B8eA22Cf, 0xb94c3609000000000000000000000000000000000000000000000000000000000000004000000000000000000000000000000000000000000000000000000000000000e0000000000000000000000000000000000000000000000000000000000000000100000000000000000000000000000000000000000000000000000000000000400000000000000000000000000000000000000000000000000000000000000040000000000000000000000000a0b86991c6218b36c1d19d4a2e9eb0ce3606eb480000000000000000000000000000000000000000000000000000000078b2877000000000000000000000000000000000000000000000000000000000000002c495352c9f5425f86bfb267dca64186287ee4312f3e0ee923ec4afb3a8c933f04c9e4136aa14c7f434c9d09ca4c84824bf09a7557ca1893de6dc40bd28cc3b3e5dfef8921f000000000000000000000000000000000000000000000000000000000000008000000000000000000000000000000000000000000000000000000000000001200000000000000000000000000000000000000000000000000000000000000004095ea7b3010001ffffffffffa0b86991c6218b36c1d19d4a2e9eb0ce3606eb486e553f65010102ffffffff02696d02db93291651ed510704c9b286841d5069876e7a43a3010203ffffffff027e7d64d987cab6eed08a191c4c2459daf2f8ed0b241c59120102ffffffffffff7e7d64d987cab6eed08a191c4c2459daf2f8ed0b0000000000000000000000000000000000000000000000000000000000000004000000000000000000000000000000000000000000000000000000000000008000000000000000000000000000000000000000000000000000000000000000c0000000000000000000000000000000000000000000000000000000000000010000000000000000000000000000000000000000000000000000000000000001400000000000000000000000000000000000000000000000000000000000000020000000000000000000000000696d02db93291651ed510704c9b286841d50698700000000000000000000000000000000000000000000000000000000000000200000000000000000000000000000000000000000000000000000000078b28770000000000000000000000000000000000000000000000000000000000000002000000000000000000000000091eb419d77962bf89a0f1ca8b1fa525f443d54210000000000000000000000000000000000000000000000000000000000000020000000000000000000000000000000000000000000000000000000007604629b00000000000000000000000000000000000000000000000000000000), (0x0000000000000000000000000000000000000000, 0x))"
      ],
      "transaction": {
        "from": "0x5555e978e0732c198bc801477dfbccce66252ff5",
        "to": "0xbf3e996821d43ac3b6069ae74efa101ffc6137e0",
        "gas": "0x188ca1",
        "value": "0x0",
        "input": "0xb54c70ed00000000000000000000000000000000000000000000000000000000000000200000000000000000000000005555e978e0732c198bc801477dfbccce66252ff5000000000000000000000000d82db9893751e9c90e2a6c3be31183048e8e2e49000000000000000000000000a0b86991c6218b36c1d19d4a2e9eb0ce3606eb480000000000000000000000001ee35c67f8031291aef79e2abc87b904b9c47f07000000000000000000000000000000000000000000000000000000006a11a62b0000000000000000000000000000000000000000000000000000000078b28770000000000000000000000000000000000000000000000000000000001dcd65000000000000000000000000000000000000000000000000000000000078b59e842aecb5373e4ac1d443486ae559832293e1ef44a72b760b6703e063de00258f19000000000000000000000000000000000000000000000000000000000000000000000000000000000000000000000000000000000000000000000000000003e800000000000000000000000000000000000000000000000000000000000788a10000000000000000000000000000000000000000000000000000000078b59e84000000000000000000000000000000000000000000000000000000000000000000000000000000000000000000000000000000000000000000000000000002000000000000000000000000000000000000000000000000000000000000000660000000000000000000000000f75584ef6673ad213a685a1b58cc0330b8ea22cf000000000000000000000000000000000000000000000000000000000000004000000000000000000000000000000000000000000000000000000000000003e4b94c3609000000000000000000000000000000000000000000000000000000000000004000000000000000000000000000000000000000000000000000000000000000e0000000000000000000000000000000000000000000000000000000000000000100000000000000000000000000000000000000000000000000000000000000400000000000000000000000000000000000000000000000000000000000000040000000000000000000000000a0b86991c6218b36c1d19d4a2e9eb0ce3606eb480000000000000000000000000000000000000000000000000000000078b2877000000000000000000000000000000000000000000000000000000000000002c495352c9f5425f86bfb267dca64186287ee4312f3e0ee923ec4afb3a8c933f04c9e4136aa14c7f434c9d09ca4c84824bf09a7557ca1893de6dc40bd28cc3b3e5dfef8921f000000000000000000000000000000000000000000000000000000000000008000000000000000000000000000000000000000000000000000000000000001200000000000000000000000000000000000000000000000000000000000000004095ea7b3010001ffffffffffa0b86991c6218b36c1d19d4a2e9eb0ce3606eb486e553f65010102ffffffff02696d02db93291651ed510704c9b286841d5069876e7a43a3010203ffffffff027e7d64d987cab6eed08a191c4c2459daf2f8ed0b241c59120102ffffffffffff7e7d64d987cab6eed08a191c4c2459daf2f8ed0b0000000000000000000000000000000000000000000000000000000000000004000000000000000000000000000000000000000000000000000000000000008000000000000000000000000000000000000000000000000000000000000000c0000000000000000000000000000000000000000000000000000000000000010000000000000000000000000000000000000000000000000000000000000001400000000000000000000000000000000000000000000000000000000000000020000000000000000000000000696d02db93291651ed510704c9b286841d50698700000000000000000000000000000000000000000000000000000000000000200000000000000000000000000000000000000000000000000000000078b28770000000000000000000000000000000000000000000000000000000000000002000000000000000000000000091eb419d77962bf89a0f1ca8b1fa525f443d54210000000000000000000000000000000000000000000000000000000000000020000000000000000000000000000000000000000000000000000000007604629b0000000000000000000000000000000000000000000000000000000000000000000000000000000000000000000000000000000000000000000000000000000000000000000000000000000000000000000000000000000000000000000000000000000000000000000000000000000000000000000000400000000000000000000000000000000000000000000000000000000000000000",
        "nonce": "0x94",
        "chainId": "0x1"
      },
      "additionalContracts": [],
      "isFixedGasLimit": false
    }
  ],
  "receipts": [
    {
      "type": "0x2",
      "status": "0x1",
      "cumulativeGasUsed": "0x2f929e4",
      "logs": [
        {
          "address": "0x696d02db93291651ed510704c9b286841d506987",
          "topics": [
            "0x8c5be1e5ebec7d5bd14f71427d1e84f3dd0314c0f7b2291e5b200ac8c7c3b925",
            "0x0000000000000000000000005555e978e0732c198bc801477dfbccce66252ff5",
            "0x000000000000000000000000bf3e996821d43ac3b6069ae74efa101ffc6137e0"
          ],
          "data": "0x000000000000000000000000000000000000000000000000000000001dcd6500",
          "blockHash": "0xf1310aaa0778e6d755a155b5e83bfcb7b0c0fe7bb345d537824d3cae43df49d3",
          "blockNumber": "0x17fe217",
          "blockTimestamp": "0x6a11a667",
          "transactionHash": "0x89c398d56471fa9c1b44b5659cbe64a841faf4b6425ec59f6f398e1e23e768ca",
          "transactionIndex": "0x209",
          "logIndex": "0x47a",
          "removed": false
        }
      ],
      "logsBloom": "0x00000000000000000000000000000000000000000000000000000000000000000000000000000000000000000000020000000000000000000000000000200000000000000000000000000000000000000000000000000000000008000000000000000000000000000000000000000008000000000000000000000000000000000000000000000000000000001000000000000000100400000000000100000000020000000000000000000000000000000000000000000000000000000000000000000000000000800000000000000000000000000000000000000000000000000010000000000000000000000000000000000000000000008000000000000000",
      "transactionHash": "0x89c398d56471fa9c1b44b5659cbe64a841faf4b6425ec59f6f398e1e23e768ca",
      "transactionIndex": "0x209",
      "blockHash": "0xf1310aaa0778e6d755a155b5e83bfcb7b0c0fe7bb345d537824d3cae43df49d3",
      "blockNumber": "0x17fe217",
      "gasUsed": "0xc149",
      "effectiveGasPrice": "0x6c3aee9",
      "blobGasUsed": "0x0",
      "from": "0x5555e978e0732c198bc801477dfbccce66252ff5",
      "to": "0x696d02db93291651ed510704c9b286841d506987",
      "contractAddress": null
    },
    {
      "type": "0x2",
      "status": "0x1",
      "cumulativeGasUsed": "0x1c55f71",
      "logs": [
        {
          "address": "0x696d02db93291651ed510704c9b286841d506987",
          "topics": [
            "0x8c5be1e5ebec7d5bd14f71427d1e84f3dd0314c0f7b2291e5b200ac8c7c3b925",
            "0x0000000000000000000000005555e978e0732c198bc801477dfbccce66252ff5",
            "0x000000000000000000000000bf3e996821d43ac3b6069ae74efa101ffc6137e0"
          ],
          "data": "0x0000000000000000000000000000000000000000000000000000000000000000",
          "blockHash": "0xbb5f91fa069acd9117f17e9471a3f388258de4be5412d55e28aaebad7e713fb7",
          "blockNumber": "0x17fe219",
          "blockTimestamp": "0x6a11a67f",
          "transactionHash": "0x7e6baf96949de8774cd29018f6ba134a9db98795e6f2dcd97dda923ee642289b",
          "transactionIndex": "0xa3",
          "logIndex": "0x358",
          "removed": false
        },
        {
          "address": "0x696d02db93291651ed510704c9b286841d506987",
          "topics": [
            "0xddf252ad1be2c89b69c2b068fc378daa952ba7f163c4a11628f55a4df523b3ef",
            "0x0000000000000000000000005555e978e0732c198bc801477dfbccce66252ff5",
            "0x000000000000000000000000bf3e996821d43ac3b6069ae74efa101ffc6137e0"
          ],
          "data": "0x000000000000000000000000000000000000000000000000000000001dcd6500",
          "blockHash": "0xbb5f91fa069acd9117f17e9471a3f388258de4be5412d55e28aaebad7e713fb7",
          "blockNumber": "0x17fe219",
          "blockTimestamp": "0x6a11a67f",
          "transactionHash": "0x7e6baf96949de8774cd29018f6ba134a9db98795e6f2dcd97dda923ee642289b",
          "transactionIndex": "0xa3",
          "logIndex": "0x359",
          "removed": false
        },
        {
          "address": "0xbbbbbbbbbb9cc5e90e3b3af64bdaf62c37eeffcb",
          "topics": [
            "0xc76f1b4fe4396ac07a9fa55a415d4ca430e72651d37d3401f3bed7cb13fc4f12",
            "0x000000000000000000000000bf3e996821d43ac3b6069ae74efa101ffc6137e0",
            "0x000000000000000000000000a0b86991c6218b36c1d19d4a2e9eb0ce3606eb48"
          ],
          "data": "0x0000000000000000000000000000000000000000000000000000000078b28770",
          "blockHash": "0xbb5f91fa069acd9117f17e9471a3f388258de4be5412d55e28aaebad7e713fb7",
          "blockNumber": "0x17fe219",
          "blockTimestamp": "0x6a11a67f",
          "transactionHash": "0x7e6baf96949de8774cd29018f6ba134a9db98795e6f2dcd97dda923ee642289b",
          "transactionIndex": "0xa3",
          "logIndex": "0x35a",
          "removed": false
        },
        {
          "address": "0xa0b86991c6218b36c1d19d4a2e9eb0ce3606eb48",
          "topics": [
            "0xddf252ad1be2c89b69c2b068fc378daa952ba7f163c4a11628f55a4df523b3ef",
            "0x000000000000000000000000bbbbbbbbbb9cc5e90e3b3af64bdaf62c37eeffcb",
            "0x000000000000000000000000bf3e996821d43ac3b6069ae74efa101ffc6137e0"
          ],
          "data": "0x0000000000000000000000000000000000000000000000000000000078b28770",
          "blockHash": "0xbb5f91fa069acd9117f17e9471a3f388258de4be5412d55e28aaebad7e713fb7",
          "blockNumber": "0x17fe219",
          "blockTimestamp": "0x6a11a67f",
          "transactionHash": "0x7e6baf96949de8774cd29018f6ba134a9db98795e6f2dcd97dda923ee642289b",
          "transactionIndex": "0xa3",
          "logIndex": "0x35b",
          "removed": false
        },
        {
          "address": "0xa0b86991c6218b36c1d19d4a2e9eb0ce3606eb48",
          "topics": [
            "0xddf252ad1be2c89b69c2b068fc378daa952ba7f163c4a11628f55a4df523b3ef",
            "0x000000000000000000000000bf3e996821d43ac3b6069ae74efa101ffc6137e0",
            "0x00000000000000000000000091eb419d77962bf89a0f1ca8b1fa525f443d5421"
          ],
          "data": "0x0000000000000000000000000000000000000000000000000000000078b28770",
          "blockHash": "0xbb5f91fa069acd9117f17e9471a3f388258de4be5412d55e28aaebad7e713fb7",
          "blockNumber": "0x17fe219",
          "blockTimestamp": "0x6a11a67f",
          "transactionHash": "0x7e6baf96949de8774cd29018f6ba134a9db98795e6f2dcd97dda923ee642289b",
          "transactionIndex": "0xa3",
          "logIndex": "0x35c",
          "removed": false
        },
        {
          "address": "0xa0b86991c6218b36c1d19d4a2e9eb0ce3606eb48",
          "topics": [
            "0x8c5be1e5ebec7d5bd14f71427d1e84f3dd0314c0f7b2291e5b200ac8c7c3b925",
            "0x00000000000000000000000091eb419d77962bf89a0f1ca8b1fa525f443d5421",
            "0x000000000000000000000000f75584ef6673ad213a685a1b58cc0330b8ea22cf"
          ],
          "data": "0x0000000000000000000000000000000000000000000000000000000078b28770",
          "blockHash": "0xbb5f91fa069acd9117f17e9471a3f388258de4be5412d55e28aaebad7e713fb7",
          "blockNumber": "0x17fe219",
          "blockTimestamp": "0x6a11a67f",
          "transactionHash": "0x7e6baf96949de8774cd29018f6ba134a9db98795e6f2dcd97dda923ee642289b",
          "transactionIndex": "0xa3",
          "logIndex": "0x35d",
          "removed": false
        },
        {
          "address": "0xa0b86991c6218b36c1d19d4a2e9eb0ce3606eb48",
          "topics": [
            "0xddf252ad1be2c89b69c2b068fc378daa952ba7f163c4a11628f55a4df523b3ef",
            "0x00000000000000000000000091eb419d77962bf89a0f1ca8b1fa525f443d5421",
            "0x0000000000000000000000004fe93ebc4ce6ae4f81601cc7ce7139023919e003"
          ],
          "data": "0x0000000000000000000000000000000000000000000000000000000078b28770",
          "blockHash": "0xbb5f91fa069acd9117f17e9471a3f388258de4be5412d55e28aaebad7e713fb7",
          "blockNumber": "0x17fe219",
          "blockTimestamp": "0x6a11a67f",
          "transactionHash": "0x7e6baf96949de8774cd29018f6ba134a9db98795e6f2dcd97dda923ee642289b",
          "transactionIndex": "0xa3",
          "logIndex": "0x35e",
          "removed": false
        },
        {
          "address": "0xa0b86991c6218b36c1d19d4a2e9eb0ce3606eb48",
          "topics": [
            "0x8c5be1e5ebec7d5bd14f71427d1e84f3dd0314c0f7b2291e5b200ac8c7c3b925",
            "0x0000000000000000000000004fe93ebc4ce6ae4f81601cc7ce7139023919e003",
            "0x000000000000000000000000696d02db93291651ed510704c9b286841d506987"
          ],
          "data": "0x0000000000000000000000000000000000000000000000000000000078b28770",
          "blockHash": "0xbb5f91fa069acd9117f17e9471a3f388258de4be5412d55e28aaebad7e713fb7",
          "blockNumber": "0x17fe219",
          "blockTimestamp": "0x6a11a67f",
          "transactionHash": "0x7e6baf96949de8774cd29018f6ba134a9db98795e6f2dcd97dda923ee642289b",
          "transactionIndex": "0xa3",
          "logIndex": "0x35f",
          "removed": false
        },
        {
          "address": "0xa0b86991c6218b36c1d19d4a2e9eb0ce3606eb48",
          "topics": [
            "0xddf252ad1be2c89b69c2b068fc378daa952ba7f163c4a11628f55a4df523b3ef",
            "0x0000000000000000000000004fe93ebc4ce6ae4f81601cc7ce7139023919e003",
            "0x000000000000000000000000696d02db93291651ed510704c9b286841d506987"
          ],
          "data": "0x0000000000000000000000000000000000000000000000000000000078b28770",
          "blockHash": "0xbb5f91fa069acd9117f17e9471a3f388258de4be5412d55e28aaebad7e713fb7",
          "blockNumber": "0x17fe219",
          "blockTimestamp": "0x6a11a67f",
          "transactionHash": "0x7e6baf96949de8774cd29018f6ba134a9db98795e6f2dcd97dda923ee642289b",
          "transactionIndex": "0xa3",
          "logIndex": "0x360",
          "removed": false
        },
        {
          "address": "0x696d02db93291651ed510704c9b286841d506987",
          "topics": [
            "0xddf252ad1be2c89b69c2b068fc378daa952ba7f163c4a11628f55a4df523b3ef",
            "0x0000000000000000000000000000000000000000000000000000000000000000",
            "0x00000000000000000000000091eb419d77962bf89a0f1ca8b1fa525f443d5421"
          ],
          "data": "0x0000000000000000000000000000000000000000000000000000000077358ee9",
          "blockHash": "0xbb5f91fa069acd9117f17e9471a3f388258de4be5412d55e28aaebad7e713fb7",
          "blockNumber": "0x17fe219",
          "blockTimestamp": "0x6a11a67f",
          "transactionHash": "0x7e6baf96949de8774cd29018f6ba134a9db98795e6f2dcd97dda923ee642289b",
          "transactionIndex": "0xa3",
          "logIndex": "0x361",
          "removed": false
        },
        {
          "address": "0x696d02db93291651ed510704c9b286841d506987",
          "topics": [
            "0xdcbc1c05240f31ff3ad067ef1ee35ce4997762752e3a095284754544f4c709d7",
            "0x0000000000000000000000004fe93ebc4ce6ae4f81601cc7ce7139023919e003",
            "0x00000000000000000000000091eb419d77962bf89a0f1ca8b1fa525f443d5421"
          ],
          "data": "0x0000000000000000000000000000000000000000000000000000000078b287700000000000000000000000000000000000000000000000000000000077358ee9",
          "blockHash": "0xbb5f91fa069acd9117f17e9471a3f388258de4be5412d55e28aaebad7e713fb7",
          "blockNumber": "0x17fe219",
          "blockTimestamp": "0x6a11a67f",
          "transactionHash": "0x7e6baf96949de8774cd29018f6ba134a9db98795e6f2dcd97dda923ee642289b",
          "transactionIndex": "0xa3",
          "logIndex": "0x362",
          "removed": false
        },
        {
          "address": "0xa0b86991c6218b36c1d19d4a2e9eb0ce3606eb48",
          "topics": [
            "0x8c5be1e5ebec7d5bd14f71427d1e84f3dd0314c0f7b2291e5b200ac8c7c3b925",
            "0x000000000000000000000000696d02db93291651ed510704c9b286841d506987",
            "0x000000000000000000000000da2f1b3cba732d779cff56f0cf9d3bc8aea6cd8d"
          ],
          "data": "0x0000000000000000000000000000000000000000000000000000000078b28770",
          "blockHash": "0xbb5f91fa069acd9117f17e9471a3f388258de4be5412d55e28aaebad7e713fb7",
          "blockNumber": "0x17fe219",
          "blockTimestamp": "0x6a11a67f",
          "transactionHash": "0x7e6baf96949de8774cd29018f6ba134a9db98795e6f2dcd97dda923ee642289b",
          "transactionIndex": "0xa3",
          "logIndex": "0x363",
          "removed": false
        },
        {
          "address": "0xa0b86991c6218b36c1d19d4a2e9eb0ce3606eb48",
          "topics": [
            "0xddf252ad1be2c89b69c2b068fc378daa952ba7f163c4a11628f55a4df523b3ef",
            "0x000000000000000000000000696d02db93291651ed510704c9b286841d506987",
            "0x000000000000000000000000da2f1b3cba732d779cff56f0cf9d3bc8aea6cd8d"
          ],
          "data": "0x0000000000000000000000000000000000000000000000000000000078b28770",
          "blockHash": "0xbb5f91fa069acd9117f17e9471a3f388258de4be5412d55e28aaebad7e713fb7",
          "blockNumber": "0x17fe219",
          "blockTimestamp": "0x6a11a67f",
          "transactionHash": "0x7e6baf96949de8774cd29018f6ba134a9db98795e6f2dcd97dda923ee642289b",
          "transactionIndex": "0xa3",
          "logIndex": "0x364",
          "removed": false
        },
        {
          "address": "0xa0b86991c6218b36c1d19d4a2e9eb0ce3606eb48",
          "topics": [
            "0xddf252ad1be2c89b69c2b068fc378daa952ba7f163c4a11628f55a4df523b3ef",
            "0x000000000000000000000000da2f1b3cba732d779cff56f0cf9d3bc8aea6cd8d",
            "0x00000000000000000000000037305b1cd40574e4c5ce33f8e8306be057fd7341"
          ],
          "data": "0x0000000000000000000000000000000000000000000000000000000078b28770",
          "blockHash": "0xbb5f91fa069acd9117f17e9471a3f388258de4be5412d55e28aaebad7e713fb7",
          "blockNumber": "0x17fe219",
          "blockTimestamp": "0x6a11a67f",
          "transactionHash": "0x7e6baf96949de8774cd29018f6ba134a9db98795e6f2dcd97dda923ee642289b",
          "transactionIndex": "0xa3",
          "logIndex": "0x365",
          "removed": false
        },
        {
          "address": "0x6b175474e89094c44da98b954eedeac495271d0f",
          "topics": [
            "0xddf252ad1be2c89b69c2b068fc378daa952ba7f163c4a11628f55a4df523b3ef",
            "0x000000000000000000000000f6e72db5454dd049d0788e411b06cfaf16853042",
            "0x000000000000000000000000da2f1b3cba732d779cff56f0cf9d3bc8aea6cd8d"
          ],
          "data": "0x00000000000000000000000000000000000000000000006dc60c684533a70000",
          "blockHash": "0xbb5f91fa069acd9117f17e9471a3f388258de4be5412d55e28aaebad7e713fb7",
          "blockNumber": "0x17fe219",
          "blockTimestamp": "0x6a11a67f",
          "transactionHash": "0x7e6baf96949de8774cd29018f6ba134a9db98795e6f2dcd97dda923ee642289b",
          "transactionIndex": "0xa3",
          "logIndex": "0x366",
          "removed": false
        },
        {
          "address": "0xf6e72db5454dd049d0788e411b06cfaf16853042",
          "topics": [
            "0xef75f5a47cc9a929968796ceb84f19e7541617b4577f2c228ea95200e1572081",
            "0x000000000000000000000000da2f1b3cba732d779cff56f0cf9d3bc8aea6cd8d"
          ],
          "data": "0x0000000000000000000000000000000000000000000000000000000078b287700000000000000000000000000000000000000000000000000000000000000000",
          "blockHash": "0xbb5f91fa069acd9117f17e9471a3f388258de4be5412d55e28aaebad7e713fb7",
          "blockNumber": "0x17fe219",
          "blockTimestamp": "0x6a11a67f",
          "transactionHash": "0x7e6baf96949de8774cd29018f6ba134a9db98795e6f2dcd97dda923ee642289b",
          "transactionIndex": "0xa3",
          "logIndex": "0x367",
          "removed": false
        },
        {
          "address": "0x6b175474e89094c44da98b954eedeac495271d0f",
          "topics": [
            "0xddf252ad1be2c89b69c2b068fc378daa952ba7f163c4a11628f55a4df523b3ef",
            "0x000000000000000000000000da2f1b3cba732d779cff56f0cf9d3bc8aea6cd8d",
            "0x0000000000000000000000003225737a9bbb6473cb4a45b7244aca2befdb276a"
          ],
          "data": "0x00000000000000000000000000000000000000000000006dc60c684533a70000",
          "blockHash": "0xbb5f91fa069acd9117f17e9471a3f388258de4be5412d55e28aaebad7e713fb7",
          "blockNumber": "0x17fe219",
          "blockTimestamp": "0x6a11a67f",
          "transactionHash": "0x7e6baf96949de8774cd29018f6ba134a9db98795e6f2dcd97dda923ee642289b",
          "transactionIndex": "0xa3",
          "logIndex": "0x368",
          "removed": false
        },
        {
          "address": "0x35d1b3f3d7966a1dfe207aa4514c12a259a0492b",
          "topics": [
            "0xbb35783b00000000000000000000000000000000000000000000000000000000",
            "0x0000000000000000000000009759a6ac90977b93b58547b4a71c78317f391a28",
            "0x0000000000000000000000003225737a9bbb6473cb4a45b7244aca2befdb276a",
            "0x00000000000000000000000162b29daa049c57f8eaf8f93a51f3580000000000"
          ],
          "data": "0x000000000000000000000000000000000000000000000000000000000000002000000000000000000000000000000000000000000000000000000000000000e0bb35783b0000000000000000000000009759a6ac90977b93b58547b4a71c78317f391a280000000000000000000000003225737a9bbb6473cb4a45b7244aca2befdb276a00000000000000000000000162b29daa049c57f8eaf8f93a51f358000000000000000000000000000000000000000000000000000000000000000000000000000000000000000000000000000000000000000000000000000000000000000000000000000000000000000000000000000000000000000000000000000000000000000000000000000000000000000000000000000000000000000000",
          "blockHash": "0xbb5f91fa069acd9117f17e9471a3f388258de4be5412d55e28aaebad7e713fb7",
          "blockNumber": "0x17fe219",
          "blockTimestamp": "0x6a11a67f",
          "transactionHash": "0x7e6baf96949de8774cd29018f6ba134a9db98795e6f2dcd97dda923ee642289b",
          "transactionIndex": "0xa3",
          "logIndex": "0x369",
          "removed": false
        },
        {
          "address": "0x6b175474e89094c44da98b954eedeac495271d0f",
          "topics": [
            "0xddf252ad1be2c89b69c2b068fc378daa952ba7f163c4a11628f55a4df523b3ef",
            "0x0000000000000000000000003225737a9bbb6473cb4a45b7244aca2befdb276a",
            "0x0000000000000000000000000000000000000000000000000000000000000000"
          ],
          "data": "0x00000000000000000000000000000000000000000000006dc60c684533a70000",
          "blockHash": "0xbb5f91fa069acd9117f17e9471a3f388258de4be5412d55e28aaebad7e713fb7",
          "blockNumber": "0x17fe219",
          "blockTimestamp": "0x6a11a67f",
          "transactionHash": "0x7e6baf96949de8774cd29018f6ba134a9db98795e6f2dcd97dda923ee642289b",
          "transactionIndex": "0xa3",
          "logIndex": "0x36a",
          "removed": false
        },
        {
          "address": "0x9759a6ac90977b93b58547b4a71c78317f391a28",
          "topics": [
            "0x3b4da69f00000000000000000000000000000000000000000000000000000000",
            "0x0000000000000000000000003225737a9bbb6473cb4a45b7244aca2befdb276a",
            "0x0000000000000000000000003225737a9bbb6473cb4a45b7244aca2befdb276a",
            "0x00000000000000000000000000000000000000000000006dc60c684533a70000"
          ],
          "data": "0x000000000000000000000000000000000000000000000000000000000000002000000000000000000000000000000000000000000000000000000000000000e03b4da69f0000000000000000000000003225737a9bbb6473cb4a45b7244aca2befdb276a00000000000000000000000000000000000000000000006dc60c684533a70000000000000000000000000000000000000000000000000000000000000000000000000000000000000000000000000000000000000000000000000000000000000000000000000000000000000000000000000000000000000000000000000000000000000000000000000000000000000000000000000000000000000000000000000000000000000000000000000000000000000000000000000000",
          "blockHash": "0xbb5f91fa069acd9117f17e9471a3f388258de4be5412d55e28aaebad7e713fb7",
          "blockNumber": "0x17fe219",
          "blockTimestamp": "0x6a11a67f",
          "transactionHash": "0x7e6baf96949de8774cd29018f6ba134a9db98795e6f2dcd97dda923ee642289b",
          "transactionIndex": "0xa3",
          "logIndex": "0x36b",
          "removed": false
        },
        {
          "address": "0x35d1b3f3d7966a1dfe207aa4514c12a259a0492b",
          "topics": [
            "0xbb35783b00000000000000000000000000000000000000000000000000000000",
            "0x0000000000000000000000003225737a9bbb6473cb4a45b7244aca2befdb276a",
            "0x0000000000000000000000003c0f895007ca717aa01c8693e59df1e8c3777feb",
            "0x00000000000000000000000162b29daa049c57f8eaf8f93a51f3580000000000"
          ],
          "data": "0x000000000000000000000000000000000000000000000000000000000000002000000000000000000000000000000000000000000000000000000000000000e0bb35783b0000000000000000000000003225737a9bbb6473cb4a45b7244aca2befdb276a0000000000000000000000003c0f895007ca717aa01c8693e59df1e8c3777feb00000000000000000000000162b29daa049c57f8eaf8f93a51f358000000000000000000000000000000000000000000000000000000000000000000000000000000000000000000000000000000000000000000000000000000000000000000000000000000000000000000000000000000000000000000000000000000000000000000000000000000000000000000000000000000000000000000",
          "blockHash": "0xbb5f91fa069acd9117f17e9471a3f388258de4be5412d55e28aaebad7e713fb7",
          "blockNumber": "0x17fe219",
          "blockTimestamp": "0x6a11a67f",
          "transactionHash": "0x7e6baf96949de8774cd29018f6ba134a9db98795e6f2dcd97dda923ee642289b",
          "transactionIndex": "0xa3",
          "logIndex": "0x36c",
          "removed": false
        },
        {
          "address": "0xdc035d45d973e3ec169d2276ddab16f1e407384f",
          "topics": [
            "0xddf252ad1be2c89b69c2b068fc378daa952ba7f163c4a11628f55a4df523b3ef",
            "0x0000000000000000000000000000000000000000000000000000000000000000",
            "0x000000000000000000000000da2f1b3cba732d779cff56f0cf9d3bc8aea6cd8d"
          ],
          "data": "0x00000000000000000000000000000000000000000000006dc60c684533a70000",
          "blockHash": "0xbb5f91fa069acd9117f17e9471a3f388258de4be5412d55e28aaebad7e713fb7",
          "blockNumber": "0x17fe219",
          "blockTimestamp": "0x6a11a67f",
          "transactionHash": "0x7e6baf96949de8774cd29018f6ba134a9db98795e6f2dcd97dda923ee642289b",
          "transactionIndex": "0xa3",
          "logIndex": "0x36d",
          "removed": false
        },
        {
          "address": "0x3c0f895007ca717aa01c8693e59df1e8c3777feb",
          "topics": [
            "0xbc2a67d422c268da6fe45f3e7d194e1d98906d221f1cfad62a5c80f2cd209f4c",
            "0x0000000000000000000000003225737a9bbb6473cb4a45b7244aca2befdb276a",
            "0x000000000000000000000000da2f1b3cba732d779cff56f0cf9d3bc8aea6cd8d"
          ],
          "data": "0x00000000000000000000000000000000000000000000006dc60c684533a70000",
          "blockHash": "0xbb5f91fa069acd9117f17e9471a3f388258de4be5412d55e28aaebad7e713fb7",
          "blockNumber": "0x17fe219",
          "blockTimestamp": "0x6a11a67f",
          "transactionHash": "0x7e6baf96949de8774cd29018f6ba134a9db98795e6f2dcd97dda923ee642289b",
          "transactionIndex": "0xa3",
          "logIndex": "0x36e",
          "removed": false
        },
        {
          "address": "0x3225737a9bbb6473cb4a45b7244aca2befdb276a",
          "topics": [
            "0x23889db6b244d239344deac88ec7781d810b3873fe323939d1ce0e8ac9564235",
            "0x000000000000000000000000da2f1b3cba732d779cff56f0cf9d3bc8aea6cd8d",
            "0x000000000000000000000000da2f1b3cba732d779cff56f0cf9d3bc8aea6cd8d"
          ],
          "data": "0x00000000000000000000000000000000000000000000006dc60c684533a70000",
          "blockHash": "0xbb5f91fa069acd9117f17e9471a3f388258de4be5412d55e28aaebad7e713fb7",
          "blockNumber": "0x17fe219",
          "blockTimestamp": "0x6a11a67f",
          "transactionHash": "0x7e6baf96949de8774cd29018f6ba134a9db98795e6f2dcd97dda923ee642289b",
          "transactionIndex": "0xa3",
          "logIndex": "0x36f",
          "removed": false
        },
        {
          "address": "0x35d1b3f3d7966a1dfe207aa4514c12a259a0492b",
          "topics": [
            "0xf24e23eb00000000000000000000000000000000000000000000000000000000",
            "0x000000000000000000000000a950524441892a31ebddf91d3ceefa04bf454466",
            "0x000000000000000000000000a3931d71877c0e7a3148cb7eb4463524fec27fbd",
            "0x000000000000000000000000c0e0e5326738bb38a778a6d6a0ae402588000000"
          ],
          "data": "0x000000000000000000000000000000000000000000000000000000000000002000000000000000000000000000000000000000000000000000000000000000e0f24e23eb000000000000000000000000a950524441892a31ebddf91d3ceefa04bf454466000000000000000000000000a3931d71877c0e7a3148cb7eb4463524fec27fbd000000000000000000000000c0e0e5326738bb38a778a6d6a0ae40258800000000000000000000000000000000000000000000000000000000000000000000000000000000000000000000000000000000000000000000000000000000000000000000000000000000000000000000000000000000000000000000000000000000000000000000000000000000000000000000000000000000000000",
          "blockHash": "0xbb5f91fa069acd9117f17e9471a3f388258de4be5412d55e28aaebad7e713fb7",
          "blockNumber": "0x17fe219",
          "blockTimestamp": "0x6a11a67f",
          "transactionHash": "0x7e6baf96949de8774cd29018f6ba134a9db98795e6f2dcd97dda923ee642289b",
          "transactionIndex": "0xa3",
          "logIndex": "0x370",
          "removed": false
        },
        {
          "address": "0x35d1b3f3d7966a1dfe207aa4514c12a259a0492b",
          "topics": [
            "0xbb35783b00000000000000000000000000000000000000000000000000000000",
            "0x000000000000000000000000a3931d71877c0e7a3148cb7eb4463524fec27fbd",
            "0x0000000000000000000000003c0f895007ca717aa01c8693e59df1e8c3777feb",
            "0x000000000000000000000000c0e0e5326738bb38a778a6d6a0ae402588000000"
          ],
          "data": "0x000000000000000000000000000000000000000000000000000000000000002000000000000000000000000000000000000000000000000000000000000000e0bb35783b000000000000000000000000a3931d71877c0e7a3148cb7eb4463524fec27fbd0000000000000000000000003c0f895007ca717aa01c8693e59df1e8c3777feb000000000000000000000000c0e0e5326738bb38a778a6d6a0ae40258800000000000000000000000000000000000000000000000000000000000000000000000000000000000000000000000000000000000000000000000000000000000000000000000000000000000000000000000000000000000000000000000000000000000000000000000000000000000000000000000000000000000000",
          "blockHash": "0xbb5f91fa069acd9117f17e9471a3f388258de4be5412d55e28aaebad7e713fb7",
          "blockNumber": "0x17fe219",
          "blockTimestamp": "0x6a11a67f",
          "transactionHash": "0x7e6baf96949de8774cd29018f6ba134a9db98795e6f2dcd97dda923ee642289b",
          "transactionIndex": "0xa3",
          "logIndex": "0x371",
          "removed": false
        },
        {
          "address": "0xdc035d45d973e3ec169d2276ddab16f1e407384f",
          "topics": [
            "0xddf252ad1be2c89b69c2b068fc378daa952ba7f163c4a11628f55a4df523b3ef",
            "0x0000000000000000000000000000000000000000000000000000000000000000",
            "0x000000000000000000000000a3931d71877c0e7a3148cb7eb4463524fec27fbd"
          ],
          "data": "0x00000000000000000000000000000000000000000000003bb168af702b262725",
          "blockHash": "0xbb5f91fa069acd9117f17e9471a3f388258de4be5412d55e28aaebad7e713fb7",
          "blockNumber": "0x17fe219",
          "blockTimestamp": "0x6a11a67f",
          "transactionHash": "0x7e6baf96949de8774cd29018f6ba134a9db98795e6f2dcd97dda923ee642289b",
          "transactionIndex": "0xa3",
          "logIndex": "0x372",
          "removed": false
        },
        {
          "address": "0x3c0f895007ca717aa01c8693e59df1e8c3777feb",
          "topics": [
            "0xbc2a67d422c268da6fe45f3e7d194e1d98906d221f1cfad62a5c80f2cd209f4c",
            "0x000000000000000000000000a3931d71877c0e7a3148cb7eb4463524fec27fbd",
            "0x000000000000000000000000a3931d71877c0e7a3148cb7eb4463524fec27fbd"
          ],
          "data": "0x00000000000000000000000000000000000000000000003bb168af702b262725",
          "blockHash": "0xbb5f91fa069acd9117f17e9471a3f388258de4be5412d55e28aaebad7e713fb7",
          "blockNumber": "0x17fe219",
          "blockTimestamp": "0x6a11a67f",
          "transactionHash": "0x7e6baf96949de8774cd29018f6ba134a9db98795e6f2dcd97dda923ee642289b",
          "transactionIndex": "0xa3",
          "logIndex": "0x373",
          "removed": false
        },
        {
          "address": "0xa3931d71877c0e7a3148cb7eb4463524fec27fbd",
          "topics": [
            "0xad1e8a53178522eb68a9d94d862bf30c841f709d2115f743eb6b34528751c79f"
          ],
          "data": "0x0000000000000000000000000000000000000000038bc36a2b5f0b12b5932cc700000000000000000000000000000000000000000000003bb168af702b262725",
          "blockHash": "0xbb5f91fa069acd9117f17e9471a3f388258de4be5412d55e28aaebad7e713fb7",
          "blockNumber": "0x17fe219",
          "blockTimestamp": "0x6a11a67f",
          "transactionHash": "0x7e6baf96949de8774cd29018f6ba134a9db98795e6f2dcd97dda923ee642289b",
          "transactionIndex": "0xa3",
          "logIndex": "0x374",
          "removed": false
        },
        {
          "address": "0xdc035d45d973e3ec169d2276ddab16f1e407384f",
          "topics": [
            "0xddf252ad1be2c89b69c2b068fc378daa952ba7f163c4a11628f55a4df523b3ef",
            "0x000000000000000000000000da2f1b3cba732d779cff56f0cf9d3bc8aea6cd8d",
            "0x000000000000000000000000a3931d71877c0e7a3148cb7eb4463524fec27fbd"
          ],
          "data": "0x00000000000000000000000000000000000000000000006dc60c684533a70000",
          "blockHash": "0xbb5f91fa069acd9117f17e9471a3f388258de4be5412d55e28aaebad7e713fb7",
          "blockNumber": "0x17fe219",
          "blockTimestamp": "0x6a11a67f",
          "transactionHash": "0x7e6baf96949de8774cd29018f6ba134a9db98795e6f2dcd97dda923ee642289b",
          "transactionIndex": "0xa3",
          "logIndex": "0x375",
          "removed": false
        },
        {
          "address": "0xa3931d71877c0e7a3148cb7eb4463524fec27fbd",
          "topics": [
            "0xdcbc1c05240f31ff3ad067ef1ee35ce4997762752e3a095284754544f4c709d7",
            "0x000000000000000000000000da2f1b3cba732d779cff56f0cf9d3bc8aea6cd8d",
            "0x000000000000000000000000da2f1b3cba732d779cff56f0cf9d3bc8aea6cd8d"
          ],
          "data": "0x00000000000000000000000000000000000000000000006dc60c684533a7000000000000000000000000000000000000000000000000006407696dfdaeeea0f6",
          "blockHash": "0xbb5f91fa069acd9117f17e9471a3f388258de4be5412d55e28aaebad7e713fb7",
          "blockNumber": "0x17fe219",
          "blockTimestamp": "0x6a11a67f",
          "transactionHash": "0x7e6baf96949de8774cd29018f6ba134a9db98795e6f2dcd97dda923ee642289b",
          "transactionIndex": "0xa3",
          "logIndex": "0x376",
          "removed": false
        },
        {
          "address": "0xa3931d71877c0e7a3148cb7eb4463524fec27fbd",
          "topics": [
            "0xddf252ad1be2c89b69c2b068fc378daa952ba7f163c4a11628f55a4df523b3ef",
            "0x0000000000000000000000000000000000000000000000000000000000000000",
            "0x000000000000000000000000da2f1b3cba732d779cff56f0cf9d3bc8aea6cd8d"
          ],
          "data": "0x00000000000000000000000000000000000000000000006407696dfdaeeea0f6",
          "blockHash": "0xbb5f91fa069acd9117f17e9471a3f388258de4be5412d55e28aaebad7e713fb7",
          "blockNumber": "0x17fe219",
          "blockTimestamp": "0x6a11a67f",
          "transactionHash": "0x7e6baf96949de8774cd29018f6ba134a9db98795e6f2dcd97dda923ee642289b",
          "transactionIndex": "0xa3",
          "logIndex": "0x377",
          "removed": false
        },
        {
          "address": "0xa3931d71877c0e7a3148cb7eb4463524fec27fbd",
          "topics": [
            "0xb30a03a0e2a407f18ae0e83491331dc069d1521e292feffb071e61c8f7f40636",
            "0x00000000000000000000000000000000000000000000000000000000000000e0",
            "0x000000000000000000000000da2f1b3cba732d779cff56f0cf9d3bc8aea6cd8d"
          ],
          "data": "0x00000000000000000000000000000000000000000000006dc60c684533a7000000000000000000000000000000000000000000000000006407696dfdaeeea0f6",
          "blockHash": "0xbb5f91fa069acd9117f17e9471a3f388258de4be5412d55e28aaebad7e713fb7",
          "blockNumber": "0x17fe219",
          "blockTimestamp": "0x6a11a67f",
          "transactionHash": "0x7e6baf96949de8774cd29018f6ba134a9db98795e6f2dcd97dda923ee642289b",
          "transactionIndex": "0xa3",
          "logIndex": "0x378",
          "removed": false
        },
        {
          "address": "0xda2f1b3cba732d779cff56f0cf9d3bc8aea6cd8d",
          "topics": [
            "0xddf252ad1be2c89b69c2b068fc378daa952ba7f163c4a11628f55a4df523b3ef",
            "0x0000000000000000000000000000000000000000000000000000000000000000",
            "0x000000000000000000000000696d02db93291651ed510704c9b286841d506987"
          ],
          "data": "0x0000000000000000000000000000000000000000000000000000000078af38ab",
          "blockHash": "0xbb5f91fa069acd9117f17e9471a3f388258de4be5412d55e28aaebad7e713fb7",
          "blockNumber": "0x17fe219",
          "blockTimestamp": "0x6a11a67f",
          "transactionHash": "0x7e6baf96949de8774cd29018f6ba134a9db98795e6f2dcd97dda923ee642289b",
          "transactionIndex": "0xa3",
          "logIndex": "0x379",
          "removed": false
        },
        {
          "address": "0xda2f1b3cba732d779cff56f0cf9d3bc8aea6cd8d",
          "topics": [
            "0xdcbc1c05240f31ff3ad067ef1ee35ce4997762752e3a095284754544f4c709d7",
            "0x000000000000000000000000696d02db93291651ed510704c9b286841d506987",
            "0x000000000000000000000000696d02db93291651ed510704c9b286841d506987"
          ],
          "data": "0x0000000000000000000000000000000000000000000000000000000078b287700000000000000000000000000000000000000000000000000000000078af38ab",
          "blockHash": "0xbb5f91fa069acd9117f17e9471a3f388258de4be5412d55e28aaebad7e713fb7",
          "blockNumber": "0x17fe219",
          "blockTimestamp": "0x6a11a67f",
          "transactionHash": "0x7e6baf96949de8774cd29018f6ba134a9db98795e6f2dcd97dda923ee642289b",
          "transactionIndex": "0xa3",
          "logIndex": "0x37a",
          "removed": false
        },
        {
          "address": "0xa0b86991c6218b36c1d19d4a2e9eb0ce3606eb48",
          "topics": [
            "0x8c5be1e5ebec7d5bd14f71427d1e84f3dd0314c0f7b2291e5b200ac8c7c3b925",
            "0x000000000000000000000000696d02db93291651ed510704c9b286841d506987",
            "0x000000000000000000000000da2f1b3cba732d779cff56f0cf9d3bc8aea6cd8d"
          ],
          "data": "0x0000000000000000000000000000000000000000000000000000000000000000",
          "blockHash": "0xbb5f91fa069acd9117f17e9471a3f388258de4be5412d55e28aaebad7e713fb7",
          "blockNumber": "0x17fe219",
          "blockTimestamp": "0x6a11a67f",
          "transactionHash": "0x7e6baf96949de8774cd29018f6ba134a9db98795e6f2dcd97dda923ee642289b",
          "transactionIndex": "0xa3",
          "logIndex": "0x37b",
          "removed": false
        },
        {
          "address": "0x696d02db93291651ed510704c9b286841d506987",
          "topics": [
            "0x5e2b8821ad6e0e26207e0cb4d242d07eeb1cbb1cfd853e645bdcd27cc5484f95",
            "0x000000000000000000000000da2f1b3cba732d779cff56f0cf9d3bc8aea6cd8d"
          ],
          "data": "0x00000000000000000000000000000000000000000000000000000106617f672800000000000000000000000000000000000000000000000000000106da31ee98",
          "blockHash": "0xbb5f91fa069acd9117f17e9471a3f388258de4be5412d55e28aaebad7e713fb7",
          "blockNumber": "0x17fe219",
          "blockTimestamp": "0x6a11a67f",
          "transactionHash": "0x7e6baf96949de8774cd29018f6ba134a9db98795e6f2dcd97dda923ee642289b",
          "transactionIndex": "0xa3",
          "logIndex": "0x37c",
          "removed": false
        },
        {
          "address": "0x4fe93ebc4ce6ae4f81601cc7ce7139023919e003",
          "topics": [
            "0x049d8dd84b6a6cc45d5f68a74b23450bd3e54d84fd405d91b8b286c78d51d249"
          ],
          "data": "0x5425f86bfb267dca64186287ee4312f3e0ee923ec4afb3a8c933f04c9e4136aa14c7f434c9d09ca4c84824bf09a7557ca1893de6dc40bd28cc3b3e5dfef8921f",
          "blockHash": "0xbb5f91fa069acd9117f17e9471a3f388258de4be5412d55e28aaebad7e713fb7",
          "blockNumber": "0x17fe219",
          "blockTimestamp": "0x6a11a67f",
          "transactionHash": "0x7e6baf96949de8774cd29018f6ba134a9db98795e6f2dcd97dda923ee642289b",
          "transactionIndex": "0xa3",
          "logIndex": "0x37d",
          "removed": false
        },
        {
          "address": "0xa0b86991c6218b36c1d19d4a2e9eb0ce3606eb48",
          "topics": [
            "0x8c5be1e5ebec7d5bd14f71427d1e84f3dd0314c0f7b2291e5b200ac8c7c3b925",
            "0x00000000000000000000000091eb419d77962bf89a0f1ca8b1fa525f443d5421",
            "0x000000000000000000000000f75584ef6673ad213a685a1b58cc0330b8ea22cf"
          ],
          "data": "0x0000000000000000000000000000000000000000000000000000000000000000",
          "blockHash": "0xbb5f91fa069acd9117f17e9471a3f388258de4be5412d55e28aaebad7e713fb7",
          "blockNumber": "0x17fe219",
          "blockTimestamp": "0x6a11a67f",
          "transactionHash": "0x7e6baf96949de8774cd29018f6ba134a9db98795e6f2dcd97dda923ee642289b",
          "transactionIndex": "0xa3",
          "logIndex": "0x37e",
          "removed": false
        },
        {
          "address": "0x696d02db93291651ed510704c9b286841d506987",
          "topics": [
            "0xddf252ad1be2c89b69c2b068fc378daa952ba7f163c4a11628f55a4df523b3ef",
            "0x00000000000000000000000091eb419d77962bf89a0f1ca8b1fa525f443d5421",
            "0x000000000000000000000000bf3e996821d43ac3b6069ae74efa101ffc6137e0"
          ],
          "data": "0x0000000000000000000000000000000000000000000000000000000077358ee9",
          "blockHash": "0xbb5f91fa069acd9117f17e9471a3f388258de4be5412d55e28aaebad7e713fb7",
          "blockNumber": "0x17fe219",
          "blockTimestamp": "0x6a11a67f",
          "transactionHash": "0x7e6baf96949de8774cd29018f6ba134a9db98795e6f2dcd97dda923ee642289b",
          "transactionIndex": "0xa3",
          "logIndex": "0x37f",
          "removed": false
        },
        {
          "address": "0x696d02db93291651ed510704c9b286841d506987",
          "topics": [
            "0x8c5be1e5ebec7d5bd14f71427d1e84f3dd0314c0f7b2291e5b200ac8c7c3b925",
            "0x000000000000000000000000bf3e996821d43ac3b6069ae74efa101ffc6137e0",
            "0x000000000000000000000000d82db9893751e9c90e2a6c3be31183048e8e2e49"
          ],
          "data": "0x000000000000000000000000000000000000000000000000000000009502f3e9",
          "blockHash": "0xbb5f91fa069acd9117f17e9471a3f388258de4be5412d55e28aaebad7e713fb7",
          "blockNumber": "0x17fe219",
          "blockTimestamp": "0x6a11a67f",
          "transactionHash": "0x7e6baf96949de8774cd29018f6ba134a9db98795e6f2dcd97dda923ee642289b",
          "transactionIndex": "0xa3",
          "logIndex": "0x380",
          "removed": false
        },
        {
          "address": "0x696d02db93291651ed510704c9b286841d506987",
          "topics": [
            "0x8c5be1e5ebec7d5bd14f71427d1e84f3dd0314c0f7b2291e5b200ac8c7c3b925",
            "0x000000000000000000000000bf3e996821d43ac3b6069ae74efa101ffc6137e0",
            "0x000000000000000000000000d82db9893751e9c90e2a6c3be31183048e8e2e49"
          ],
          "data": "0x0000000000000000000000000000000000000000000000000000000000000000",
          "blockHash": "0xbb5f91fa069acd9117f17e9471a3f388258de4be5412d55e28aaebad7e713fb7",
          "blockNumber": "0x17fe219",
          "blockTimestamp": "0x6a11a67f",
          "transactionHash": "0x7e6baf96949de8774cd29018f6ba134a9db98795e6f2dcd97dda923ee642289b",
          "transactionIndex": "0xa3",
          "logIndex": "0x381",
          "removed": false
        },
        {
          "address": "0x696d02db93291651ed510704c9b286841d506987",
          "topics": [
            "0xddf252ad1be2c89b69c2b068fc378daa952ba7f163c4a11628f55a4df523b3ef",
            "0x000000000000000000000000bf3e996821d43ac3b6069ae74efa101ffc6137e0",
            "0x000000000000000000000000d82db9893751e9c90e2a6c3be31183048e8e2e49"
          ],
          "data": "0x000000000000000000000000000000000000000000000000000000009502f3e9",
          "blockHash": "0xbb5f91fa069acd9117f17e9471a3f388258de4be5412d55e28aaebad7e713fb7",
          "blockNumber": "0x17fe219",
          "blockTimestamp": "0x6a11a67f",
          "transactionHash": "0x7e6baf96949de8774cd29018f6ba134a9db98795e6f2dcd97dda923ee642289b",
          "transactionIndex": "0xa3",
          "logIndex": "0x382",
          "removed": false
        },
        {
          "address": "0xa0b86991c6218b36c1d19d4a2e9eb0ce3606eb48",
          "topics": [
            "0xddf252ad1be2c89b69c2b068fc378daa952ba7f163c4a11628f55a4df523b3ef",
            "0x00000000000000000000000033c45216e121e31f1a8cd24c7e9d0d0c9e29b732",
            "0x000000000000000000000000bf3e996821d43ac3b6069ae74efa101ffc6137e0"
          ],
          "data": "0x0000000000000000000000000000000000000000000000000000000078b59e84",
          "blockHash": "0xbb5f91fa069acd9117f17e9471a3f388258de4be5412d55e28aaebad7e713fb7",
          "blockNumber": "0x17fe219",
          "blockTimestamp": "0x6a11a67f",
          "transactionHash": "0x7e6baf96949de8774cd29018f6ba134a9db98795e6f2dcd97dda923ee642289b",
          "transactionIndex": "0xa3",
          "logIndex": "0x383",
          "removed": false
        },
        {
          "address": "0xd82db9893751e9c90e2a6c3be31183048e8e2e49",
          "topics": [
            "0x48cc6255485654cd31337a688b4a1e06f8a768af7ec431040b7015bbb57d44b7",
            "0x7b40105f590f776056974c301c2b203324db5f16c37c84eb1588270ac7eb07cb",
            "0x0000000000000000000000005555e978e0732c198bc801477dfbccce66252ff5"
          ],
          "data": "0x000000000000000000000000000000000000000000000000000000009502f3e90000000000000000000000000000000000000000000000000000000078b59e84000000000000000000000000000000000000000000000000000000000007887000000000000000000000000000000000000000000000000000000000000003e8",
          "blockHash": "0xbb5f91fa069acd9117f17e9471a3f388258de4be5412d55e28aaebad7e713fb7",
          "blockNumber": "0x17fe219",
          "blockTimestamp": "0x6a11a67f",
          "transactionHash": "0x7e6baf96949de8774cd29018f6ba134a9db98795e6f2dcd97dda923ee642289b",
          "transactionIndex": "0xa3",
          "logIndex": "0x384",
          "removed": false
        },
        {
          "address": "0x696d02db93291651ed510704c9b286841d506987",
          "topics": [
            "0x8c5be1e5ebec7d5bd14f71427d1e84f3dd0314c0f7b2291e5b200ac8c7c3b925",
            "0x000000000000000000000000bf3e996821d43ac3b6069ae74efa101ffc6137e0",
            "0x000000000000000000000000d82db9893751e9c90e2a6c3be31183048e8e2e49"
          ],
          "data": "0x0000000000000000000000000000000000000000000000000000000000000000",
          "blockHash": "0xbb5f91fa069acd9117f17e9471a3f388258de4be5412d55e28aaebad7e713fb7",
          "blockNumber": "0x17fe219",
          "blockTimestamp": "0x6a11a67f",
          "transactionHash": "0x7e6baf96949de8774cd29018f6ba134a9db98795e6f2dcd97dda923ee642289b",
          "transactionIndex": "0xa3",
          "logIndex": "0x385",
          "removed": false
        },
        {
          "address": "0xa0b86991c6218b36c1d19d4a2e9eb0ce3606eb48",
          "topics": [
            "0x8c5be1e5ebec7d5bd14f71427d1e84f3dd0314c0f7b2291e5b200ac8c7c3b925",
            "0x000000000000000000000000bf3e996821d43ac3b6069ae74efa101ffc6137e0",
            "0x000000000000000000000000bbbbbbbbbb9cc5e90e3b3af64bdaf62c37eeffcb"
          ],
          "data": "0x0000000000000000000000000000000000000000000000000000000078b28770",
          "blockHash": "0xbb5f91fa069acd9117f17e9471a3f388258de4be5412d55e28aaebad7e713fb7",
          "blockNumber": "0x17fe219",
          "blockTimestamp": "0x6a11a67f",
          "transactionHash": "0x7e6baf96949de8774cd29018f6ba134a9db98795e6f2dcd97dda923ee642289b",
          "transactionIndex": "0xa3",
          "logIndex": "0x386",
          "removed": false
        },
        {
          "address": "0xa0b86991c6218b36c1d19d4a2e9eb0ce3606eb48",
          "topics": [
            "0xddf252ad1be2c89b69c2b068fc378daa952ba7f163c4a11628f55a4df523b3ef",
            "0x000000000000000000000000bf3e996821d43ac3b6069ae74efa101ffc6137e0",
            "0x000000000000000000000000bbbbbbbbbb9cc5e90e3b3af64bdaf62c37eeffcb"
          ],
          "data": "0x0000000000000000000000000000000000000000000000000000000078b28770",
          "blockHash": "0xbb5f91fa069acd9117f17e9471a3f388258de4be5412d55e28aaebad7e713fb7",
          "blockNumber": "0x17fe219",
          "blockTimestamp": "0x6a11a67f",
          "transactionHash": "0x7e6baf96949de8774cd29018f6ba134a9db98795e6f2dcd97dda923ee642289b",
          "transactionIndex": "0xa3",
          "logIndex": "0x387",
          "removed": false
        },
        {
          "address": "0xa0b86991c6218b36c1d19d4a2e9eb0ce3606eb48",
          "topics": [
            "0xddf252ad1be2c89b69c2b068fc378daa952ba7f163c4a11628f55a4df523b3ef",
            "0x000000000000000000000000bf3e996821d43ac3b6069ae74efa101ffc6137e0",
            "0x0000000000000000000000005555e978e0732c198bc801477dfbccce66252ff5"
          ],
          "data": "0x0000000000000000000000000000000000000000000000000000000000031714",
          "blockHash": "0xbb5f91fa069acd9117f17e9471a3f388258de4be5412d55e28aaebad7e713fb7",
          "blockNumber": "0x17fe219",
          "blockTimestamp": "0x6a11a67f",
          "transactionHash": "0x7e6baf96949de8774cd29018f6ba134a9db98795e6f2dcd97dda923ee642289b",
          "transactionIndex": "0xa3",
          "logIndex": "0x388",
          "removed": false
        }
      ],
      "logsBloom": "0x00000040000400000000000000800080001000100000002000020100400408000004120440000000000003800000030160190040000000408000040001200000400000500010000008900008000000010002004402028000004078200080000250000040120610000000061000000a0800000000000410000000901240001800000040020000000800040000101004420000c000110400080010000100000000020808010600210000000000000000000800000480010000000080001040400220002002001004c00044040002000020000902290008000000200000222020400010080001000000802001288000000004010000800010008002000000008000",
      "transactionHash": "0x7e6baf96949de8774cd29018f6ba134a9db98795e6f2dcd97dda923ee642289b",
      "transactionIndex": "0xa3",
      "blockHash": "0xbb5f91fa069acd9117f17e9471a3f388258de4be5412d55e28aaebad7e713fb7",
      "blockNumber": "0x17fe219",
      "gasUsed": "0x11c681",
      "effectiveGasPrice": "0x73e88fc",
      "blobGasUsed": "0x0",
      "from": "0x5555e978e0732c198bc801477dfbccce66252ff5",
      "to": "0xbf3e996821d43ac3b6069ae74efa101ffc6137e0",
      "contractAddress": null
    }
  ],
  "libraries": [],
  "pending": [],
  "returns": {},
  "timestamp": 1779541635077,
  "chain": 1,
  "commit": "7a94215"
}