{
  "transactions": [
    {
      "hash": "0xc6bd77579fabc12f6b0f7303a677de48d9b40766660317276286cc1332261e06",
      "transactionType": "CALL",
      "contractName": null,
      "contractAddress": "0x696d02db93291651ed510704c9b286841d506987",
      "function": "approve(address,uint256)",
      "arguments": [
        "0xbF3E996821D43ac3b6069Ae74Efa101ffc6137E0",
        "1000000000"
      ],
      "transaction": {
        "from": "0x5555e978e0732c198bc801477dfbccce66252ff5",
        "to": "0x696d02db93291651ed510704c9b286841d506987",
        "gas": "0x11aad",
        "value": "0x0",
        "input": "0x095ea7b3000000000000000000000000bf3e996821d43ac3b6069ae74efa101ffc6137e0000000000000000000000000000000000000000000000000000000003b9aca00",
        "nonce": "0x84",
        "chainId": "0x1"
      },
      "additionalContracts": [],
      "isFixedGasLimit": false
    },
    {
      "hash": "0x79c2023ce707b0d610cfb421ee9bdee36353e6ea3010bad38a48df6544716dfd",
      "transactionType": "CALL",
      "contractName": null,
      "contractAddress": "0xd82db9893751e9c90e2a6c3be31183048e8e2e49",
      "function": "approve(address,bool)",
      "arguments": [
        "0xbF3E996821D43ac3b6069Ae74Efa101ffc6137E0",
        "true"
      ],
      "transaction": {
        "from": "0x5555e978e0732c198bc801477dfbccce66252ff5",
        "to": "0xd82db9893751e9c90e2a6c3be31183048e8e2e49",
        "gas": "0x1057c",
        "value": "0x0",
        "input": "0x3d140d21000000000000000000000000bf3e996821d43ac3b6069ae74efa101ffc6137e00000000000000000000000000000000000000000000000000000000000000001",
        "nonce": "0x85",
        "chainId": "0x1"
      },
      "additionalContracts": [],
      "isFixedGasLimit": false
    },
    {
      "hash": "0xb9bb6d08b9cd71e8f0a421c0cf83ff3956732128879aff55435c1c159527707e",
      "transactionType": "CALL",
      "contractName": null,
      "contractAddress": "0xbf3e996821d43ac3b6069ae74efa101ffc6137e0",
      "function": "open_leveraged_trove((address,address,address,address,uint256,uint256,uint256,uint256,uint256,uint256,uint256,uint256,uint256,uint256,(address,bytes),(address,bytes)))",
      "arguments": [
        "(0x5555E978E0732c198bc801477DFbccce66252fF5, 0xd82DB9893751E9C90E2a6C3bE31183048E8E2e49, 0xA0b86991c6218b36c1d19D4a2e9Eb0cE3606eB48, 0x0000000000000000000000000000000000000000, 1779041711, 9106326000, 1000000000, 9107236723, 0, 0, 1000, 174501, 9107236723, 0, (0xF75584eF6673aD213a685a1B58Cc0330B8eA22Cf, 0xb94c3609000000000000000000000000000000000000000000000000000000000000004000000000000000000000000000000000000000000000000000000000000000e0000000000000000000000000000000000000000000000000000000000000000100000000000000000000000000000000000000000000000000000000000000400000000000000000000000000000000000000000000000000000000000000040000000000000000000000000a0b86991c6218b36c1d19d4a2e9eb0ce3606eb48000000000000000000000000000000000000000000000000000000021ec781f000000000000000000000000000000000000000000000000000000000000002c495352c9f5425f86bfb267dca64186287ee4312f3e0ee923ec4afb3a8c933f04c9e4136aaafb286f5fdf722cc406f75c10dbad074fd73f9faaa87d8fd1c35a3d523cec600000000000000000000000000000000000000000000000000000000000000008000000000000000000000000000000000000000000000000000000000000001200000000000000000000000000000000000000000000000000000000000000004095ea7b3010001ffffffffffa0b86991c6218b36c1d19d4a2e9eb0ce3606eb486e553f65010102ffffffff02696d02db93291651ed510704c9b286841d5069876e7a43a3010203ffffffff027e7d64d987cab6eed08a191c4c2459daf2f8ed0b241c59120102ffffffffffff7e7d64d987cab6eed08a191c4c2459daf2f8ed0b0000000000000000000000000000000000000000000000000000000000000004000000000000000000000000000000000000000000000000000000000000008000000000000000000000000000000000000000000000000000000000000000c0000000000000000000000000000000000000000000000000000000000000010000000000000000000000000000000000000000000000000000000000000001400000000000000000000000000000000000000000000000000000000000000020000000000000000000000000696d02db93291651ed510704c9b286841d5069870000000000000000000000000000000000000000000000000000000000000020000000000000000000000000000000000000000000000000000000021ec781f0000000000000000000000000000000000000000000000000000000000000002000000000000000000000000091eb419d77962bf89a0f1ca8b1fa525f443d54210000000000000000000000000000000000000000000000000000000000000020000000000000000000000000000000000000000000000000000000021313b24000000000000000000000000000000000000000000000000000000000), (0x0000000000000000000000000000000000000000, 0x))"
      ],
      "transaction": {
        "from": "0x5555e978e0732c198bc801477dfbccce66252ff5",
        "to": "0xbf3e996821d43ac3b6069ae74efa101ffc6137e0",
        "gas": "0x1ad5e0",
        "value": "0x0",
        "input": "0xb54c70ed00000000000000000000000000000000000000000000000000000000000000200000000000000000000000005555e978e0732c198bc801477dfbccce66252ff5000000000000000000000000d82db9893751e9c90e2a6c3be31183048e8e2e49000000000000000000000000a0b86991c6218b36c1d19d4a2e9eb0ce3606eb480000000000000000000000000000000000000000000000000000000000000000000000000000000000000000000000000000000000000000000000006a0a05af000000000000000000000000000000000000000000000000000000021ec781f0000000000000000000000000000000000000000000000000000000003b9aca00000000000000000000000000000000000000000000000000000000021ed567730000000000000000000000000000000000000000000000000000000000000000000000000000000000000000000000000000000000000000000000000000000000000000000000000000000000000000000000000000000000000000000003e8000000000000000000000000000000000000000000000000000000000002a9a5000000000000000000000000000000000000000000000000000000021ed56773000000000000000000000000000000000000000000000000000000000000000000000000000000000000000000000000000000000000000000000000000002000000000000000000000000000000000000000000000000000000000000000660000000000000000000000000f75584ef6673ad213a685a1b58cc0330b8ea22cf000000000000000000000000000000000000000000000000000000000000004000000000000000000000000000000000000000000000000000000000000003e4b94c3609000000000000000000000000000000000000000000000000000000000000004000000000000000000000000000000000000000000000000000000000000000e0000000000000000000000000000000000000000000000000000000000000000100000000000000000000000000000000000000000000000000000000000000400000000000000000000000000000000000000000000000000000000000000040000000000000000000000000a0b86991c6218b36c1d19d4a2e9eb0ce3606eb48000000000000000000000000000000000000000000000000000000021ec781f000000000000000000000000000000000000000000000000000000000000002c495352c9f5425f86bfb267dca64186287ee4312f3e0ee923ec4afb3a8c933f04c9e4136aaafb286f5fdf722cc406f75c10dbad074fd73f9faaa87d8fd1c35a3d523cec600000000000000000000000000000000000000000000000000000000000000008000000000000000000000000000000000000000000000000000000000000001200000000000000000000000000000000000000000000000000000000000000004095ea7b3010001ffffffffffa0b86991c6218b36c1d19d4a2e9eb0ce3606eb486e553f65010102ffffffff02696d02db93291651ed510704c9b286841d5069876e7a43a3010203ffffffff027e7d64d987cab6eed08a191c4c2459daf2f8ed0b241c59120102ffffffffffff7e7d64d987cab6eed08a191c4c2459daf2f8ed0b0000000000000000000000000000000000000000000000000000000000000004000000000000000000000000000000000000000000000000000000000000008000000000000000000000000000000000000000000000000000000000000000c0000000000000000000000000000000000000000000000000000000000000010000000000000000000000000000000000000000000000000000000000000001400000000000000000000000000000000000000000000000000000000000000020000000000000000000000000696d02db93291651ed510704c9b286841d5069870000000000000000000000000000000000000000000000000000000000000020000000000000000000000000000000000000000000000000000000021ec781f0000000000000000000000000000000000000000000000000000000000000002000000000000000000000000091eb419d77962bf89a0f1ca8b1fa525f443d54210000000000000000000000000000000000000000000000000000000000000020000000000000000000000000000000000000000000000000000000021313b2400000000000000000000000000000000000000000000000000000000000000000000000000000000000000000000000000000000000000000000000000000000000000000000000000000000000000000000000000000000000000000000000000000000000000000000000000000000000000000000000400000000000000000000000000000000000000000000000000000000000000000",
        "nonce": "0x86",
        "chainId": "0x1"
      },
      "additionalContracts": [],
      "isFixedGasLimit": false
    }
  ],
  "receipts": [
    {
      "type": "0x2",
      "status": "0x1",
      "cumulativeGasUsed": "0x224ab23",
      "logs": [
        {
          "address": "0x696d02db93291651ed510704c9b286841d506987",
          "topics": [
            "0x8c5be1e5ebec7d5bd14f71427d1e84f3dd0314c0f7b2291e5b200ac8c7c3b925",
            "0x0000000000000000000000005555e978e0732c198bc801477dfbccce66252ff5",
            "0x000000000000000000000000bf3e996821d43ac3b6069ae74efa101ffc6137e0"
          ],
          "data": "0x000000000000000000000000000000000000000000000000000000003b9aca00",
          "blockHash": "0x784ecaa5dd557cd120b4eb006a39f7a95bc7e3c928218f68093106edee324f9c",
          "blockNumber": "0x17f3fe0",
          "blockTimestamp": "0x6a0a05eb",
          "transactionHash": "0xc6bd77579fabc12f6b0f7303a677de48d9b40766660317276286cc1332261e06",
          "transactionIndex": "0x146",
          "logIndex": "0x3c6",
          "removed": false
        }
      ],
      "logsBloom": "0x00000000000000000000000000000000000000000000000000000000000000000000000000000000000000000000020000000000000000000000000000200000000000000000000000000000000000000000000000000000000008000000000000000000000000000000000000000008000000000000000000000000000000000000000000000000000000001000000000000000100400000000000100000000020000000000000000000000000000000000000000000000000000000000000000000000000000800000000000000000000000000000000000000000000000000010000000000000000000000000000000000000000000008000000000000000",
      "transactionHash": "0xc6bd77579fabc12f6b0f7303a677de48d9b40766660317276286cc1332261e06",
      "transactionIndex": "0x146",
      "blockHash": "0x784ecaa5dd557cd120b4eb006a39f7a95bc7e3c928218f68093106edee324f9c",
      "blockNumber": "0x17f3fe0",
      "gasUsed": "0xc149",
      "effectiveGasPrice": "0xb0762b4",
      "blobGasUsed": "0x0",
      "from": "0x5555e978e0732c198bc801477dfbccce66252ff5",
      "to": "0x696d02db93291651ed510704c9b286841d506987",
      "contractAddress": null
    },
    {
      "type": "0x2",
      "status": "0x1",
      "cumulativeGasUsed": "0x5daaba",
      "logs": [
        {
          "address": "0xd82db9893751e9c90e2a6c3be31183048e8e2e49",
          "topics": [
            "0x1d3e246ebbc933bf65d3290db9f93d67ab91a12d2b19308a35806e04d1c174c5",
            "0x0000000000000000000000005555e978e0732c198bc801477dfbccce66252ff5",
            "0x000000000000000000000000bf3e996821d43ac3b6069ae74efa101ffc6137e0"
          ],
          "data": "0x0000000000000000000000000000000000000000000000000000000000000001",
          "blockHash": "0x5f21e972afdf8c7e35ca377b54b885e73deb9c9155860f7f9e78fa41d0267fa3",
          "blockNumber": "0x17f3fe1",
          "blockTimestamp": "0x6a0a05f7",
          "transactionHash": "0x79c2023ce707b0d610cfb421ee9bdee36353e6ea3010bad38a48df6544716dfd",
          "transactionIndex": "0x2f",
          "logIndex": "0x1cc",
          "removed": false
        }
      ],
      "logsBloom": "0x00000000000000000000000000000000000000000400000000100000000000000000000000000000000000800000020000000000000000000000040000000000000000000000000000000000000000000000000000000000000008000000000000000000000000000000000000000000000000000000000000000000000000000000000000000000000000000000000000000000000400000000000100000000000000000000000000000000000000000800000000000000000000000000000000000000000000800000000000000000000000000000000000000000000000000000000000000000000000000000000000000000000000018000000000000000",
      "transactionHash": "0x79c2023ce707b0d610cfb421ee9bdee36353e6ea3010bad38a48df6544716dfd",
      "transactionIndex": "0x2f",
      "blockHash": "0x5f21e972afdf8c7e35ca377b54b885e73deb9c9155860f7f9e78fa41d0267fa3",
      "blockNumber": "0x17f3fe1",
      "gasUsed": "0xbd50",
      "effectiveGasPrice": "0xbbc3835",
      "blobGasUsed": "0x0",
      "from": "0x5555e978e0732c198bc801477dfbccce66252ff5",
      "to": "0xd82db9893751e9c90e2a6c3be31183048e8e2e49",
      "contractAddress": null
    },
    {
      "type": "0x2",
      "status": "0x1",
      "cumulativeGasUsed": "0x43b46d",
      "logs": [
        {
          "address": "0x696d02db93291651ed510704c9b286841d506987",
          "topics": [
            "0x8c5be1e5ebec7d5bd14f71427d1e84f3dd0314c0f7b2291e5b200ac8c7c3b925",
            "0x0000000000000000000000005555e978e0732c198bc801477dfbccce66252ff5",
            "0x000000000000000000000000bf3e996821d43ac3b6069ae74efa101ffc6137e0"
          ],
          "data": "0x0000000000000000000000000000000000000000000000000000000000000000",
          "blockHash": "0x7a6230c512d560496a7fe9754867a73f821140d29868be0031297b973bc49e9b",
          "blockNumber": "0x17f3fe2",
          "blockTimestamp": "0x6a0a0603",
          "transactionHash": "0xb9bb6d08b9cd71e8f0a421c0cf83ff3956732128879aff55435c1c159527707e",
          "transactionIndex": "0x27",
          "logIndex": "0x47",
          "removed": false
        },
        {
          "address": "0x696d02db93291651ed510704c9b286841d506987",
          "topics": [
            "0xddf252ad1be2c89b69c2b068fc378daa952ba7f163c4a11628f55a4df523b3ef",
            "0x0000000000000000000000005555e978e0732c198bc801477dfbccce66252ff5",
            "0x000000000000000000000000bf3e996821d43ac3b6069ae74efa101ffc6137e0"
          ],
          "data": "0x000000000000000000000000000000000000000000000000000000003b9aca00",
          "blockHash": "0x7a6230c512d560496a7fe9754867a73f821140d29868be0031297b973bc49e9b",
          "blockNumber": "0x17f3fe2",
          "blockTimestamp": "0x6a0a0603",
          "transactionHash": "0xb9bb6d08b9cd71e8f0a421c0cf83ff3956732128879aff55435c1c159527707e",
          "transactionIndex": "0x27",
          "logIndex": "0x48",
          "removed": false
        },
        {
          "address": "0xbbbbbbbbbb9cc5e90e3b3af64bdaf62c37eeffcb",
          "topics": [
            "0xc76f1b4fe4396ac07a9fa55a415d4ca430e72651d37d3401f3bed7cb13fc4f12",
            "0x000000000000000000000000bf3e996821d43ac3b6069ae74efa101ffc6137e0",
            "0x000000000000000000000000a0b86991c6218b36c1d19d4a2e9eb0ce3606eb48"
          ],
          "data": "0x000000000000000000000000000000000000000000000000000000021ec781f0",
          "blockHash": "0x7a6230c512d560496a7fe9754867a73f821140d29868be0031297b973bc49e9b",
          "blockNumber": "0x17f3fe2",
          "blockTimestamp": "0x6a0a0603",
          "transactionHash": "0xb9bb6d08b9cd71e8f0a421c0cf83ff3956732128879aff55435c1c159527707e",
          "transactionIndex": "0x27",
          "logIndex": "0x49",
          "removed": false
        },
        {
          "address": "0xa0b86991c6218b36c1d19d4a2e9eb0ce3606eb48",
          "topics": [
            "0xddf252ad1be2c89b69c2b068fc378daa952ba7f163c4a11628f55a4df523b3ef",
            "0x000000000000000000000000bbbbbbbbbb9cc5e90e3b3af64bdaf62c37eeffcb",
            "0x000000000000000000000000bf3e996821d43ac3b6069ae74efa101ffc6137e0"
          ],
          "data": "0x000000000000000000000000000000000000000000000000000000021ec781f0",
          "blockHash": "0x7a6230c512d560496a7fe9754867a73f821140d29868be0031297b973bc49e9b",
          "blockNumber": "0x17f3fe2",
          "blockTimestamp": "0x6a0a0603",
          "transactionHash": "0xb9bb6d08b9cd71e8f0a421c0cf83ff3956732128879aff55435c1c159527707e",
          "transactionIndex": "0x27",
          "logIndex": "0x4a",
          "removed": false
        },
        {
          "address": "0xa0b86991c6218b36c1d19d4a2e9eb0ce3606eb48",
          "topics": [
            "0xddf252ad1be2c89b69c2b068fc378daa952ba7f163c4a11628f55a4df523b3ef",
            "0x000000000000000000000000bf3e996821d43ac3b6069ae74efa101ffc6137e0",
            "0x00000000000000000000000091eb419d77962bf89a0f1ca8b1fa525f443d5421"
          ],
          "data": "0x000000000000000000000000000000000000000000000000000000021ec781f0",
          "blockHash": "0x7a6230c512d560496a7fe9754867a73f821140d29868be0031297b973bc49e9b",
          "blockNumber": "0x17f3fe2",
          "blockTimestamp": "0x6a0a0603",
          "transactionHash": "0xb9bb6d08b9cd71e8f0a421c0cf83ff3956732128879aff55435c1c159527707e",
          "transactionIndex": "0x27",
          "logIndex": "0x4b",
          "removed": false
        },
        {
          "address": "0xa0b86991c6218b36c1d19d4a2e9eb0ce3606eb48",
          "topics": [
            "0x8c5be1e5ebec7d5bd14f71427d1e84f3dd0314c0f7b2291e5b200ac8c7c3b925",
            "0x00000000000000000000000091eb419d77962bf89a0f1ca8b1fa525f443d5421",
            "0x000000000000000000000000f75584ef6673ad213a685a1b58cc0330b8ea22cf"
          ],
          "data": "0x000000000000000000000000000000000000000000000000000000021ec781f0",
          "blockHash": "0x7a6230c512d560496a7fe9754867a73f821140d29868be0031297b973bc49e9b",
          "blockNumber": "0x17f3fe2",
          "blockTimestamp": "0x6a0a0603",
          "transactionHash": "0xb9bb6d08b9cd71e8f0a421c0cf83ff3956732128879aff55435c1c159527707e",
          "transactionIndex": "0x27",
          "logIndex": "0x4c",
          "removed": false
        },
        {
          "address": "0xa0b86991c6218b36c1d19d4a2e9eb0ce3606eb48",
          "topics": [
            "0xddf252ad1be2c89b69c2b068fc378daa952ba7f163c4a11628f55a4df523b3ef",
            "0x00000000000000000000000091eb419d77962bf89a0f1ca8b1fa525f443d5421",
            "0x0000000000000000000000004fe93ebc4ce6ae4f81601cc7ce7139023919e003"
          ],
          "data": "0x000000000000000000000000000000000000000000000000000000021ec781f0",
          "blockHash": "0x7a6230c512d560496a7fe9754867a73f821140d29868be0031297b973bc49e9b",
          "blockNumber": "0x17f3fe2",
          "blockTimestamp": "0x6a0a0603",
          "transactionHash": "0xb9bb6d08b9cd71e8f0a421c0cf83ff3956732128879aff55435c1c159527707e",
          "transactionIndex": "0x27",
          "logIndex": "0x4d",
          "removed": false
        },
        {
          "address": "0xa0b86991c6218b36c1d19d4a2e9eb0ce3606eb48",
          "topics": [
            "0x8c5be1e5ebec7d5bd14f71427d1e84f3dd0314c0f7b2291e5b200ac8c7c3b925",
            "0x0000000000000000000000004fe93ebc4ce6ae4f81601cc7ce7139023919e003",
            "0x000000000000000000000000696d02db93291651ed510704c9b286841d506987"
          ],
          "data": "0x000000000000000000000000000000000000000000000000000000021ec781f0",
          "blockHash": "0x7a6230c512d560496a7fe9754867a73f821140d29868be0031297b973bc49e9b",
          "blockNumber": "0x17f3fe2",
          "blockTimestamp": "0x6a0a0603",
          "transactionHash": "0xb9bb6d08b9cd71e8f0a421c0cf83ff3956732128879aff55435c1c159527707e",
          "transactionIndex": "0x27",
          "logIndex": "0x4e",
          "removed": false
        },
        {
          "address": "0xa0b86991c6218b36c1d19d4a2e9eb0ce3606eb48",
          "topics": [
            "0xddf252ad1be2c89b69c2b068fc378daa952ba7f163c4a11628f55a4df523b3ef",
            "0x0000000000000000000000004fe93ebc4ce6ae4f81601cc7ce7139023919e003",
            "0x000000000000000000000000696d02db93291651ed510704c9b286841d506987"
          ],
          "data": "0x000000000000000000000000000000000000000000000000000000021ec781f0",
          "blockHash": "0x7a6230c512d560496a7fe9754867a73f821140d29868be0031297b973bc49e9b",
          "blockNumber": "0x17f3fe2",
          "blockTimestamp": "0x6a0a0603",
          "transactionHash": "0xb9bb6d08b9cd71e8f0a421c0cf83ff3956732128879aff55435c1c159527707e",
          "transactionIndex": "0x27",
          "logIndex": "0x4f",
          "removed": false
        },
        {
          "address": "0x696d02db93291651ed510704c9b286841d506987",
          "topics": [
            "0xddf252ad1be2c89b69c2b068fc378daa952ba7f163c4a11628f55a4df523b3ef",
            "0x0000000000000000000000000000000000000000000000000000000000000000",
            "0x00000000000000000000000091eb419d77962bf89a0f1ca8b1fa525f443d5421"
          ],
          "data": "0x000000000000000000000000000000000000000000000000000000021870f87b",
          "blockHash": "0x7a6230c512d560496a7fe9754867a73f821140d29868be0031297b973bc49e9b",
          "blockNumber": "0x17f3fe2",
          "blockTimestamp": "0x6a0a0603",
          "transactionHash": "0xb9bb6d08b9cd71e8f0a421c0cf83ff3956732128879aff55435c1c159527707e",
          "transactionIndex": "0x27",
          "logIndex": "0x50",
          "removed": false
        },
        {
          "address": "0x696d02db93291651ed510704c9b286841d506987",
          "topics": [
            "0xdcbc1c05240f31ff3ad067ef1ee35ce4997762752e3a095284754544f4c709d7",
            "0x0000000000000000000000004fe93ebc4ce6ae4f81601cc7ce7139023919e003",
            "0x00000000000000000000000091eb419d77962bf89a0f1ca8b1fa525f443d5421"
          ],
          "data": "0x000000000000000000000000000000000000000000000000000000021ec781f0000000000000000000000000000000000000000000000000000000021870f87b",
          "blockHash": "0x7a6230c512d560496a7fe9754867a73f821140d29868be0031297b973bc49e9b",
          "blockNumber": "0x17f3fe2",
          "blockTimestamp": "0x6a0a0603",
          "transactionHash": "0xb9bb6d08b9cd71e8f0a421c0cf83ff3956732128879aff55435c1c159527707e",
          "transactionIndex": "0x27",
          "logIndex": "0x51",
          "removed": false
        },
        {
          "address": "0xa0b86991c6218b36c1d19d4a2e9eb0ce3606eb48",
          "topics": [
            "0x8c5be1e5ebec7d5bd14f71427d1e84f3dd0314c0f7b2291e5b200ac8c7c3b925",
            "0x000000000000000000000000696d02db93291651ed510704c9b286841d506987",
            "0x000000000000000000000000da2f1b3cba732d779cff56f0cf9d3bc8aea6cd8d"
          ],
          "data": "0x000000000000000000000000000000000000000000000000000000021ec781f0",
          "blockHash": "0x7a6230c512d560496a7fe9754867a73f821140d29868be0031297b973bc49e9b",
          "blockNumber": "0x17f3fe2",
          "blockTimestamp": "0x6a0a0603",
          "transactionHash": "0xb9bb6d08b9cd71e8f0a421c0cf83ff3956732128879aff55435c1c159527707e",
          "transactionIndex": "0x27",
          "logIndex": "0x52",
          "removed": false
        },
        {
          "address": "0xa0b86991c6218b36c1d19d4a2e9eb0ce3606eb48",
          "topics": [
            "0xddf252ad1be2c89b69c2b068fc378daa952ba7f163c4a11628f55a4df523b3ef",
            "0x000000000000000000000000696d02db93291651ed510704c9b286841d506987",
            "0x000000000000000000000000da2f1b3cba732d779cff56f0cf9d3bc8aea6cd8d"
          ],
          "data": "0x000000000000000000000000000000000000000000000000000000021ec781f0",
          "blockHash": "0x7a6230c512d560496a7fe9754867a73f821140d29868be0031297b973bc49e9b",
          "blockNumber": "0x17f3fe2",
          "blockTimestamp": "0x6a0a0603",
          "transactionHash": "0xb9bb6d08b9cd71e8f0a421c0cf83ff3956732128879aff55435c1c159527707e",
          "transactionIndex": "0x27",
          "logIndex": "0x53",
          "removed": false
        },
        {
          "address": "0xa0b86991c6218b36c1d19d4a2e9eb0ce3606eb48",
          "topics": [
            "0xddf252ad1be2c89b69c2b068fc378daa952ba7f163c4a11628f55a4df523b3ef",
            "0x000000000000000000000000da2f1b3cba732d779cff56f0cf9d3bc8aea6cd8d",
            "0x00000000000000000000000037305b1cd40574e4c5ce33f8e8306be057fd7341"
          ],
          "data": "0x000000000000000000000000000000000000000000000000000000021ec781f0",
          "blockHash": "0x7a6230c512d560496a7fe9754867a73f821140d29868be0031297b973bc49e9b",
          "blockNumber": "0x17f3fe2",
          "blockTimestamp": "0x6a0a0603",
          "transactionHash": "0xb9bb6d08b9cd71e8f0a421c0cf83ff3956732128879aff55435c1c159527707e",
          "transactionIndex": "0x27",
          "logIndex": "0x54",
          "removed": false
        },
        {
          "address": "0x6b175474e89094c44da98b954eedeac495271d0f",
          "topics": [
            "0xddf252ad1be2c89b69c2b068fc378daa952ba7f163c4a11628f55a4df523b3ef",
            "0x000000000000000000000000f6e72db5454dd049d0788e411b06cfaf16853042",
            "0x000000000000000000000000da2f1b3cba732d779cff56f0cf9d3bc8aea6cd8d"
          ],
          "data": "0x0000000000000000000000000000000000000000000001eda7a8f19df7cf0000",
          "blockHash": "0x7a6230c512d560496a7fe9754867a73f821140d29868be0031297b973bc49e9b",
          "blockNumber": "0x17f3fe2",
          "blockTimestamp": "0x6a0a0603",
          "transactionHash": "0xb9bb6d08b9cd71e8f0a421c0cf83ff3956732128879aff55435c1c159527707e",
          "transactionIndex": "0x27",
          "logIndex": "0x55",
          "removed": false
        },
        {
          "address": "0xf6e72db5454dd049d0788e411b06cfaf16853042",
          "topics": [
            "0xef75f5a47cc9a929968796ceb84f19e7541617b4577f2c228ea95200e1572081",
            "0x000000000000000000000000da2f1b3cba732d779cff56f0cf9d3bc8aea6cd8d"
          ],
          "data": "0x000000000000000000000000000000000000000000000000000000021ec781f00000000000000000000000000000000000000000000000000000000000000000",
          "blockHash": "0x7a6230c512d560496a7fe9754867a73f821140d29868be0031297b973bc49e9b",
          "blockNumber": "0x17f3fe2",
          "blockTimestamp": "0x6a0a0603",
          "transactionHash": "0xb9bb6d08b9cd71e8f0a421c0cf83ff3956732128879aff55435c1c159527707e",
          "transactionIndex": "0x27",
          "logIndex": "0x56",
          "removed": false
        },
        {
          "address": "0x6b175474e89094c44da98b954eedeac495271d0f",
          "topics": [
            "0xddf252ad1be2c89b69c2b068fc378daa952ba7f163c4a11628f55a4df523b3ef",
            "0x000000000000000000000000da2f1b3cba732d779cff56f0cf9d3bc8aea6cd8d",
            "0x0000000000000000000000003225737a9bbb6473cb4a45b7244aca2befdb276a"
          ],
          "data": "0x0000000000000000000000000000000000000000000001eda7a8f19df7cf0000",
          "blockHash": "0x7a6230c512d560496a7fe9754867a73f821140d29868be0031297b973bc49e9b",
          "blockNumber": "0x17f3fe2",
          "blockTimestamp": "0x6a0a0603",
          "transactionHash": "0xb9bb6d08b9cd71e8f0a421c0cf83ff3956732128879aff55435c1c159527707e",
          "transactionIndex": "0x27",
          "logIndex": "0x57",
          "removed": false
        },
        {
          "address": "0x35d1b3f3d7966a1dfe207aa4514c12a259a0492b",
          "topics": [
            "0xbb35783b00000000000000000000000000000000000000000000000000000000",
            "0x0000000000000000000000009759a6ac90977b93b58547b4a71c78317f391a28",
            "0x0000000000000000000000003225737a9bbb6473cb4a45b7244aca2befdb276a",
            "0x0000000000000000000000063b15c7cc5d83fdded81fa114bd17980000000000"
          ],
          "data": "0x000000000000000000000000000000000000000000000000000000000000002000000000000000000000000000000000000000000000000000000000000000e0bb35783b0000000000000000000000009759a6ac90977b93b58547b4a71c78317f391a280000000000000000000000003225737a9bbb6473cb4a45b7244aca2befdb276a0000000000000000000000063b15c7cc5d83fdded81fa114bd1798000000000000000000000000000000000000000000000000000000000000000000000000000000000000000000000000000000000000000000000000000000000000000000000000000000000000000000000000000000000000000000000000000000000000000000000000000000000000000000000000000000000000000000",
          "blockHash": "0x7a6230c512d560496a7fe9754867a73f821140d29868be0031297b973bc49e9b",
          "blockNumber": "0x17f3fe2",
          "blockTimestamp": "0x6a0a0603",
          "transactionHash": "0xb9bb6d08b9cd71e8f0a421c0cf83ff3956732128879aff55435c1c159527707e",
          "transactionIndex": "0x27",
          "logIndex": "0x58",
          "removed": false
        },
        {
          "address": "0x6b175474e89094c44da98b954eedeac495271d0f",
          "topics": [
            "0xddf252ad1be2c89b69c2b068fc378daa952ba7f163c4a11628f55a4df523b3ef",
            "0x0000000000000000000000003225737a9bbb6473cb4a45b7244aca2befdb276a",
            "0x0000000000000000000000000000000000000000000000000000000000000000"
          ],
          "data": "0x0000000000000000000000000000000000000000000001eda7a8f19df7cf0000",
          "blockHash": "0x7a6230c512d560496a7fe9754867a73f821140d29868be0031297b973bc49e9b",
          "blockNumber": "0x17f3fe2",
          "blockTimestamp": "0x6a0a0603",
          "transactionHash": "0xb9bb6d08b9cd71e8f0a421c0cf83ff3956732128879aff55435c1c159527707e",
          "transactionIndex": "0x27",
          "logIndex": "0x59",
          "removed": false
        },
        {
          "address": "0x9759a6ac90977b93b58547b4a71c78317f391a28",
          "topics": [
            "0x3b4da69f00000000000000000000000000000000000000000000000000000000",
            "0x0000000000000000000000003225737a9bbb6473cb4a45b7244aca2befdb276a",
            "0x0000000000000000000000003225737a9bbb6473cb4a45b7244aca2befdb276a",
            "0x0000000000000000000000000000000000000000000001eda7a8f19df7cf0000"
          ],
          "data": "0x000000000000000000000000000000000000000000000000000000000000002000000000000000000000000000000000000000000000000000000000000000e03b4da69f0000000000000000000000003225737a9bbb6473cb4a45b7244aca2befdb276a0000000000000000000000000000000000000000000001eda7a8f19df7cf0000000000000000000000000000000000000000000000000000000000000000000000000000000000000000000000000000000000000000000000000000000000000000000000000000000000000000000000000000000000000000000000000000000000000000000000000000000000000000000000000000000000000000000000000000000000000000000000000000000000000000000000000000",
          "blockHash": "0x7a6230c512d560496a7fe9754867a73f821140d29868be0031297b973bc49e9b",
          "blockNumber": "0x17f3fe2",
          "blockTimestamp": "0x6a0a0603",
          "transactionHash": "0xb9bb6d08b9cd71e8f0a421c0cf83ff3956732128879aff55435c1c159527707e",
          "transactionIndex": "0x27",
          "logIndex": "0x5a",
          "removed": false
        },
        {
          "address": "0x35d1b3f3d7966a1dfe207aa4514c12a259a0492b",
          "topics": [
            "0xbb35783b00000000000000000000000000000000000000000000000000000000",
            "0x0000000000000000000000003225737a9bbb6473cb4a45b7244aca2befdb276a",
            "0x0000000000000000000000003c0f895007ca717aa01c8693e59df1e8c3777feb",
            "0x0000000000000000000000063b15c7cc5d83fdded81fa114bd17980000000000"
          ],
          "data": "0x000000000000000000000000000000000000000000000000000000000000002000000000000000000000000000000000000000000000000000000000000000e0bb35783b0000000000000000000000003225737a9bbb6473cb4a45b7244aca2befdb276a0000000000000000000000003c0f895007ca717aa01c8693e59df1e8c3777feb0000000000000000000000063b15c7cc5d83fdded81fa114bd1798000000000000000000000000000000000000000000000000000000000000000000000000000000000000000000000000000000000000000000000000000000000000000000000000000000000000000000000000000000000000000000000000000000000000000000000000000000000000000000000000000000000000000000",
          "blockHash": "0x7a6230c512d560496a7fe9754867a73f821140d29868be0031297b973bc49e9b",
          "blockNumber": "0x17f3fe2",
          "blockTimestamp": "0x6a0a0603",
          "transactionHash": "0xb9bb6d08b9cd71e8f0a421c0cf83ff3956732128879aff55435c1c159527707e",
          "transactionIndex": "0x27",
          "logIndex": "0x5b",
          "removed": false
        },
        {
          "address": "0xdc035d45d973e3ec169d2276ddab16f1e407384f",
          "topics": [
            "0xddf252ad1be2c89b69c2b068fc378daa952ba7f163c4a11628f55a4df523b3ef",
            "0x0000000000000000000000000000000000000000000000000000000000000000",
            "0x000000000000000000000000da2f1b3cba732d779cff56f0cf9d3bc8aea6cd8d"
          ],
          "data": "0x0000000000000000000000000000000000000000000001eda7a8f19df7cf0000",
          "blockHash": "0x7a6230c512d560496a7fe9754867a73f821140d29868be0031297b973bc49e9b",
          "blockNumber": "0x17f3fe2",
          "blockTimestamp": "0x6a0a0603",
          "transactionHash": "0xb9bb6d08b9cd71e8f0a421c0cf83ff3956732128879aff55435c1c159527707e",
          "transactionIndex": "0x27",
          "logIndex": "0x5c",
          "removed": false
        },
        {
          "address": "0x3c0f895007ca717aa01c8693e59df1e8c3777feb",
          "topics": [
            "0xbc2a67d422c268da6fe45f3e7d194e1d98906d221f1cfad62a5c80f2cd209f4c",
            "0x0000000000000000000000003225737a9bbb6473cb4a45b7244aca2befdb276a",
            "0x000000000000000000000000da2f1b3cba732d779cff56f0cf9d3bc8aea6cd8d"
          ],
          "data": "0x0000000000000000000000000000000000000000000001eda7a8f19df7cf0000",
          "blockHash": "0x7a6230c512d560496a7fe9754867a73f821140d29868be0031297b973bc49e9b",
          "blockNumber": "0x17f3fe2",
          "blockTimestamp": "0x6a0a0603",
          "transactionHash": "0xb9bb6d08b9cd71e8f0a421c0cf83ff3956732128879aff55435c1c159527707e",
          "transactionIndex": "0x27",
          "logIndex": "0x5d",
          "removed": false
        },
        {
          "address": "0x3225737a9bbb6473cb4a45b7244aca2befdb276a",
          "topics": [
            "0x23889db6b244d239344deac88ec7781d810b3873fe323939d1ce0e8ac9564235",
            "0x000000000000000000000000da2f1b3cba732d779cff56f0cf9d3bc8aea6cd8d",
            "0x000000000000000000000000da2f1b3cba732d779cff56f0cf9d3bc8aea6cd8d"
          ],
          "data": "0x0000000000000000000000000000000000000000000001eda7a8f19df7cf0000",
          "blockHash": "0x7a6230c512d560496a7fe9754867a73f821140d29868be0031297b973bc49e9b",
          "blockNumber": "0x17f3fe2",
          "blockTimestamp": "0x6a0a0603",
          "transactionHash": "0xb9bb6d08b9cd71e8f0a421c0cf83ff3956732128879aff55435c1c159527707e",
          "transactionIndex": "0x27",
          "logIndex": "0x5e",
          "removed": false
        },
        {
          "address": "0x35d1b3f3d7966a1dfe207aa4514c12a259a0492b",
          "topics": [
            "0xf24e23eb00000000000000000000000000000000000000000000000000000000",
            "0x000000000000000000000000a950524441892a31ebddf91d3ceefa04bf454466",
            "0x000000000000000000000000a3931d71877c0e7a3148cb7eb4463524fec27fbd",
            "0x000000000000000000000003bb32f57ee99b2917a9f29020c1258cde58000000"
          ],
          "data": "0x000000000000000000000000000000000000000000000000000000000000002000000000000000000000000000000000000000000000000000000000000000e0f24e23eb000000000000000000000000a950524441892a31ebddf91d3ceefa04bf454466000000000000000000000000a3931d71877c0e7a3148cb7eb4463524fec27fbd000000000000000000000003bb32f57ee99b2917a9f29020c1258cde5800000000000000000000000000000000000000000000000000000000000000000000000000000000000000000000000000000000000000000000000000000000000000000000000000000000000000000000000000000000000000000000000000000000000000000000000000000000000000000000000000000000000000",
          "blockHash": "0x7a6230c512d560496a7fe9754867a73f821140d29868be0031297b973bc49e9b",
          "blockNumber": "0x17f3fe2",
          "blockTimestamp": "0x6a0a0603",
          "transactionHash": "0xb9bb6d08b9cd71e8f0a421c0cf83ff3956732128879aff55435c1c159527707e",
          "transactionIndex": "0x27",
          "logIndex": "0x5f",
          "removed": false
        },
        {
          "address": "0x35d1b3f3d7966a1dfe207aa4514c12a259a0492b",
          "topics": [
            "0xbb35783b00000000000000000000000000000000000000000000000000000000",
            "0x000000000000000000000000a3931d71877c0e7a3148cb7eb4463524fec27fbd",
            "0x0000000000000000000000003c0f895007ca717aa01c8693e59df1e8c3777feb",
            "0x000000000000000000000003bb32f57ee99b2917a9f29020c1258cde58000000"
          ],
          "data": "0x000000000000000000000000000000000000000000000000000000000000002000000000000000000000000000000000000000000000000000000000000000e0bb35783b000000000000000000000000a3931d71877c0e7a3148cb7eb4463524fec27fbd0000000000000000000000003c0f895007ca717aa01c8693e59df1e8c3777feb000000000000000000000003bb32f57ee99b2917a9f29020c1258cde5800000000000000000000000000000000000000000000000000000000000000000000000000000000000000000000000000000000000000000000000000000000000000000000000000000000000000000000000000000000000000000000000000000000000000000000000000000000000000000000000000000000000000",
          "blockHash": "0x7a6230c512d560496a7fe9754867a73f821140d29868be0031297b973bc49e9b",
          "blockNumber": "0x17f3fe2",
          "blockTimestamp": "0x6a0a0603",
          "transactionHash": "0xb9bb6d08b9cd71e8f0a421c0cf83ff3956732128879aff55435c1c159527707e",
          "transactionIndex": "0x27",
          "logIndex": "0x60",
          "removed": false
        },
        {
          "address": "0xdc035d45d973e3ec169d2276ddab16f1e407384f",
          "topics": [
            "0xddf252ad1be2c89b69c2b068fc378daa952ba7f163c4a11628f55a4df523b3ef",
            "0x0000000000000000000000000000000000000000000000000000000000000000",
            "0x000000000000000000000000a3931d71877c0e7a3148cb7eb4463524fec27fbd"
          ],
          "data": "0x0000000000000000000000000000000000000000000001279eaa8e8eeb9c7887",
          "blockHash": "0x7a6230c512d560496a7fe9754867a73f821140d29868be0031297b973bc49e9b",
          "blockNumber": "0x17f3fe2",
          "blockTimestamp": "0x6a0a0603",
          "transactionHash": "0xb9bb6d08b9cd71e8f0a421c0cf83ff3956732128879aff55435c1c159527707e",
          "transactionIndex": "0x27",
          "logIndex": "0x61",
          "removed": false
        },
        {
          "address": "0x3c0f895007ca717aa01c8693e59df1e8c3777feb",
          "topics": [
            "0xbc2a67d422c268da6fe45f3e7d194e1d98906d221f1cfad62a5c80f2cd209f4c",
            "0x000000000000000000000000a3931d71877c0e7a3148cb7eb4463524fec27fbd",
            "0x000000000000000000000000a3931d71877c0e7a3148cb7eb4463524fec27fbd"
          ],
          "data": "0x0000000000000000000000000000000000000000000001279eaa8e8eeb9c7887",
          "blockHash": "0x7a6230c512d560496a7fe9754867a73f821140d29868be0031297b973bc49e9b",
          "blockNumber": "0x17f3fe2",
          "blockTimestamp": "0x6a0a0603",
          "transactionHash": "0xb9bb6d08b9cd71e8f0a421c0cf83ff3956732128879aff55435c1c159527707e",
          "transactionIndex": "0x27",
          "logIndex": "0x62",
          "removed": false
        },
        {
          "address": "0xa3931d71877c0e7a3148cb7eb4463524fec27fbd",
          "topics": [
            "0xad1e8a53178522eb68a9d94d862bf30c841f709d2115f743eb6b34528751c79f"
          ],
          "data": "0x0000000000000000000000000000000000000000038b3f6885919b6e3df0b2ed0000000000000000000000000000000000000000000001279eaa8e8eeb9c7887",
          "blockHash": "0x7a6230c512d560496a7fe9754867a73f821140d29868be0031297b973bc49e9b",
          "blockNumber": "0x17f3fe2",
          "blockTimestamp": "0x6a0a0603",
          "transactionHash": "0xb9bb6d08b9cd71e8f0a421c0cf83ff3956732128879aff55435c1c159527707e",
          "transactionIndex": "0x27",
          "logIndex": "0x63",
          "removed": false
        },
        {
          "address": "0xdc035d45d973e3ec169d2276ddab16f1e407384f",
          "topics": [
            "0xddf252ad1be2c89b69c2b068fc378daa952ba7f163c4a11628f55a4df523b3ef",
            "0x000000000000000000000000da2f1b3cba732d779cff56f0cf9d3bc8aea6cd8d",
            "0x000000000000000000000000a3931d71877c0e7a3148cb7eb4463524fec27fbd"
          ],
          "data": "0x0000000000000000000000000000000000000000000001eda7a8f19df7cf0000",
          "blockHash": "0x7a6230c512d560496a7fe9754867a73f821140d29868be0031297b973bc49e9b",
          "blockNumber": "0x17f3fe2",
          "blockTimestamp": "0x6a0a0603",
          "transactionHash": "0xb9bb6d08b9cd71e8f0a421c0cf83ff3956732128879aff55435c1c159527707e",
          "transactionIndex": "0x27",
          "logIndex": "0x64",
          "removed": false
        },
        {
          "address": "0xa3931d71877c0e7a3148cb7eb4463524fec27fbd",
          "topics": [
            "0xdcbc1c05240f31ff3ad067ef1ee35ce4997762752e3a095284754544f4c709d7",
            "0x000000000000000000000000da2f1b3cba732d779cff56f0cf9d3bc8aea6cd8d",
            "0x000000000000000000000000da2f1b3cba732d779cff56f0cf9d3bc8aea6cd8d"
          ],
          "data": "0x0000000000000000000000000000000000000000000001eda7a8f19df7cf00000000000000000000000000000000000000000000000001c216aa0adc26a77e1b",
          "blockHash": "0x7a6230c512d560496a7fe9754867a73f821140d29868be0031297b973bc49e9b",
          "blockNumber": "0x17f3fe2",
          "blockTimestamp": "0x6a0a0603",
          "transactionHash": "0xb9bb6d08b9cd71e8f0a421c0cf83ff3956732128879aff55435c1c159527707e",
          "transactionIndex": "0x27",
          "logIndex": "0x65",
          "removed": false
        },
        {
          "address": "0xa3931d71877c0e7a3148cb7eb4463524fec27fbd",
          "topics": [
            "0xddf252ad1be2c89b69c2b068fc378daa952ba7f163c4a11628f55a4df523b3ef",
            "0x0000000000000000000000000000000000000000000000000000000000000000",
            "0x000000000000000000000000da2f1b3cba732d779cff56f0cf9d3bc8aea6cd8d"
          ],
          "data": "0x0000000000000000000000000000000000000000000001c216aa0adc26a77e1b",
          "blockHash": "0x7a6230c512d560496a7fe9754867a73f821140d29868be0031297b973bc49e9b",
          "blockNumber": "0x17f3fe2",
          "blockTimestamp": "0x6a0a0603",
          "transactionHash": "0xb9bb6d08b9cd71e8f0a421c0cf83ff3956732128879aff55435c1c159527707e",
          "transactionIndex": "0x27",
          "logIndex": "0x66",
          "removed": false
        },
        {
          "address": "0xa3931d71877c0e7a3148cb7eb4463524fec27fbd",
          "topics": [
            "0xb30a03a0e2a407f18ae0e83491331dc069d1521e292feffb071e61c8f7f40636",
            "0x00000000000000000000000000000000000000000000000000000000000003ef",
            "0x000000000000000000000000da2f1b3cba732d779cff56f0cf9d3bc8aea6cd8d"
          ],
          "data": "0x0000000000000000000000000000000000000000000001eda7a8f19df7cf00000000000000000000000000000000000000000000000001c216aa0adc26a77e1b",
          "blockHash": "0x7a6230c512d560496a7fe9754867a73f821140d29868be0031297b973bc49e9b",
          "blockNumber": "0x17f3fe2",
          "blockTimestamp": "0x6a0a0603",
          "transactionHash": "0xb9bb6d08b9cd71e8f0a421c0cf83ff3956732128879aff55435c1c159527707e",
          "transactionIndex": "0x27",
          "logIndex": "0x67",
          "removed": false
        },
        {
          "address": "0xda2f1b3cba732d779cff56f0cf9d3bc8aea6cd8d",
          "topics": [
            "0xddf252ad1be2c89b69c2b068fc378daa952ba7f163c4a11628f55a4df523b3ef",
            "0x0000000000000000000000000000000000000000000000000000000000000000",
            "0x000000000000000000000000696d02db93291651ed510704c9b286841d506987"
          ],
          "data": "0x0000000000000000000000000000000000000000000000000000000212e67c2c",
          "blockHash": "0x7a6230c512d560496a7fe9754867a73f821140d29868be0031297b973bc49e9b",
          "blockNumber": "0x17f3fe2",
          "blockTimestamp": "0x6a0a0603",
          "transactionHash": "0xb9bb6d08b9cd71e8f0a421c0cf83ff3956732128879aff55435c1c159527707e",
          "transactionIndex": "0x27",
          "logIndex": "0x68",
          "removed": false
        },
        {
          "address": "0xda2f1b3cba732d779cff56f0cf9d3bc8aea6cd8d",
          "topics": [
            "0xdcbc1c05240f31ff3ad067ef1ee35ce4997762752e3a095284754544f4c709d7",
            "0x000000000000000000000000696d02db93291651ed510704c9b286841d506987",
            "0x000000000000000000000000696d02db93291651ed510704c9b286841d506987"
          ],
          "data": "0x000000000000000000000000000000000000000000000000000000021ec781f00000000000000000000000000000000000000000000000000000000212e67c2c",
          "blockHash": "0x7a6230c512d560496a7fe9754867a73f821140d29868be0031297b973bc49e9b",
          "blockNumber": "0x17f3fe2",
          "blockTimestamp": "0x6a0a0603",
          "transactionHash": "0xb9bb6d08b9cd71e8f0a421c0cf83ff3956732128879aff55435c1c159527707e",
          "transactionIndex": "0x27",
          "logIndex": "0x69",
          "removed": false
        },
        {
          "address": "0xa0b86991c6218b36c1d19d4a2e9eb0ce3606eb48",
          "topics": [
            "0x8c5be1e5ebec7d5bd14f71427d1e84f3dd0314c0f7b2291e5b200ac8c7c3b925",
            "0x000000000000000000000000696d02db93291651ed510704c9b286841d506987",
            "0x000000000000000000000000da2f1b3cba732d779cff56f0cf9d3bc8aea6cd8d"
          ],
          "data": "0x0000000000000000000000000000000000000000000000000000000000000000",
          "blockHash": "0x7a6230c512d560496a7fe9754867a73f821140d29868be0031297b973bc49e9b",
          "blockNumber": "0x17f3fe2",
          "blockTimestamp": "0x6a0a0603",
          "transactionHash": "0xb9bb6d08b9cd71e8f0a421c0cf83ff3956732128879aff55435c1c159527707e",
          "transactionIndex": "0x27",
          "logIndex": "0x6a",
          "removed": false
        },
        {
          "address": "0x696d02db93291651ed510704c9b286841d506987",
          "topics": [
            "0x5e2b8821ad6e0e26207e0cb4d242d07eeb1cbb1cfd853e645bdcd27cc5484f95",
            "0x000000000000000000000000da2f1b3cba732d779cff56f0cf9d3bc8aea6cd8d"
          ],
          "data": "0x00000000000000000000000000000000000000000000000000000152d3b7f0d300000000000000000000000000000000000000000000000000000154f27f72c3",
          "blockHash": "0x7a6230c512d560496a7fe9754867a73f821140d29868be0031297b973bc49e9b",
          "blockNumber": "0x17f3fe2",
          "blockTimestamp": "0x6a0a0603",
          "transactionHash": "0xb9bb6d08b9cd71e8f0a421c0cf83ff3956732128879aff55435c1c159527707e",
          "transactionIndex": "0x27",
          "logIndex": "0x6b",
          "removed": false
        },
        {
          "address": "0x4fe93ebc4ce6ae4f81601cc7ce7139023919e003",
          "topics": [
            "0x049d8dd84b6a6cc45d5f68a74b23450bd3e54d84fd405d91b8b286c78d51d249"
          ],
          "data": "0x5425f86bfb267dca64186287ee4312f3e0ee923ec4afb3a8c933f04c9e4136aaafb286f5fdf722cc406f75c10dbad074fd73f9faaa87d8fd1c35a3d523cec600",
          "blockHash": "0x7a6230c512d560496a7fe9754867a73f821140d29868be0031297b973bc49e9b",
          "blockNumber": "0x17f3fe2",
          "blockTimestamp": "0x6a0a0603",
          "transactionHash": "0xb9bb6d08b9cd71e8f0a421c0cf83ff3956732128879aff55435c1c159527707e",
          "transactionIndex": "0x27",
          "logIndex": "0x6c",
          "removed": false
        },
        {
          "address": "0xa0b86991c6218b36c1d19d4a2e9eb0ce3606eb48",
          "topics": [
            "0x8c5be1e5ebec7d5bd14f71427d1e84f3dd0314c0f7b2291e5b200ac8c7c3b925",
            "0x00000000000000000000000091eb419d77962bf89a0f1ca8b1fa525f443d5421",
            "0x000000000000000000000000f75584ef6673ad213a685a1b58cc0330b8ea22cf"
          ],
          "data": "0x0000000000000000000000000000000000000000000000000000000000000000",
          "blockHash": "0x7a6230c512d560496a7fe9754867a73f821140d29868be0031297b973bc49e9b",
          "blockNumber": "0x17f3fe2",
          "blockTimestamp": "0x6a0a0603",
          "transactionHash": "0xb9bb6d08b9cd71e8f0a421c0cf83ff3956732128879aff55435c1c159527707e",
          "transactionIndex": "0x27",
          "logIndex": "0x6d",
          "removed": false
        },
        {
          "address": "0x696d02db93291651ed510704c9b286841d506987",
          "topics": [
            "0xddf252ad1be2c89b69c2b068fc378daa952ba7f163c4a11628f55a4df523b3ef",
            "0x00000000000000000000000091eb419d77962bf89a0f1ca8b1fa525f443d5421",
            "0x000000000000000000000000bf3e996821d43ac3b6069ae74efa101ffc6137e0"
          ],
          "data": "0x000000000000000000000000000000000000000000000000000000021870f87b",
          "blockHash": "0x7a6230c512d560496a7fe9754867a73f821140d29868be0031297b973bc49e9b",
          "blockNumber": "0x17f3fe2",
          "blockTimestamp": "0x6a0a0603",
          "transactionHash": "0xb9bb6d08b9cd71e8f0a421c0cf83ff3956732128879aff55435c1c159527707e",
          "transactionIndex": "0x27",
          "logIndex": "0x6e",
          "removed": false
        },
        {
          "address": "0x696d02db93291651ed510704c9b286841d506987",
          "topics": [
            "0x8c5be1e5ebec7d5bd14f71427d1e84f3dd0314c0f7b2291e5b200ac8c7c3b925",
            "0x000000000000000000000000bf3e996821d43ac3b6069ae74efa101ffc6137e0",
            "0x000000000000000000000000d82db9893751e9c90e2a6c3be31183048e8e2e49"
          ],
          "data": "0x00000000000000000000000000000000000000000000000000000002540bc27b",
          "blockHash": "0x7a6230c512d560496a7fe9754867a73f821140d29868be0031297b973bc49e9b",
          "blockNumber": "0x17f3fe2",
          "blockTimestamp": "0x6a0a0603",
          "transactionHash": "0xb9bb6d08b9cd71e8f0a421c0cf83ff3956732128879aff55435c1c159527707e",
          "transactionIndex": "0x27",
          "logIndex": "0x6f",
          "removed": false
        },
        {
          "address": "0x696d02db93291651ed510704c9b286841d506987",
          "topics": [
            "0x8c5be1e5ebec7d5bd14f71427d1e84f3dd0314c0f7b2291e5b200ac8c7c3b925",
            "0x000000000000000000000000bf3e996821d43ac3b6069ae74efa101ffc6137e0",
            "0x000000000000000000000000d82db9893751e9c90e2a6c3be31183048e8e2e49"
          ],
          "data": "0x0000000000000000000000000000000000000000000000000000000000000000",
          "blockHash": "0x7a6230c512d560496a7fe9754867a73f821140d29868be0031297b973bc49e9b",
          "blockNumber": "0x17f3fe2",
          "blockTimestamp": "0x6a0a0603",
          "transactionHash": "0xb9bb6d08b9cd71e8f0a421c0cf83ff3956732128879aff55435c1c159527707e",
          "transactionIndex": "0x27",
          "logIndex": "0x70",
          "removed": false
        },
        {
          "address": "0x696d02db93291651ed510704c9b286841d506987",
          "topics": [
            "0xddf252ad1be2c89b69c2b068fc378daa952ba7f163c4a11628f55a4df523b3ef",
            "0x000000000000000000000000bf3e996821d43ac3b6069ae74efa101ffc6137e0",
            "0x000000000000000000000000d82db9893751e9c90e2a6c3be31183048e8e2e49"
          ],
          "data": "0x00000000000000000000000000000000000000000000000000000002540bc27b",
          "blockHash": "0x7a6230c512d560496a7fe9754867a73f821140d29868be0031297b973bc49e9b",
          "blockNumber": "0x17f3fe2",
          "blockTimestamp": "0x6a0a0603",
          "transactionHash": "0xb9bb6d08b9cd71e8f0a421c0cf83ff3956732128879aff55435c1c159527707e",
          "transactionIndex": "0x27",
          "logIndex": "0x71",
          "removed": false
        },
        {
          "address": "0xa0b86991c6218b36c1d19d4a2e9eb0ce3606eb48",
          "topics": [
            "0xddf252ad1be2c89b69c2b068fc378daa952ba7f163c4a11628f55a4df523b3ef",
            "0x00000000000000000000000033c45216e121e31f1a8cd24c7e9d0d0c9e29b732",
            "0x000000000000000000000000bf3e996821d43ac3b6069ae74efa101ffc6137e0"
          ],
          "data": "0x000000000000000000000000000000000000000000000000000000021ed56773",
          "blockHash": "0x7a6230c512d560496a7fe9754867a73f821140d29868be0031297b973bc49e9b",
          "blockNumber": "0x17f3fe2",
          "blockTimestamp": "0x6a0a0603",
          "transactionHash": "0xb9bb6d08b9cd71e8f0a421c0cf83ff3956732128879aff55435c1c159527707e",
          "transactionIndex": "0x27",
          "logIndex": "0x72",
          "removed": false
        },
        {
          "address": "0xd82db9893751e9c90e2a6c3be31183048e8e2e49",
          "topics": [
            "0x48cc6255485654cd31337a688b4a1e06f8a768af7ec431040b7015bbb57d44b7",
            "0x2aecb5373e4ac1d443486ae559832293e1ef44a72b760b6703e063de00258f19",
            "0x0000000000000000000000005555e978e0732c198bc801477dfbccce66252ff5"
          ],
          "data": "0x00000000000000000000000000000000000000000000000000000002540bc27b000000000000000000000000000000000000000000000000000000021ed56773000000000000000000000000000000000000000000000000000000000002a99400000000000000000000000000000000000000000000000000000000000003e8",
          "blockHash": "0x7a6230c512d560496a7fe9754867a73f821140d29868be0031297b973bc49e9b",
          "blockNumber": "0x17f3fe2",
          "blockTimestamp": "0x6a0a0603",
          "transactionHash": "0xb9bb6d08b9cd71e8f0a421c0cf83ff3956732128879aff55435c1c159527707e",
          "transactionIndex": "0x27",
          "logIndex": "0x73",
          "removed": false
        },
        {
          "address": "0x696d02db93291651ed510704c9b286841d506987",
          "topics": [
            "0x8c5be1e5ebec7d5bd14f71427d1e84f3dd0314c0f7b2291e5b200ac8c7c3b925",
            "0x000000000000000000000000bf3e996821d43ac3b6069ae74efa101ffc6137e0",
            "0x000000000000000000000000d82db9893751e9c90e2a6c3be31183048e8e2e49"
          ],
          "data": "0x0000000000000000000000000000000000000000000000000000000000000000",
          "blockHash": "0x7a6230c512d560496a7fe9754867a73f821140d29868be0031297b973bc49e9b",
          "blockNumber": "0x17f3fe2",
          "blockTimestamp": "0x6a0a0603",
          "transactionHash": "0xb9bb6d08b9cd71e8f0a421c0cf83ff3956732128879aff55435c1c159527707e",
          "transactionIndex": "0x27",
          "logIndex": "0x74",
          "removed": false
        },
        {
          "address": "0xa0b86991c6218b36c1d19d4a2e9eb0ce3606eb48",
          "topics": [
            "0x8c5be1e5ebec7d5bd14f71427d1e84f3dd0314c0f7b2291e5b200ac8c7c3b925",
            "0x000000000000000000000000bf3e996821d43ac3b6069ae74efa101ffc6137e0",
            "0x000000000000000000000000bbbbbbbbbb9cc5e90e3b3af64bdaf62c37eeffcb"
          ],
          "data": "0x000000000000000000000000000000000000000000000000000000021ec781f0",
          "blockHash": "0x7a6230c512d560496a7fe9754867a73f821140d29868be0031297b973bc49e9b",
          "blockNumber": "0x17f3fe2",
          "blockTimestamp": "0x6a0a0603",
          "transactionHash": "0xb9bb6d08b9cd71e8f0a421c0cf83ff3956732128879aff55435c1c159527707e",
          "transactionIndex": "0x27",
          "logIndex": "0x75",
          "removed": false
        },
        {
          "address": "0xa0b86991c6218b36c1d19d4a2e9eb0ce3606eb48",
          "topics": [
            "0xddf252ad1be2c89b69c2b068fc378daa952ba7f163c4a11628f55a4df523b3ef",
            "0x000000000000000000000000bf3e996821d43ac3b6069ae74efa101ffc6137e0",
            "0x000000000000000000000000bbbbbbbbbb9cc5e90e3b3af64bdaf62c37eeffcb"
          ],
          "data": "0x000000000000000000000000000000000000000000000000000000021ec781f0",
          "blockHash": "0x7a6230c512d560496a7fe9754867a73f821140d29868be0031297b973bc49e9b",
          "blockNumber": "0x17f3fe2",
          "blockTimestamp": "0x6a0a0603",
          "transactionHash": "0xb9bb6d08b9cd71e8f0a421c0cf83ff3956732128879aff55435c1c159527707e",
          "transactionIndex": "0x27",
          "logIndex": "0x76",
          "removed": false
        },
        {
          "address": "0xa0b86991c6218b36c1d19d4a2e9eb0ce3606eb48",
          "topics": [
            "0xddf252ad1be2c89b69c2b068fc378daa952ba7f163c4a11628f55a4df523b3ef",
            "0x000000000000000000000000bf3e996821d43ac3b6069ae74efa101ffc6137e0",
            "0x0000000000000000000000005555e978e0732c198bc801477dfbccce66252ff5"
          ],
          "data": "0x00000000000000000000000000000000000000000000000000000000000de583",
          "blockHash": "0x7a6230c512d560496a7fe9754867a73f821140d29868be0031297b973bc49e9b",
          "blockNumber": "0x17f3fe2",
          "blockTimestamp": "0x6a0a0603",
          "transactionHash": "0xb9bb6d08b9cd71e8f0a421c0cf83ff3956732128879aff55435c1c159527707e",
          "transactionIndex": "0x27",
          "logIndex": "0x77",
          "removed": false
        }
      ],
      "logsBloom": "0x00000240000000000000000000800080001000000000002000000100400008000005100440000000000003800200031160190040000400408000040001200000400010500010000008900008000000010002004402028000004078200080000250000040120210000000021004000a0800000000000410000000801240001800010000020000000800000000101004420000c000110400000010000100000000020808010600210000000000800000000900000080010000000080001040400222002002001004c00040040002000020080902290008000000200000202020400010080201000000802001280000000004010000800010008082000000008000",
      "transactionHash": "0xb9bb6d08b9cd71e8f0a421c0cf83ff3956732128879aff55435c1c159527707e",
      "transactionIndex": "0x27",
      "blockHash": "0x7a6230c512d560496a7fe9754867a73f821140d29868be0031297b973bc49e9b",
      "blockNumber": "0x17f3fe2",
      "gasUsed": "0x12589c",
      "effectiveGasPrice": "0xc380497",
      "blobGasUsed": "0x0",
      "from": "0x5555e978e0732c198bc801477dfbccce66252ff5",
      "to": "0xbf3e996821d43ac3b6069ae74efa101ffc6137e0",
      "contractAddress": null
    }
  ],
  "libraries": [],
  "pending": [],
  "returns": {},
  "timestamp": 1779041799851,
  "chain": 1,
  "commit": "4b63ac5"
}