{
  "transactions": [
    {
      "hash": "0x84ad187880c2ecbd196a9822a1aa678d7aa0a17baf5243ffd4e2b5d9169d6628",
      "transactionType": "CALL",
      "contractName": null,
      "contractAddress": "0x696d02db93291651ed510704c9b286841d506987",
      "function": "approve(address,uint256)",
      "arguments": [
        "0xbF3E996821D43ac3b6069Ae74Efa101ffc6137E0",
        "500000000"
      ],
      "transaction": {
        "from": "0x5555e978e0732c198bc801477dfbccce66252ff5",
        "to": "0x696d02db93291651ed510704c9b286841d506987",
        "gas": "0x11aad",
        "value": "0x0",
        "input": "0x095ea7b3000000000000000000000000bf3e996821d43ac3b6069ae74efa101ffc6137e0000000000000000000000000000000000000000000000000000000001dcd6500",
        "nonce": "0x8e",
        "chainId": "0x1"
      },
      "additionalContracts": [],
      "isFixedGasLimit": false
    },
    {
      "hash": "0x3e626d1e9991eb18975ceeb4c9b2c43871bcba18faed53c510a341fbe1ccac68",
      "transactionType": "CALL",
      "contractName": null,
      "contractAddress": "0xbf3e996821d43ac3b6069ae74efa101ffc6137e0",
      "function": "open_leveraged_trove((address,address,address,address,uint256,uint256,uint256,uint256,uint256,uint256,uint256,uint256,uint256,uint256,(address,bytes),(address,bytes)))",
      "arguments": [
        "(0x5555E978E0732c198bc801477DFbccce66252fF5, 0xd82DB9893751E9C90E2a6C3bE31183048E8E2e49, 0xA0b86991c6218b36c1d19D4a2e9Eb0cE3606eB48, 0x1Ee35C67f8031291AEf79e2aBC87b904B9c47f07, 1779488951, 4555840500, 500000000, 4556296129, 19415366253230838187990856554055836262280025827684039580478059612191488053017, 0, 1000, 1092983, 4556296129, 0, (0xF75584eF6673aD213a685a1B58Cc0330B8eA22Cf, 0xb94c3609000000000000000000000000000000000000000000000000000000000000004000000000000000000000000000000000000000000000000000000000000000e0000000000000000000000000000000000000000000000000000000000000000100000000000000000000000000000000000000000000000000000000000000400000000000000000000000000000000000000000000000000000000000000040000000000000000000000000a0b86991c6218b36c1d19d4a2e9eb0ce3606eb48000000000000000000000000000000000000000000000000000000010f8c9bf400000000000000000000000000000000000000000000000000000000000002c495352c9f5425f86bfb267dca64186287ee4312f3e0ee923ec4afb3a8c933f04c9e4136aa29ca5c66f67810d7e85aa6f9953f9ddbd2aa9e27a03cc57c5393977bc7a63811000000000000000000000000000000000000000000000000000000000000008000000000000000000000000000000000000000000000000000000000000001200000000000000000000000000000000000000000000000000000000000000004095ea7b3010001ffffffffffa0b86991c6218b36c1d19d4a2e9eb0ce3606eb486e553f65010102ffffffff02696d02db93291651ed510704c9b286841d5069876e7a43a3010203ffffffff027e7d64d987cab6eed08a191c4c2459daf2f8ed0b241c59120102ffffffffffff7e7d64d987cab6eed08a191c4c2459daf2f8ed0b0000000000000000000000000000000000000000000000000000000000000004000000000000000000000000000000000000000000000000000000000000008000000000000000000000000000000000000000000000000000000000000000c0000000000000000000000000000000000000000000000000000000000000010000000000000000000000000000000000000000000000000000000000000001400000000000000000000000000000000000000000000000000000000000000020000000000000000000000000696d02db93291651ed510704c9b286841d5069870000000000000000000000000000000000000000000000000000000000000020000000000000000000000000000000000000000000000000000000010f8c9bf4000000000000000000000000000000000000000000000000000000000000002000000000000000000000000091eb419d77962bf89a0f1ca8b1fa525f443d54210000000000000000000000000000000000000000000000000000000000000020000000000000000000000000000000000000000000000000000000010989dfc600000000000000000000000000000000000000000000000000000000), (0x0000000000000000000000000000000000000000, 0x))"
      ],
      "transaction": {
        "from": "0x5555e978e0732c198bc801477dfbccce66252ff5",
        "to": "0xbf3e996821d43ac3b6069ae74efa101ffc6137e0",
        "gas": "0x1a007c",
        "value": "0x0",
        "input": "0xb54c70ed00000000000000000000000000000000000000000000000000000000000000200000000000000000000000005555e978e0732c198bc801477dfbccce66252ff5000000000000000000000000d82db9893751e9c90e2a6c3be31183048e8e2e49000000000000000000000000a0b86991c6218b36c1d19d4a2e9eb0ce3606eb480000000000000000000000001ee35c67f8031291aef79e2abc87b904b9c47f07000000000000000000000000000000000000000000000000000000006a10d8b7000000000000000000000000000000000000000000000000000000010f8c9bf4000000000000000000000000000000000000000000000000000000001dcd6500000000000000000000000000000000000000000000000000000000010f938fc12aecb5373e4ac1d443486ae559832293e1ef44a72b760b6703e063de00258f19000000000000000000000000000000000000000000000000000000000000000000000000000000000000000000000000000000000000000000000000000003e8000000000000000000000000000000000000000000000000000000000010ad77000000000000000000000000000000000000000000000000000000010f938fc1000000000000000000000000000000000000000000000000000000000000000000000000000000000000000000000000000000000000000000000000000002000000000000000000000000000000000000000000000000000000000000000660000000000000000000000000f75584ef6673ad213a685a1b58cc0330b8ea22cf000000000000000000000000000000000000000000000000000000000000004000000000000000000000000000000000000000000000000000000000000003e4b94c3609000000000000000000000000000000000000000000000000000000000000004000000000000000000000000000000000000000000000000000000000000000e0000000000000000000000000000000000000000000000000000000000000000100000000000000000000000000000000000000000000000000000000000000400000000000000000000000000000000000000000000000000000000000000040000000000000000000000000a0b86991c6218b36c1d19d4a2e9eb0ce3606eb48000000000000000000000000000000000000000000000000000000010f8c9bf400000000000000000000000000000000000000000000000000000000000002c495352c9f5425f86bfb267dca64186287ee4312f3e0ee923ec4afb3a8c933f04c9e4136aa29ca5c66f67810d7e85aa6f9953f9ddbd2aa9e27a03cc57c5393977bc7a63811000000000000000000000000000000000000000000000000000000000000008000000000000000000000000000000000000000000000000000000000000001200000000000000000000000000000000000000000000000000000000000000004095ea7b3010001ffffffffffa0b86991c6218b36c1d19d4a2e9eb0ce3606eb486e553f65010102ffffffff02696d02db93291651ed510704c9b286841d5069876e7a43a3010203ffffffff027e7d64d987cab6eed08a191c4c2459daf2f8ed0b241c59120102ffffffffffff7e7d64d987cab6eed08a191c4c2459daf2f8ed0b0000000000000000000000000000000000000000000000000000000000000004000000000000000000000000000000000000000000000000000000000000008000000000000000000000000000000000000000000000000000000000000000c0000000000000000000000000000000000000000000000000000000000000010000000000000000000000000000000000000000000000000000000000000001400000000000000000000000000000000000000000000000000000000000000020000000000000000000000000696d02db93291651ed510704c9b286841d5069870000000000000000000000000000000000000000000000000000000000000020000000000000000000000000000000000000000000000000000000010f8c9bf4000000000000000000000000000000000000000000000000000000000000002000000000000000000000000091eb419d77962bf89a0f1ca8b1fa525f443d54210000000000000000000000000000000000000000000000000000000000000020000000000000000000000000000000000000000000000000000000010989dfc60000000000000000000000000000000000000000000000000000000000000000000000000000000000000000000000000000000000000000000000000000000000000000000000000000000000000000000000000000000000000000000000000000000000000000000000000000000000000000000000400000000000000000000000000000000000000000000000000000000000000000",
        "nonce": "0x8f",
        "chainId": "0x1"
      },
      "additionalContracts": [],
      "isFixedGasLimit": false
    }
  ],
  "receipts": [
    {
      "type": "0x2",
      "status": "0x1",
      "cumulativeGasUsed": "0x1252831",
      "logs": [
        {
          "address": "0x696d02db93291651ed510704c9b286841d506987",
          "topics": [
            "0x8c5be1e5ebec7d5bd14f71427d1e84f3dd0314c0f7b2291e5b200ac8c7c3b925",
            "0x0000000000000000000000005555e978e0732c198bc801477dfbccce66252ff5",
            "0x000000000000000000000000bf3e996821d43ac3b6069ae74efa101ffc6137e0"
          ],
          "data": "0x000000000000000000000000000000000000000000000000000000001dcd6500",
          "blockHash": "0x5ca005977c982266857c0fc8aa3b3bc91fc9584928659a136e05a4140a9a28cc",
          "blockNumber": "0x17fd104",
          "blockTimestamp": "0x6a10d8ff",
          "transactionHash": "0x84ad187880c2ecbd196a9822a1aa678d7aa0a17baf5243ffd4e2b5d9169d6628",
          "transactionIndex": "0x12e",
          "logIndex": "0x21d",
          "removed": false
        }
      ],
      "logsBloom": "0x00000000000000000000000000000000000000000000000000000000000000000000000000000000000000000000020000000000000000000000000000200000000000000000000000000000000000000000000000000000000008000000000000000000000000000000000000000008000000000000000000000000000000000000000000000000000000001000000000000000100400000000000100000000020000000000000000000000000000000000000000000000000000000000000000000000000000800000000000000000000000000000000000000000000000000010000000000000000000000000000000000000000000008000000000000000",
      "transactionHash": "0x84ad187880c2ecbd196a9822a1aa678d7aa0a17baf5243ffd4e2b5d9169d6628",
      "transactionIndex": "0x12e",
      "blockHash": "0x5ca005977c982266857c0fc8aa3b3bc91fc9584928659a136e05a4140a9a28cc",
      "blockNumber": "0x17fd104",
      "gasUsed": "0xc149",
      "effectiveGasPrice": "0x3610767",
      "blobGasUsed": "0x0",
      "from": "0x5555e978e0732c198bc801477dfbccce66252ff5",
      "to": "0x696d02db93291651ed510704c9b286841d506987",
      "contractAddress": null
    },
    {
      "type": "0x2",
      "status": "0x1",
      "cumulativeGasUsed": "0xde9a65",
      "logs": [
        {
          "address": "0x696d02db93291651ed510704c9b286841d506987",
          "topics": [
            "0x8c5be1e5ebec7d5bd14f71427d1e84f3dd0314c0f7b2291e5b200ac8c7c3b925",
            "0x0000000000000000000000005555e978e0732c198bc801477dfbccce66252ff5",
            "0x000000000000000000000000bf3e996821d43ac3b6069ae74efa101ffc6137e0"
          ],
          "data": "0x0000000000000000000000000000000000000000000000000000000000000000",
          "blockHash": "0x5ef52789e6b8852843cca525b66b122205212d6ca15dffd9e934c48b1a372c33",
          "blockNumber": "0x17fd105",
          "blockTimestamp": "0x6a10d90b",
          "transactionHash": "0x3e626d1e9991eb18975ceeb4c9b2c43871bcba18faed53c510a341fbe1ccac68",
          "transactionIndex": "0x84",
          "logIndex": "0x174",
          "removed": false
        },
        {
          "address": "0x696d02db93291651ed510704c9b286841d506987",
          "topics": [
            "0xddf252ad1be2c89b69c2b068fc378daa952ba7f163c4a11628f55a4df523b3ef",
            "0x0000000000000000000000005555e978e0732c198bc801477dfbccce66252ff5",
            "0x000000000000000000000000bf3e996821d43ac3b6069ae74efa101ffc6137e0"
          ],
          "data": "0x000000000000000000000000000000000000000000000000000000001dcd6500",
          "blockHash": "0x5ef52789e6b8852843cca525b66b122205212d6ca15dffd9e934c48b1a372c33",
          "blockNumber": "0x17fd105",
          "blockTimestamp": "0x6a10d90b",
          "transactionHash": "0x3e626d1e9991eb18975ceeb4c9b2c43871bcba18faed53c510a341fbe1ccac68",
          "transactionIndex": "0x84",
          "logIndex": "0x175",
          "removed": false
        },
        {
          "address": "0xbbbbbbbbbb9cc5e90e3b3af64bdaf62c37eeffcb",
          "topics": [
            "0xc76f1b4fe4396ac07a9fa55a415d4ca430e72651d37d3401f3bed7cb13fc4f12",
            "0x000000000000000000000000bf3e996821d43ac3b6069ae74efa101ffc6137e0",
            "0x000000000000000000000000a0b86991c6218b36c1d19d4a2e9eb0ce3606eb48"
          ],
          "data": "0x000000000000000000000000000000000000000000000000000000010f8c9bf4",
          "blockHash": "0x5ef52789e6b8852843cca525b66b122205212d6ca15dffd9e934c48b1a372c33",
          "blockNumber": "0x17fd105",
          "blockTimestamp": "0x6a10d90b",
          "transactionHash": "0x3e626d1e9991eb18975ceeb4c9b2c43871bcba18faed53c510a341fbe1ccac68",
          "transactionIndex": "0x84",
          "logIndex": "0x176",
          "removed": false
        },
        {
          "address": "0xa0b86991c6218b36c1d19d4a2e9eb0ce3606eb48",
          "topics": [
            "0xddf252ad1be2c89b69c2b068fc378daa952ba7f163c4a11628f55a4df523b3ef",
            "0x000000000000000000000000bbbbbbbbbb9cc5e90e3b3af64bdaf62c37eeffcb",
            "0x000000000000000000000000bf3e996821d43ac3b6069ae74efa101ffc6137e0"
          ],
          "data": "0x000000000000000000000000000000000000000000000000000000010f8c9bf4",
          "blockHash": "0x5ef52789e6b8852843cca525b66b122205212d6ca15dffd9e934c48b1a372c33",
          "blockNumber": "0x17fd105",
          "blockTimestamp": "0x6a10d90b",
          "transactionHash": "0x3e626d1e9991eb18975ceeb4c9b2c43871bcba18faed53c510a341fbe1ccac68",
          "transactionIndex": "0x84",
          "logIndex": "0x177",
          "removed": false
        },
        {
          "address": "0xa0b86991c6218b36c1d19d4a2e9eb0ce3606eb48",
          "topics": [
            "0xddf252ad1be2c89b69c2b068fc378daa952ba7f163c4a11628f55a4df523b3ef",
            "0x000000000000000000000000bf3e996821d43ac3b6069ae74efa101ffc6137e0",
            "0x00000000000000000000000091eb419d77962bf89a0f1ca8b1fa525f443d5421"
          ],
          "data": "0x000000000000000000000000000000000000000000000000000000010f8c9bf4",
          "blockHash": "0x5ef52789e6b8852843cca525b66b122205212d6ca15dffd9e934c48b1a372c33",
          "blockNumber": "0x17fd105",
          "blockTimestamp": "0x6a10d90b",
          "transactionHash": "0x3e626d1e9991eb18975ceeb4c9b2c43871bcba18faed53c510a341fbe1ccac68",
          "transactionIndex": "0x84",
          "logIndex": "0x178",
          "removed": false
        },
        {
          "address": "0xa0b86991c6218b36c1d19d4a2e9eb0ce3606eb48",
          "topics": [
            "0x8c5be1e5ebec7d5bd14f71427d1e84f3dd0314c0f7b2291e5b200ac8c7c3b925",
            "0x00000000000000000000000091eb419d77962bf89a0f1ca8b1fa525f443d5421",
            "0x000000000000000000000000f75584ef6673ad213a685a1b58cc0330b8ea22cf"
          ],
          "data": "0x000000000000000000000000000000000000000000000000000000010f8c9bf4",
          "blockHash": "0x5ef52789e6b8852843cca525b66b122205212d6ca15dffd9e934c48b1a372c33",
          "blockNumber": "0x17fd105",
          "blockTimestamp": "0x6a10d90b",
          "transactionHash": "0x3e626d1e9991eb18975ceeb4c9b2c43871bcba18faed53c510a341fbe1ccac68",
          "transactionIndex": "0x84",
          "logIndex": "0x179",
          "removed": false
        },
        {
          "address": "0xa0b86991c6218b36c1d19d4a2e9eb0ce3606eb48",
          "topics": [
            "0xddf252ad1be2c89b69c2b068fc378daa952ba7f163c4a11628f55a4df523b3ef",
            "0x00000000000000000000000091eb419d77962bf89a0f1ca8b1fa525f443d5421",
            "0x0000000000000000000000004fe93ebc4ce6ae4f81601cc7ce7139023919e003"
          ],
          "data": "0x000000000000000000000000000000000000000000000000000000010f8c9bf4",
          "blockHash": "0x5ef52789e6b8852843cca525b66b122205212d6ca15dffd9e934c48b1a372c33",
          "blockNumber": "0x17fd105",
          "blockTimestamp": "0x6a10d90b",
          "transactionHash": "0x3e626d1e9991eb18975ceeb4c9b2c43871bcba18faed53c510a341fbe1ccac68",
          "transactionIndex": "0x84",
          "logIndex": "0x17a",
          "removed": false
        },
        {
          "address": "0xa0b86991c6218b36c1d19d4a2e9eb0ce3606eb48",
          "topics": [
            "0x8c5be1e5ebec7d5bd14f71427d1e84f3dd0314c0f7b2291e5b200ac8c7c3b925",
            "0x0000000000000000000000004fe93ebc4ce6ae4f81601cc7ce7139023919e003",
            "0x000000000000000000000000696d02db93291651ed510704c9b286841d506987"
          ],
          "data": "0x000000000000000000000000000000000000000000000000000000010f8c9bf4",
          "blockHash": "0x5ef52789e6b8852843cca525b66b122205212d6ca15dffd9e934c48b1a372c33",
          "blockNumber": "0x17fd105",
          "blockTimestamp": "0x6a10d90b",
          "transactionHash": "0x3e626d1e9991eb18975ceeb4c9b2c43871bcba18faed53c510a341fbe1ccac68",
          "transactionIndex": "0x84",
          "logIndex": "0x17b",
          "removed": false
        },
        {
          "address": "0xa0b86991c6218b36c1d19d4a2e9eb0ce3606eb48",
          "topics": [
            "0xddf252ad1be2c89b69c2b068fc378daa952ba7f163c4a11628f55a4df523b3ef",
            "0x0000000000000000000000004fe93ebc4ce6ae4f81601cc7ce7139023919e003",
            "0x000000000000000000000000696d02db93291651ed510704c9b286841d506987"
          ],
          "data": "0x000000000000000000000000000000000000000000000000000000010f8c9bf4",
          "blockHash": "0x5ef52789e6b8852843cca525b66b122205212d6ca15dffd9e934c48b1a372c33",
          "blockNumber": "0x17fd105",
          "blockTimestamp": "0x6a10d90b",
          "transactionHash": "0x3e626d1e9991eb18975ceeb4c9b2c43871bcba18faed53c510a341fbe1ccac68",
          "transactionIndex": "0x84",
          "logIndex": "0x17c",
          "removed": false
        },
        {
          "address": "0x696d02db93291651ed510704c9b286841d506987",
          "topics": [
            "0xddf252ad1be2c89b69c2b068fc378daa952ba7f163c4a11628f55a4df523b3ef",
            "0x0000000000000000000000000000000000000000000000000000000000000000",
            "0x00000000000000000000000091eb419d77962bf89a0f1ca8b1fa525f443d5421"
          ],
          "data": "0x000000000000000000000000000000000000000000000000000000010c38837b",
          "blockHash": "0x5ef52789e6b8852843cca525b66b122205212d6ca15dffd9e934c48b1a372c33",
          "blockNumber": "0x17fd105",
          "blockTimestamp": "0x6a10d90b",
          "transactionHash": "0x3e626d1e9991eb18975ceeb4c9b2c43871bcba18faed53c510a341fbe1ccac68",
          "transactionIndex": "0x84",
          "logIndex": "0x17d",
          "removed": false
        },
        {
          "address": "0x696d02db93291651ed510704c9b286841d506987",
          "topics": [
            "0xdcbc1c05240f31ff3ad067ef1ee35ce4997762752e3a095284754544f4c709d7",
            "0x0000000000000000000000004fe93ebc4ce6ae4f81601cc7ce7139023919e003",
            "0x00000000000000000000000091eb419d77962bf89a0f1ca8b1fa525f443d5421"
          ],
          "data": "0x000000000000000000000000000000000000000000000000000000010f8c9bf4000000000000000000000000000000000000000000000000000000010c38837b",
          "blockHash": "0x5ef52789e6b8852843cca525b66b122205212d6ca15dffd9e934c48b1a372c33",
          "blockNumber": "0x17fd105",
          "blockTimestamp": "0x6a10d90b",
          "transactionHash": "0x3e626d1e9991eb18975ceeb4c9b2c43871bcba18faed53c510a341fbe1ccac68",
          "transactionIndex": "0x84",
          "logIndex": "0x17e",
          "removed": false
        },
        {
          "address": "0xa0b86991c6218b36c1d19d4a2e9eb0ce3606eb48",
          "topics": [
            "0x8c5be1e5ebec7d5bd14f71427d1e84f3dd0314c0f7b2291e5b200ac8c7c3b925",
            "0x000000000000000000000000696d02db93291651ed510704c9b286841d506987",
            "0x000000000000000000000000da2f1b3cba732d779cff56f0cf9d3bc8aea6cd8d"
          ],
          "data": "0x000000000000000000000000000000000000000000000000000000010f8c9bf4",
          "blockHash": "0x5ef52789e6b8852843cca525b66b122205212d6ca15dffd9e934c48b1a372c33",
          "blockNumber": "0x17fd105",
          "blockTimestamp": "0x6a10d90b",
          "transactionHash": "0x3e626d1e9991eb18975ceeb4c9b2c43871bcba18faed53c510a341fbe1ccac68",
          "transactionIndex": "0x84",
          "logIndex": "0x17f",
          "removed": false
        },
        {
          "address": "0xa0b86991c6218b36c1d19d4a2e9eb0ce3606eb48",
          "topics": [
            "0xddf252ad1be2c89b69c2b068fc378daa952ba7f163c4a11628f55a4df523b3ef",
            "0x000000000000000000000000696d02db93291651ed510704c9b286841d506987",
            "0x000000000000000000000000da2f1b3cba732d779cff56f0cf9d3bc8aea6cd8d"
          ],
          "data": "0x000000000000000000000000000000000000000000000000000000010f8c9bf4",
          "blockHash": "0x5ef52789e6b8852843cca525b66b122205212d6ca15dffd9e934c48b1a372c33",
          "blockNumber": "0x17fd105",
          "blockTimestamp": "0x6a10d90b",
          "transactionHash": "0x3e626d1e9991eb18975ceeb4c9b2c43871bcba18faed53c510a341fbe1ccac68",
          "transactionIndex": "0x84",
          "logIndex": "0x180",
          "removed": false
        },
        {
          "address": "0xa0b86991c6218b36c1d19d4a2e9eb0ce3606eb48",
          "topics": [
            "0xddf252ad1be2c89b69c2b068fc378daa952ba7f163c4a11628f55a4df523b3ef",
            "0x000000000000000000000000da2f1b3cba732d779cff56f0cf9d3bc8aea6cd8d",
            "0x00000000000000000000000037305b1cd40574e4c5ce33f8e8306be057fd7341"
          ],
          "data": "0x000000000000000000000000000000000000000000000000000000010f8c9bf4",
          "blockHash": "0x5ef52789e6b8852843cca525b66b122205212d6ca15dffd9e934c48b1a372c33",
          "blockNumber": "0x17fd105",
          "blockTimestamp": "0x6a10d90b",
          "transactionHash": "0x3e626d1e9991eb18975ceeb4c9b2c43871bcba18faed53c510a341fbe1ccac68",
          "transactionIndex": "0x84",
          "logIndex": "0x181",
          "removed": false
        },
        {
          "address": "0x6b175474e89094c44da98b954eedeac495271d0f",
          "topics": [
            "0xddf252ad1be2c89b69c2b068fc378daa952ba7f163c4a11628f55a4df523b3ef",
            "0x000000000000000000000000f6e72db5454dd049d0788e411b06cfaf16853042",
            "0x000000000000000000000000da2f1b3cba732d779cff56f0cf9d3bc8aea6cd8d"
          ],
          "data": "0x0000000000000000000000000000000000000000000000f6f8fcdcdf5e034000",
          "blockHash": "0x5ef52789e6b8852843cca525b66b122205212d6ca15dffd9e934c48b1a372c33",
          "blockNumber": "0x17fd105",
          "blockTimestamp": "0x6a10d90b",
          "transactionHash": "0x3e626d1e9991eb18975ceeb4c9b2c43871bcba18faed53c510a341fbe1ccac68",
          "transactionIndex": "0x84",
          "logIndex": "0x182",
          "removed": false
        },
        {
          "address": "0xf6e72db5454dd049d0788e411b06cfaf16853042",
          "topics": [
            "0xef75f5a47cc9a929968796ceb84f19e7541617b4577f2c228ea95200e1572081",
            "0x000000000000000000000000da2f1b3cba732d779cff56f0cf9d3bc8aea6cd8d"
          ],
          "data": "0x000000000000000000000000000000000000000000000000000000010f8c9bf40000000000000000000000000000000000000000000000000000000000000000",
          "blockHash": "0x5ef52789e6b8852843cca525b66b122205212d6ca15dffd9e934c48b1a372c33",
          "blockNumber": "0x17fd105",
          "blockTimestamp": "0x6a10d90b",
          "transactionHash": "0x3e626d1e9991eb18975ceeb4c9b2c43871bcba18faed53c510a341fbe1ccac68",
          "transactionIndex": "0x84",
          "logIndex": "0x183",
          "removed": false
        },
        {
          "address": "0x6b175474e89094c44da98b954eedeac495271d0f",
          "topics": [
            "0xddf252ad1be2c89b69c2b068fc378daa952ba7f163c4a11628f55a4df523b3ef",
            "0x000000000000000000000000da2f1b3cba732d779cff56f0cf9d3bc8aea6cd8d",
            "0x0000000000000000000000003225737a9bbb6473cb4a45b7244aca2befdb276a"
          ],
          "data": "0x0000000000000000000000000000000000000000000000f6f8fcdcdf5e034000",
          "blockHash": "0x5ef52789e6b8852843cca525b66b122205212d6ca15dffd9e934c48b1a372c33",
          "blockNumber": "0x17fd105",
          "blockTimestamp": "0x6a10d90b",
          "transactionHash": "0x3e626d1e9991eb18975ceeb4c9b2c43871bcba18faed53c510a341fbe1ccac68",
          "transactionIndex": "0x84",
          "logIndex": "0x184",
          "removed": false
        },
        {
          "address": "0x35d1b3f3d7966a1dfe207aa4514c12a259a0492b",
          "topics": [
            "0xbb35783b00000000000000000000000000000000000000000000000000000000",
            "0x0000000000000000000000009759a6ac90977b93b58547b4a71c78317f391a28",
            "0x0000000000000000000000003225737a9bbb6473cb4a45b7244aca2befdb276a",
            "0x0000000000000000000000031e02f4177e53ada12a7c02ea15f5f20000000000"
          ],
          "data": "0x000000000000000000000000000000000000000000000000000000000000002000000000000000000000000000000000000000000000000000000000000000e0bb35783b0000000000000000000000009759a6ac90977b93b58547b4a71c78317f391a280000000000000000000000003225737a9bbb6473cb4a45b7244aca2befdb276a0000000000000000000000031e02f4177e53ada12a7c02ea15f5f2000000000000000000000000000000000000000000000000000000000000000000000000000000000000000000000000000000000000000000000000000000000000000000000000000000000000000000000000000000000000000000000000000000000000000000000000000000000000000000000000000000000000000000",
          "blockHash": "0x5ef52789e6b8852843cca525b66b122205212d6ca15dffd9e934c48b1a372c33",
          "blockNumber": "0x17fd105",
          "blockTimestamp": "0x6a10d90b",
          "transactionHash": "0x3e626d1e9991eb18975ceeb4c9b2c43871bcba18faed53c510a341fbe1ccac68",
          "transactionIndex": "0x84",
          "logIndex": "0x185",
          "removed": false
        },
        {
          "address": "0x6b175474e89094c44da98b954eedeac495271d0f",
          "topics": [
            "0xddf252ad1be2c89b69c2b068fc378daa952ba7f163c4a11628f55a4df523b3ef",
            "0x0000000000000000000000003225737a9bbb6473cb4a45b7244aca2befdb276a",
            "0x0000000000000000000000000000000000000000000000000000000000000000"
          ],
          "data": "0x0000000000000000000000000000000000000000000000f6f8fcdcdf5e034000",
          "blockHash": "0x5ef52789e6b8852843cca525b66b122205212d6ca15dffd9e934c48b1a372c33",
          "blockNumber": "0x17fd105",
          "blockTimestamp": "0x6a10d90b",
          "transactionHash": "0x3e626d1e9991eb18975ceeb4c9b2c43871bcba18faed53c510a341fbe1ccac68",
          "transactionIndex": "0x84",
          "logIndex": "0x186",
          "removed": false
        },
        {
          "address": "0x9759a6ac90977b93b58547b4a71c78317f391a28",
          "topics": [
            "0x3b4da69f00000000000000000000000000000000000000000000000000000000",
            "0x0000000000000000000000003225737a9bbb6473cb4a45b7244aca2befdb276a",
            "0x0000000000000000000000003225737a9bbb6473cb4a45b7244aca2befdb276a",
            "0x0000000000000000000000000000000000000000000000f6f8fcdcdf5e034000"
          ],
          "data": "0x000000000000000000000000000000000000000000000000000000000000002000000000000000000000000000000000000000000000000000000000000000e03b4da69f0000000000000000000000003225737a9bbb6473cb4a45b7244aca2befdb276a0000000000000000000000000000000000000000000000f6f8fcdcdf5e034000000000000000000000000000000000000000000000000000000000000000000000000000000000000000000000000000000000000000000000000000000000000000000000000000000000000000000000000000000000000000000000000000000000000000000000000000000000000000000000000000000000000000000000000000000000000000000000000000000000000000000000000000",
          "blockHash": "0x5ef52789e6b8852843cca525b66b122205212d6ca15dffd9e934c48b1a372c33",
          "blockNumber": "0x17fd105",
          "blockTimestamp": "0x6a10d90b",
          "transactionHash": "0x3e626d1e9991eb18975ceeb4c9b2c43871bcba18faed53c510a341fbe1ccac68",
          "transactionIndex": "0x84",
          "logIndex": "0x187",
          "removed": false
        },
        {
          "address": "0x35d1b3f3d7966a1dfe207aa4514c12a259a0492b",
          "topics": [
            "0xbb35783b00000000000000000000000000000000000000000000000000000000",
            "0x0000000000000000000000003225737a9bbb6473cb4a45b7244aca2befdb276a",
            "0x0000000000000000000000003c0f895007ca717aa01c8693e59df1e8c3777feb",
            "0x0000000000000000000000031e02f4177e53ada12a7c02ea15f5f20000000000"
          ],
          "data": "0x000000000000000000000000000000000000000000000000000000000000002000000000000000000000000000000000000000000000000000000000000000e0bb35783b0000000000000000000000003225737a9bbb6473cb4a45b7244aca2befdb276a0000000000000000000000003c0f895007ca717aa01c8693e59df1e8c3777feb0000000000000000000000031e02f4177e53ada12a7c02ea15f5f2000000000000000000000000000000000000000000000000000000000000000000000000000000000000000000000000000000000000000000000000000000000000000000000000000000000000000000000000000000000000000000000000000000000000000000000000000000000000000000000000000000000000000000",
          "blockHash": "0x5ef52789e6b8852843cca525b66b122205212d6ca15dffd9e934c48b1a372c33",
          "blockNumber": "0x17fd105",
          "blockTimestamp": "0x6a10d90b",
          "transactionHash": "0x3e626d1e9991eb18975ceeb4c9b2c43871bcba18faed53c510a341fbe1ccac68",
          "transactionIndex": "0x84",
          "logIndex": "0x188",
          "removed": false
        },
        {
          "address": "0xdc035d45d973e3ec169d2276ddab16f1e407384f",
          "topics": [
            "0xddf252ad1be2c89b69c2b068fc378daa952ba7f163c4a11628f55a4df523b3ef",
            "0x0000000000000000000000000000000000000000000000000000000000000000",
            "0x000000000000000000000000da2f1b3cba732d779cff56f0cf9d3bc8aea6cd8d"
          ],
          "data": "0x0000000000000000000000000000000000000000000000f6f8fcdcdf5e034000",
          "blockHash": "0x5ef52789e6b8852843cca525b66b122205212d6ca15dffd9e934c48b1a372c33",
          "blockNumber": "0x17fd105",
          "blockTimestamp": "0x6a10d90b",
          "transactionHash": "0x3e626d1e9991eb18975ceeb4c9b2c43871bcba18faed53c510a341fbe1ccac68",
          "transactionIndex": "0x84",
          "logIndex": "0x189",
          "removed": false
        },
        {
          "address": "0x3c0f895007ca717aa01c8693e59df1e8c3777feb",
          "topics": [
            "0xbc2a67d422c268da6fe45f3e7d194e1d98906d221f1cfad62a5c80f2cd209f4c",
            "0x0000000000000000000000003225737a9bbb6473cb4a45b7244aca2befdb276a",
            "0x000000000000000000000000da2f1b3cba732d779cff56f0cf9d3bc8aea6cd8d"
          ],
          "data": "0x0000000000000000000000000000000000000000000000f6f8fcdcdf5e034000",
          "blockHash": "0x5ef52789e6b8852843cca525b66b122205212d6ca15dffd9e934c48b1a372c33",
          "blockNumber": "0x17fd105",
          "blockTimestamp": "0x6a10d90b",
          "transactionHash": "0x3e626d1e9991eb18975ceeb4c9b2c43871bcba18faed53c510a341fbe1ccac68",
          "transactionIndex": "0x84",
          "logIndex": "0x18a",
          "removed": false
        },
        {
          "address": "0x3225737a9bbb6473cb4a45b7244aca2befdb276a",
          "topics": [
            "0x23889db6b244d239344deac88ec7781d810b3873fe323939d1ce0e8ac9564235",
            "0x000000000000000000000000da2f1b3cba732d779cff56f0cf9d3bc8aea6cd8d",
            "0x000000000000000000000000da2f1b3cba732d779cff56f0cf9d3bc8aea6cd8d"
          ],
          "data": "0x0000000000000000000000000000000000000000000000f6f8fcdcdf5e034000",
          "blockHash": "0x5ef52789e6b8852843cca525b66b122205212d6ca15dffd9e934c48b1a372c33",
          "blockNumber": "0x17fd105",
          "blockTimestamp": "0x6a10d90b",
          "transactionHash": "0x3e626d1e9991eb18975ceeb4c9b2c43871bcba18faed53c510a341fbe1ccac68",
          "transactionIndex": "0x84",
          "logIndex": "0x18b",
          "removed": false
        },
        {
          "address": "0x35d1b3f3d7966a1dfe207aa4514c12a259a0492b",
          "topics": [
            "0xf24e23eb00000000000000000000000000000000000000000000000000000000",
            "0x000000000000000000000000a950524441892a31ebddf91d3ceefa04bf454466",
            "0x000000000000000000000000a3931d71877c0e7a3148cb7eb4463524fec27fbd",
            "0x000000000000000000000002dae33ef4abccfdc185ae6da54c3a399000000000"
          ],
          "data": "0x000000000000000000000000000000000000000000000000000000000000002000000000000000000000000000000000000000000000000000000000000000e0f24e23eb000000000000000000000000a950524441892a31ebddf91d3ceefa04bf454466000000000000000000000000a3931d71877c0e7a3148cb7eb4463524fec27fbd000000000000000000000002dae33ef4abccfdc185ae6da54c3a39900000000000000000000000000000000000000000000000000000000000000000000000000000000000000000000000000000000000000000000000000000000000000000000000000000000000000000000000000000000000000000000000000000000000000000000000000000000000000000000000000000000000000000",
          "blockHash": "0x5ef52789e6b8852843cca525b66b122205212d6ca15dffd9e934c48b1a372c33",
          "blockNumber": "0x17fd105",
          "blockTimestamp": "0x6a10d90b",
          "transactionHash": "0x3e626d1e9991eb18975ceeb4c9b2c43871bcba18faed53c510a341fbe1ccac68",
          "transactionIndex": "0x84",
          "logIndex": "0x18c",
          "removed": false
        },
        {
          "address": "0x35d1b3f3d7966a1dfe207aa4514c12a259a0492b",
          "topics": [
            "0xbb35783b00000000000000000000000000000000000000000000000000000000",
            "0x000000000000000000000000a3931d71877c0e7a3148cb7eb4463524fec27fbd",
            "0x0000000000000000000000003c0f895007ca717aa01c8693e59df1e8c3777feb",
            "0x000000000000000000000002dae33ef4abccfdc185ae6da54c3a399000000000"
          ],
          "data": "0x000000000000000000000000000000000000000000000000000000000000002000000000000000000000000000000000000000000000000000000000000000e0bb35783b000000000000000000000000a3931d71877c0e7a3148cb7eb4463524fec27fbd0000000000000000000000003c0f895007ca717aa01c8693e59df1e8c3777feb000000000000000000000002dae33ef4abccfdc185ae6da54c3a39900000000000000000000000000000000000000000000000000000000000000000000000000000000000000000000000000000000000000000000000000000000000000000000000000000000000000000000000000000000000000000000000000000000000000000000000000000000000000000000000000000000000000000",
          "blockHash": "0x5ef52789e6b8852843cca525b66b122205212d6ca15dffd9e934c48b1a372c33",
          "blockNumber": "0x17fd105",
          "blockTimestamp": "0x6a10d90b",
          "transactionHash": "0x3e626d1e9991eb18975ceeb4c9b2c43871bcba18faed53c510a341fbe1ccac68",
          "transactionIndex": "0x84",
          "logIndex": "0x18d",
          "removed": false
        },
        {
          "address": "0xdc035d45d973e3ec169d2276ddab16f1e407384f",
          "topics": [
            "0xddf252ad1be2c89b69c2b068fc378daa952ba7f163c4a11628f55a4df523b3ef",
            "0x0000000000000000000000000000000000000000000000000000000000000000",
            "0x000000000000000000000000a3931d71877c0e7a3148cb7eb4463524fec27fbd"
          ],
          "data": "0x0000000000000000000000000000000000000000000000e232e349941ce25a00",
          "blockHash": "0x5ef52789e6b8852843cca525b66b122205212d6ca15dffd9e934c48b1a372c33",
          "blockNumber": "0x17fd105",
          "blockTimestamp": "0x6a10d90b",
          "transactionHash": "0x3e626d1e9991eb18975ceeb4c9b2c43871bcba18faed53c510a341fbe1ccac68",
          "transactionIndex": "0x84",
          "logIndex": "0x18e",
          "removed": false
        },
        {
          "address": "0x3c0f895007ca717aa01c8693e59df1e8c3777feb",
          "topics": [
            "0xbc2a67d422c268da6fe45f3e7d194e1d98906d221f1cfad62a5c80f2cd209f4c",
            "0x000000000000000000000000a3931d71877c0e7a3148cb7eb4463524fec27fbd",
            "0x000000000000000000000000a3931d71877c0e7a3148cb7eb4463524fec27fbd"
          ],
          "data": "0x0000000000000000000000000000000000000000000000e232e349941ce25a00",
          "blockHash": "0x5ef52789e6b8852843cca525b66b122205212d6ca15dffd9e934c48b1a372c33",
          "blockNumber": "0x17fd105",
          "blockTimestamp": "0x6a10d90b",
          "transactionHash": "0x3e626d1e9991eb18975ceeb4c9b2c43871bcba18faed53c510a341fbe1ccac68",
          "transactionIndex": "0x84",
          "logIndex": "0x18f",
          "removed": false
        },
        {
          "address": "0xa3931d71877c0e7a3148cb7eb4463524fec27fbd",
          "topics": [
            "0xad1e8a53178522eb68a9d94d862bf30c841f709d2115f743eb6b34528751c79f"
          ],
          "data": "0x0000000000000000000000000000000000000000038bb58547138d1c0af6ee0d0000000000000000000000000000000000000000000000e232e349941ce25a00",
          "blockHash": "0x5ef52789e6b8852843cca525b66b122205212d6ca15dffd9e934c48b1a372c33",
          "blockNumber": "0x17fd105",
          "blockTimestamp": "0x6a10d90b",
          "transactionHash": "0x3e626d1e9991eb18975ceeb4c9b2c43871bcba18faed53c510a341fbe1ccac68",
          "transactionIndex": "0x84",
          "logIndex": "0x190",
          "removed": false
        },
        {
          "address": "0xdc035d45d973e3ec169d2276ddab16f1e407384f",
          "topics": [
            "0xddf252ad1be2c89b69c2b068fc378daa952ba7f163c4a11628f55a4df523b3ef",
            "0x000000000000000000000000da2f1b3cba732d779cff56f0cf9d3bc8aea6cd8d",
            "0x000000000000000000000000a3931d71877c0e7a3148cb7eb4463524fec27fbd"
          ],
          "data": "0x0000000000000000000000000000000000000000000000f6f8fcdcdf5e034000",
          "blockHash": "0x5ef52789e6b8852843cca525b66b122205212d6ca15dffd9e934c48b1a372c33",
          "blockNumber": "0x17fd105",
          "blockTimestamp": "0x6a10d90b",
          "transactionHash": "0x3e626d1e9991eb18975ceeb4c9b2c43871bcba18faed53c510a341fbe1ccac68",
          "transactionIndex": "0x84",
          "logIndex": "0x191",
          "removed": false
        },
        {
          "address": "0xa3931d71877c0e7a3148cb7eb4463524fec27fbd",
          "topics": [
            "0xdcbc1c05240f31ff3ad067ef1ee35ce4997762752e3a095284754544f4c709d7",
            "0x000000000000000000000000da2f1b3cba732d779cff56f0cf9d3bc8aea6cd8d",
            "0x000000000000000000000000da2f1b3cba732d779cff56f0cf9d3bc8aea6cd8d"
          ],
          "data": "0x0000000000000000000000000000000000000000000000f6f8fcdcdf5e0340000000000000000000000000000000000000000000000000e10fe90b905d10e8a3",
          "blockHash": "0x5ef52789e6b8852843cca525b66b122205212d6ca15dffd9e934c48b1a372c33",
          "blockNumber": "0x17fd105",
          "blockTimestamp": "0x6a10d90b",
          "transactionHash": "0x3e626d1e9991eb18975ceeb4c9b2c43871bcba18faed53c510a341fbe1ccac68",
          "transactionIndex": "0x84",
          "logIndex": "0x192",
          "removed": false
        },
        {
          "address": "0xa3931d71877c0e7a3148cb7eb4463524fec27fbd",
          "topics": [
            "0xddf252ad1be2c89b69c2b068fc378daa952ba7f163c4a11628f55a4df523b3ef",
            "0x0000000000000000000000000000000000000000000000000000000000000000",
            "0x000000000000000000000000da2f1b3cba732d779cff56f0cf9d3bc8aea6cd8d"
          ],
          "data": "0x0000000000000000000000000000000000000000000000e10fe90b905d10e8a3",
          "blockHash": "0x5ef52789e6b8852843cca525b66b122205212d6ca15dffd9e934c48b1a372c33",
          "blockNumber": "0x17fd105",
          "blockTimestamp": "0x6a10d90b",
          "transactionHash": "0x3e626d1e9991eb18975ceeb4c9b2c43871bcba18faed53c510a341fbe1ccac68",
          "transactionIndex": "0x84",
          "logIndex": "0x193",
          "removed": false
        },
        {
          "address": "0xa3931d71877c0e7a3148cb7eb4463524fec27fbd",
          "topics": [
            "0xb30a03a0e2a407f18ae0e83491331dc069d1521e292feffb071e61c8f7f40636",
            "0x00000000000000000000000000000000000000000000000000000000000000e0",
            "0x000000000000000000000000da2f1b3cba732d779cff56f0cf9d3bc8aea6cd8d"
          ],
          "data": "0x0000000000000000000000000000000000000000000000f6f8fcdcdf5e0340000000000000000000000000000000000000000000000000e10fe90b905d10e8a3",
          "blockHash": "0x5ef52789e6b8852843cca525b66b122205212d6ca15dffd9e934c48b1a372c33",
          "blockNumber": "0x17fd105",
          "blockTimestamp": "0x6a10d90b",
          "transactionHash": "0x3e626d1e9991eb18975ceeb4c9b2c43871bcba18faed53c510a341fbe1ccac68",
          "transactionIndex": "0x84",
          "logIndex": "0x194",
          "removed": false
        },
        {
          "address": "0xda2f1b3cba732d779cff56f0cf9d3bc8aea6cd8d",
          "topics": [
            "0xddf252ad1be2c89b69c2b068fc378daa952ba7f163c4a11628f55a4df523b3ef",
            "0x0000000000000000000000000000000000000000000000000000000000000000",
            "0x000000000000000000000000696d02db93291651ed510704c9b286841d506987"
          ],
          "data": "0x000000000000000000000000000000000000000000000000000000010f852ade",
          "blockHash": "0x5ef52789e6b8852843cca525b66b122205212d6ca15dffd9e934c48b1a372c33",
          "blockNumber": "0x17fd105",
          "blockTimestamp": "0x6a10d90b",
          "transactionHash": "0x3e626d1e9991eb18975ceeb4c9b2c43871bcba18faed53c510a341fbe1ccac68",
          "transactionIndex": "0x84",
          "logIndex": "0x195",
          "removed": false
        },
        {
          "address": "0xda2f1b3cba732d779cff56f0cf9d3bc8aea6cd8d",
          "topics": [
            "0xdcbc1c05240f31ff3ad067ef1ee35ce4997762752e3a095284754544f4c709d7",
            "0x000000000000000000000000696d02db93291651ed510704c9b286841d506987",
            "0x000000000000000000000000696d02db93291651ed510704c9b286841d506987"
          ],
          "data": "0x000000000000000000000000000000000000000000000000000000010f8c9bf4000000000000000000000000000000000000000000000000000000010f852ade",
          "blockHash": "0x5ef52789e6b8852843cca525b66b122205212d6ca15dffd9e934c48b1a372c33",
          "blockNumber": "0x17fd105",
          "blockTimestamp": "0x6a10d90b",
          "transactionHash": "0x3e626d1e9991eb18975ceeb4c9b2c43871bcba18faed53c510a341fbe1ccac68",
          "transactionIndex": "0x84",
          "logIndex": "0x196",
          "removed": false
        },
        {
          "address": "0xa0b86991c6218b36c1d19d4a2e9eb0ce3606eb48",
          "topics": [
            "0x8c5be1e5ebec7d5bd14f71427d1e84f3dd0314c0f7b2291e5b200ac8c7c3b925",
            "0x000000000000000000000000696d02db93291651ed510704c9b286841d506987",
            "0x000000000000000000000000da2f1b3cba732d779cff56f0cf9d3bc8aea6cd8d"
          ],
          "data": "0x0000000000000000000000000000000000000000000000000000000000000000",
          "blockHash": "0x5ef52789e6b8852843cca525b66b122205212d6ca15dffd9e934c48b1a372c33",
          "blockNumber": "0x17fd105",
          "blockTimestamp": "0x6a10d90b",
          "transactionHash": "0x3e626d1e9991eb18975ceeb4c9b2c43871bcba18faed53c510a341fbe1ccac68",
          "transactionIndex": "0x84",
          "logIndex": "0x197",
          "removed": false
        },
        {
          "address": "0x696d02db93291651ed510704c9b286841d506987",
          "topics": [
            "0x5e2b8821ad6e0e26207e0cb4d242d07eeb1cbb1cfd853e645bdcd27cc5484f95",
            "0x000000000000000000000000da2f1b3cba732d779cff56f0cf9d3bc8aea6cd8d"
          ],
          "data": "0x0000000000000000000000000000000000000000000000000000010469b7748c0000000000000000000000000000000000000000000000000000010579441080",
          "blockHash": "0x5ef52789e6b8852843cca525b66b122205212d6ca15dffd9e934c48b1a372c33",
          "blockNumber": "0x17fd105",
          "blockTimestamp": "0x6a10d90b",
          "transactionHash": "0x3e626d1e9991eb18975ceeb4c9b2c43871bcba18faed53c510a341fbe1ccac68",
          "transactionIndex": "0x84",
          "logIndex": "0x198",
          "removed": false
        },
        {
          "address": "0x4fe93ebc4ce6ae4f81601cc7ce7139023919e003",
          "topics": [
            "0x049d8dd84b6a6cc45d5f68a74b23450bd3e54d84fd405d91b8b286c78d51d249"
          ],
          "data": "0x5425f86bfb267dca64186287ee4312f3e0ee923ec4afb3a8c933f04c9e4136aa29ca5c66f67810d7e85aa6f9953f9ddbd2aa9e27a03cc57c5393977bc7a63811",
          "blockHash": "0x5ef52789e6b8852843cca525b66b122205212d6ca15dffd9e934c48b1a372c33",
          "blockNumber": "0x17fd105",
          "blockTimestamp": "0x6a10d90b",
          "transactionHash": "0x3e626d1e9991eb18975ceeb4c9b2c43871bcba18faed53c510a341fbe1ccac68",
          "transactionIndex": "0x84",
          "logIndex": "0x199",
          "removed": false
        },
        {
          "address": "0xa0b86991c6218b36c1d19d4a2e9eb0ce3606eb48",
          "topics": [
            "0x8c5be1e5ebec7d5bd14f71427d1e84f3dd0314c0f7b2291e5b200ac8c7c3b925",
            "0x00000000000000000000000091eb419d77962bf89a0f1ca8b1fa525f443d5421",
            "0x000000000000000000000000f75584ef6673ad213a685a1b58cc0330b8ea22cf"
          ],
          "data": "0x0000000000000000000000000000000000000000000000000000000000000000",
          "blockHash": "0x5ef52789e6b8852843cca525b66b122205212d6ca15dffd9e934c48b1a372c33",
          "blockNumber": "0x17fd105",
          "blockTimestamp": "0x6a10d90b",
          "transactionHash": "0x3e626d1e9991eb18975ceeb4c9b2c43871bcba18faed53c510a341fbe1ccac68",
          "transactionIndex": "0x84",
          "logIndex": "0x19a",
          "removed": false
        },
        {
          "address": "0x696d02db93291651ed510704c9b286841d506987",
          "topics": [
            "0xddf252ad1be2c89b69c2b068fc378daa952ba7f163c4a11628f55a4df523b3ef",
            "0x00000000000000000000000091eb419d77962bf89a0f1ca8b1fa525f443d5421",
            "0x000000000000000000000000bf3e996821d43ac3b6069ae74efa101ffc6137e0"
          ],
          "data": "0x000000000000000000000000000000000000000000000000000000010c38837b",
          "blockHash": "0x5ef52789e6b8852843cca525b66b122205212d6ca15dffd9e934c48b1a372c33",
          "blockNumber": "0x17fd105",
          "blockTimestamp": "0x6a10d90b",
          "transactionHash": "0x3e626d1e9991eb18975ceeb4c9b2c43871bcba18faed53c510a341fbe1ccac68",
          "transactionIndex": "0x84",
          "logIndex": "0x19b",
          "removed": false
        },
        {
          "address": "0x696d02db93291651ed510704c9b286841d506987",
          "topics": [
            "0x8c5be1e5ebec7d5bd14f71427d1e84f3dd0314c0f7b2291e5b200ac8c7c3b925",
            "0x000000000000000000000000bf3e996821d43ac3b6069ae74efa101ffc6137e0",
            "0x000000000000000000000000d82db9893751e9c90e2a6c3be31183048e8e2e49"
          ],
          "data": "0x000000000000000000000000000000000000000000000000000000012a05e87b",
          "blockHash": "0x5ef52789e6b8852843cca525b66b122205212d6ca15dffd9e934c48b1a372c33",
          "blockNumber": "0x17fd105",
          "blockTimestamp": "0x6a10d90b",
          "transactionHash": "0x3e626d1e9991eb18975ceeb4c9b2c43871bcba18faed53c510a341fbe1ccac68",
          "transactionIndex": "0x84",
          "logIndex": "0x19c",
          "removed": false
        },
        {
          "address": "0x696d02db93291651ed510704c9b286841d506987",
          "topics": [
            "0x8c5be1e5ebec7d5bd14f71427d1e84f3dd0314c0f7b2291e5b200ac8c7c3b925",
            "0x000000000000000000000000bf3e996821d43ac3b6069ae74efa101ffc6137e0",
            "0x000000000000000000000000d82db9893751e9c90e2a6c3be31183048e8e2e49"
          ],
          "data": "0x0000000000000000000000000000000000000000000000000000000000000000",
          "blockHash": "0x5ef52789e6b8852843cca525b66b122205212d6ca15dffd9e934c48b1a372c33",
          "blockNumber": "0x17fd105",
          "blockTimestamp": "0x6a10d90b",
          "transactionHash": "0x3e626d1e9991eb18975ceeb4c9b2c43871bcba18faed53c510a341fbe1ccac68",
          "transactionIndex": "0x84",
          "logIndex": "0x19d",
          "removed": false
        },
        {
          "address": "0x696d02db93291651ed510704c9b286841d506987",
          "topics": [
            "0xddf252ad1be2c89b69c2b068fc378daa952ba7f163c4a11628f55a4df523b3ef",
            "0x000000000000000000000000bf3e996821d43ac3b6069ae74efa101ffc6137e0",
            "0x000000000000000000000000d82db9893751e9c90e2a6c3be31183048e8e2e49"
          ],
          "data": "0x000000000000000000000000000000000000000000000000000000012a05e87b",
          "blockHash": "0x5ef52789e6b8852843cca525b66b122205212d6ca15dffd9e934c48b1a372c33",
          "blockNumber": "0x17fd105",
          "blockTimestamp": "0x6a10d90b",
          "transactionHash": "0x3e626d1e9991eb18975ceeb4c9b2c43871bcba18faed53c510a341fbe1ccac68",
          "transactionIndex": "0x84",
          "logIndex": "0x19e",
          "removed": false
        },
        {
          "address": "0xa0b86991c6218b36c1d19d4a2e9eb0ce3606eb48",
          "topics": [
            "0xddf252ad1be2c89b69c2b068fc378daa952ba7f163c4a11628f55a4df523b3ef",
            "0x00000000000000000000000033c45216e121e31f1a8cd24c7e9d0d0c9e29b732",
            "0x000000000000000000000000bf3e996821d43ac3b6069ae74efa101ffc6137e0"
          ],
          "data": "0x000000000000000000000000000000000000000000000000000000010f938fc1",
          "blockHash": "0x5ef52789e6b8852843cca525b66b122205212d6ca15dffd9e934c48b1a372c33",
          "blockNumber": "0x17fd105",
          "blockTimestamp": "0x6a10d90b",
          "transactionHash": "0x3e626d1e9991eb18975ceeb4c9b2c43871bcba18faed53c510a341fbe1ccac68",
          "transactionIndex": "0x84",
          "logIndex": "0x19f",
          "removed": false
        },
        {
          "address": "0xd82db9893751e9c90e2a6c3be31183048e8e2e49",
          "topics": [
            "0x48cc6255485654cd31337a688b4a1e06f8a768af7ec431040b7015bbb57d44b7",
            "0xa82729583d59cb6e690973b34265f9749f68b94a68fcce3ca73cea01ad4cd7ce",
            "0x0000000000000000000000005555e978e0732c198bc801477dfbccce66252ff5"
          ],
          "data": "0x000000000000000000000000000000000000000000000000000000012a05e87b000000000000000000000000000000000000000000000000000000010f938fc1000000000000000000000000000000000000000000000000000000000010ad0a00000000000000000000000000000000000000000000000000000000000003e8",
          "blockHash": "0x5ef52789e6b8852843cca525b66b122205212d6ca15dffd9e934c48b1a372c33",
          "blockNumber": "0x17fd105",
          "blockTimestamp": "0x6a10d90b",
          "transactionHash": "0x3e626d1e9991eb18975ceeb4c9b2c43871bcba18faed53c510a341fbe1ccac68",
          "transactionIndex": "0x84",
          "logIndex": "0x1a0",
          "removed": false
        },
        {
          "address": "0x696d02db93291651ed510704c9b286841d506987",
          "topics": [
            "0x8c5be1e5ebec7d5bd14f71427d1e84f3dd0314c0f7b2291e5b200ac8c7c3b925",
            "0x000000000000000000000000bf3e996821d43ac3b6069ae74efa101ffc6137e0",
            "0x000000000000000000000000d82db9893751e9c90e2a6c3be31183048e8e2e49"
          ],
          "data": "0x0000000000000000000000000000000000000000000000000000000000000000",
          "blockHash": "0x5ef52789e6b8852843cca525b66b122205212d6ca15dffd9e934c48b1a372c33",
          "blockNumber": "0x17fd105",
          "blockTimestamp": "0x6a10d90b",
          "transactionHash": "0x3e626d1e9991eb18975ceeb4c9b2c43871bcba18faed53c510a341fbe1ccac68",
          "transactionIndex": "0x84",
          "logIndex": "0x1a1",
          "removed": false
        },
        {
          "address": "0xa0b86991c6218b36c1d19d4a2e9eb0ce3606eb48",
          "topics": [
            "0x8c5be1e5ebec7d5bd14f71427d1e84f3dd0314c0f7b2291e5b200ac8c7c3b925",
            "0x000000000000000000000000bf3e996821d43ac3b6069ae74efa101ffc6137e0",
            "0x000000000000000000000000bbbbbbbbbb9cc5e90e3b3af64bdaf62c37eeffcb"
          ],
          "data": "0x000000000000000000000000000000000000000000000000000000010f8c9bf4",
          "blockHash": "0x5ef52789e6b8852843cca525b66b122205212d6ca15dffd9e934c48b1a372c33",
          "blockNumber": "0x17fd105",
          "blockTimestamp": "0x6a10d90b",
          "transactionHash": "0x3e626d1e9991eb18975ceeb4c9b2c43871bcba18faed53c510a341fbe1ccac68",
          "transactionIndex": "0x84",
          "logIndex": "0x1a2",
          "removed": false
        },
        {
          "address": "0xa0b86991c6218b36c1d19d4a2e9eb0ce3606eb48",
          "topics": [
            "0xddf252ad1be2c89b69c2b068fc378daa952ba7f163c4a11628f55a4df523b3ef",
            "0x000000000000000000000000bf3e996821d43ac3b6069ae74efa101ffc6137e0",
            "0x000000000000000000000000bbbbbbbbbb9cc5e90e3b3af64bdaf62c37eeffcb"
          ],
          "data": "0x000000000000000000000000000000000000000000000000000000010f8c9bf4",
          "blockHash": "0x5ef52789e6b8852843cca525b66b122205212d6ca15dffd9e934c48b1a372c33",
          "blockNumber": "0x17fd105",
          "blockTimestamp": "0x6a10d90b",
          "transactionHash": "0x3e626d1e9991eb18975ceeb4c9b2c43871bcba18faed53c510a341fbe1ccac68",
          "transactionIndex": "0x84",
          "logIndex": "0x1a3",
          "removed": false
        },
        {
          "address": "0xa0b86991c6218b36c1d19d4a2e9eb0ce3606eb48",
          "topics": [
            "0xddf252ad1be2c89b69c2b068fc378daa952ba7f163c4a11628f55a4df523b3ef",
            "0x000000000000000000000000bf3e996821d43ac3b6069ae74efa101ffc6137e0",
            "0x0000000000000000000000005555e978e0732c198bc801477dfbccce66252ff5"
          ],
          "data": "0x000000000000000000000000000000000000000000000000000000000006f3cd",
          "blockHash": "0x5ef52789e6b8852843cca525b66b122205212d6ca15dffd9e934c48b1a372c33",
          "blockNumber": "0x17fd105",
          "blockTimestamp": "0x6a10d90b",
          "transactionHash": "0x3e626d1e9991eb18975ceeb4c9b2c43871bcba18faed53c510a341fbe1ccac68",
          "transactionIndex": "0x84",
          "logIndex": "0x1a4",
          "removed": false
        }
      ],
      "logsBloom": "0x000000400000000000000000008000c0001000000000002000000100400008000004140440800000000003800000030160190040000000408000040001200000400080500010008008900008000000010002004402028000004078200080000250000040120210000000021000080a0800000000000410000000901240001800000040020004000800000000101004420000c000110400080010000100000000020808010600210000000000000000000800000488010400000080001040400220002002001004c00040040002000020000902290008000000200000202020400010080001100000802001280000000004010000800010008002000000008000",
      "transactionHash": "0x3e626d1e9991eb18975ceeb4c9b2c43871bcba18faed53c510a341fbe1ccac68",
      "transactionIndex": "0x84",
      "blockHash": "0x5ef52789e6b8852843cca525b66b122205212d6ca15dffd9e934c48b1a372c33",
      "blockNumber": "0x17fd105",
      "gasUsed": "0x11c7d1",
      "effectiveGasPrice": "0x3410269",
      "blobGasUsed": "0x0",
      "from": "0x5555e978e0732c198bc801477dfbccce66252ff5",
      "to": "0xbf3e996821d43ac3b6069ae74efa101ffc6137e0",
      "contractAddress": null
    }
  ],
  "libraries": [],
  "pending": [],
  "returns": {},
  "timestamp": 1779489038803,
  "chain": 1,
  "commit": "7a94215"
}