{
  "transactions": [
    {
      "hash": "0x5a08eb3db1726f1e3c7720532fbb28f6272ae0b0482c2cefe9f84ea2943c31a8",
      "transactionType": "CALL",
      "contractName": null,
      "contractAddress": "0x770d0d1fb036483ed4abb6d53c1c88fb277d812f",
      "function": "deploy_new_vault(address,string,string,address,uint256)",
      "arguments": [
        "0xA0b86991c6218b36c1d19D4a2e9Eb0cE3606eB48",
        "Flex USDC yVault",
        "yvFlexUSDC",
        "0x000005281a2b04A182085D37cC9E6dD552795caa",
        "604800"
      ],
      "transaction": {
        "from": "0x000005281a2b04a182085d37cc9e6dd552795caa",
        "to": "0x770d0d1fb036483ed4abb6d53c1c88fb277d812f",
        "gas": "0x6576e",
        "value": "0x0",
        "input": "0xb4aeee77000000000000000000000000a0b86991c6218b36c1d19d4a2e9eb0ce3606eb4800000000000000000000000000000000000000000000000000000000000000a000000000000000000000000000000000000000000000000000000000000000e0000000000000000000000000000005281a2b04a182085d37cc9e6dd552795caa0000000000000000000000000000000000000000000000000000000000093a800000000000000000000000000000000000000000000000000000000000000010466c6578205553444320795661756c7400000000000000000000000000000000000000000000000000000000000000000000000000000000000000000000000a7976466c65785553444300000000000000000000000000000000000000000000",
        "nonce": "0x40",
        "chainId": "0x1"
      },
      "additionalContracts": [
        {
          "transactionType": "CREATE2",
          "contractName": null,
          "address": "0x863687e4e9751b57f38b4b0eba04744c72d0f7b8",
          "initCode": "0x602d3d8160093d39f3363d3d373d3d3d363d73d8063123bba3b480569244ae66bfe72b6c84b00d5af43d82803e903d91602b57fd5bf3"
        }
      ],
      "isFixedGasLimit": false
    },
    {
      "hash": "0xed8f5ec81bfa799ef2bcc1e821d7fcea7c511af64a3795eab7fc7dd575ee9ea7",
      "transactionType": "CALL",
      "contractName": null,
      "contractAddress": "0x863687e4e9751b57f38b4b0eba04744c72d0f7b8",
      "function": "set_role(address,uint256)",
      "arguments": [
        "0x000005281a2b04A182085D37cC9E6dD552795caa",
        "16383"
      ],
      "transaction": {
        "from": "0x000005281a2b04a182085d37cc9e6dd552795caa",
        "to": "0x863687e4e9751b57f38b4b0eba04744c72d0f7b8",
        "gas": "0x120c3",
        "value": "0x0",
        "input": "0x2cf7fd85000000000000000000000000000005281a2b04a182085d37cc9e6dd552795caa0000000000000000000000000000000000000000000000000000000000003fff",
        "nonce": "0x41",
        "chainId": "0x1"
      },
      "additionalContracts": [],
      "isFixedGasLimit": false
    },
    {
      "hash": "0x27d383822149df586441552f2d26c007790512a6bf9899a270f7b69242a83a89",
      "transactionType": "CALL",
      "contractName": null,
      "contractAddress": "0x863687e4e9751b57f38b4b0eba04744c72d0f7b8",
      "function": "set_role(address,uint256)",
      "arguments": [
        "0x16388463d60FFE0661Cf7F1f31a7D658aC790ff7",
        "16383"
      ],
      "transaction": {
        "from": "0x000005281a2b04a182085d37cc9e6dd552795caa",
        "to": "0x863687e4e9751b57f38b4b0eba04744c72d0f7b8",
        "gas": "0x120e6",
        "value": "0x0",
        "input": "0x2cf7fd8500000000000000000000000016388463d60ffe0661cf7f1f31a7d658ac790ff70000000000000000000000000000000000000000000000000000000000003fff",
        "nonce": "0x42",
        "chainId": "0x1"
      },
      "additionalContracts": [],
      "isFixedGasLimit": false
    },
    {
      "hash": "0x08fa8ffe803e5cb094c01bd9efebe473a2eecb844b9348ea02268bf51ce8496d",
      "transactionType": "CALL",
      "contractName": null,
      "contractAddress": "0x863687e4e9751b57f38b4b0eba04744c72d0f7b8",
      "function": "set_role(address,uint256)",
      "arguments": [
        "0x604e586F17cE106B64185A7a0d2c1Da5bAce711E",
        "32"
      ],
      "transaction": {
        "from": "0x000005281a2b04a182085d37cc9e6dd552795caa",
        "to": "0x863687e4e9751b57f38b4b0eba04744c72d0f7b8",
        "gas": "0x110c8",
        "value": "0x0",
        "input": "0x2cf7fd85000000000000000000000000604e586f17ce106b64185a7a0d2c1da5bace711e0000000000000000000000000000000000000000000000000000000000000020",
        "nonce": "0x43",
        "chainId": "0x1"
      },
      "additionalContracts": [],
      "isFixedGasLimit": false
    },
    {
      "hash": "0xaf320cd50c1e0537f274d18314f3d13753ed46c5977c71457c16d40aa58e059d",
      "transactionType": "CALL",
      "contractName": null,
      "contractAddress": "0x863687e4e9751b57f38b4b0eba04744c72d0f7b8",
      "function": "set_deposit_limit(uint256)",
      "arguments": [
        "100000000000000000000000000000"
      ],
      "transaction": {
        "from": "0x000005281a2b04a182085d37cc9e6dd552795caa",
        "to": "0x863687e4e9751b57f38b4b0eba04744c72d0f7b8",
        "gas": "0x122d4",
        "value": "0x0",
        "input": "0x6fe01d1e0000000000000000000000000000000000000001431e0fae6d7217caa0000000",
        "nonce": "0x44",
        "chainId": "0x1"
      },
      "additionalContracts": [],
      "isFixedGasLimit": false
    },
    {
      "hash": "0x7d5efcf416403a9a7dd816f6d26334ed726591775cc344d6a3803fcdfe231d19",
      "transactionType": "CALL",
      "contractName": null,
      "contractAddress": "0x863687e4e9751b57f38b4b0eba04744c72d0f7b8",
      "function": "set_auto_allocate(bool)",
      "arguments": [
        "true"
      ],
      "transaction": {
        "from": "0x000005281a2b04a182085d37cc9e6dd552795caa",
        "to": "0x863687e4e9751b57f38b4b0eba04744c72d0f7b8",
        "gas": "0x11af5",
        "value": "0x0",
        "input": "0x6f71047d0000000000000000000000000000000000000000000000000000000000000001",
        "nonce": "0x45",
        "chainId": "0x1"
      },
      "additionalContracts": [],
      "isFixedGasLimit": false
    },
    {
      "hash": "0xca425cdc1b3e67ac14859071f1f61cbd5a5a28f8203a7740655137dfaef1d59d",
      "transactionType": "CALL",
      "contractName": null,
      "contractAddress": "0x863687e4e9751b57f38b4b0eba04744c72d0f7b8",
      "function": "transfer_role_manager(address)",
      "arguments": [
        "0x16388463d60FFE0661Cf7F1f31a7D658aC790ff7"
      ],
      "transaction": {
        "from": "0x000005281a2b04a182085d37cc9e6dd552795caa",
        "to": "0x863687e4e9751b57f38b4b0eba04744c72d0f7b8",
        "gas": "0x10dc1",
        "value": "0x0",
        "input": "0xef54cefd00000000000000000000000016388463d60ffe0661cf7f1f31a7d658ac790ff7",
        "nonce": "0x46",
        "chainId": "0x1"
      },
      "additionalContracts": [],
      "isFixedGasLimit": false
    },
    {
      "hash": "0x747d847540452a4195e4c949ce086b73d2e9f4523d35c959702003d981e53bd6",
      "transactionType": "CALL",
      "contractName": null,
      "contractAddress": "0x863687e4e9751b57f38b4b0eba04744c72d0f7b8",
      "function": "set_role(address,uint256)",
      "arguments": [
        "0x000005281a2b04A182085D37cC9E6dD552795caa",
        "0"
      ],
      "transaction": {
        "from": "0x000005281a2b04a182085d37cc9e6dd552795caa",
        "to": "0x863687e4e9751b57f38b4b0eba04744c72d0f7b8",
        "gas": "0x9a6d",
        "value": "0x0",
        "input": "0x2cf7fd85000000000000000000000000000005281a2b04a182085d37cc9e6dd552795caa0000000000000000000000000000000000000000000000000000000000000000",
        "nonce": "0x47",
        "chainId": "0x1"
      },
      "additionalContracts": [],
      "isFixedGasLimit": false
    }
  ],
  "receipts": [
    {
      "type": "0x2",
      "status": "0x1",
      "cumulativeGasUsed": "0x219bbbf",
      "logs": [
        {
          "address": "0x770d0d1fb036483ed4abb6d53c1c88fb277d812f",
          "topics": [
            "0x4241302c393c713e690702c4a45a57e93cef59aa8c6e2358495853b3420551d8",
            "0x000000000000000000000000863687e4e9751b57f38b4b0eba04744c72d0f7b8",
            "0x000000000000000000000000a0b86991c6218b36c1d19d4a2e9eb0ce3606eb48"
          ],
          "data": "0x",
          "blockHash": "0x48da2bca07d0e34b1efc5ad7ed38434f3bd819c9f8a3bdacd06b7bd25db5dc73",
          "blockNumber": "0x17eb481",
          "blockTimestamp": "0x6a037777",
          "transactionHash": "0x5a08eb3db1726f1e3c7720532fbb28f6272ae0b0482c2cefe9f84ea2943c31a8",
          "transactionIndex": "0xd5",
          "logIndex": "0x2de",
          "removed": false
        }
      ],
      "logsBloom": "0x00000000040000000000000000000000000000000000000000200000000000000000000000000000000002000000000000000000000000000000000000000000000020000000000000000000000000000000000000010000000000000000000000000000000000000000000000000000000000000000000000000000000000000800000000000000000200000000000200000000000000000000000400000000000000000000000000000000000000002000000000000000000000000000000000000000000000000000000000000000000000000000000000000000000000000000000000020000000000000000000004000000000000000000000000000000",
      "transactionHash": "0x5a08eb3db1726f1e3c7720532fbb28f6272ae0b0482c2cefe9f84ea2943c31a8",
      "transactionIndex": "0xd5",
      "blockHash": "0x48da2bca07d0e34b1efc5ad7ed38434f3bd819c9f8a3bdacd06b7bd25db5dc73",
      "blockNumber": "0x17eb481",
      "gasUsed": "0x4560a",
      "effectiveGasPrice": "0xf32970f",
      "blobGasUsed": "0x0",
      "from": "0x000005281a2b04a182085d37cc9e6dd552795caa",
      "to": "0x770d0d1fb036483ed4abb6d53c1c88fb277d812f",
      "contractAddress": null
    },
    {
      "type": "0x2",
      "status": "0x1",
      "cumulativeGasUsed": "0x1c6f8be",
      "logs": [
        {
          "address": "0x863687e4e9751b57f38b4b0eba04744c72d0f7b8",
          "topics": [
            "0x78557646b1d8efa2cd49740d66df5aca39eb610ca8ca0e1ccac08979b6b2c46e",
            "0x000000000000000000000000000005281a2b04a182085d37cc9e6dd552795caa",
            "0x0000000000000000000000000000000000000000000000000000000000003fff"
          ],
          "data": "0x",
          "blockHash": "0xafc2aa545f311884d82e05eb9b68e14804f7dff115603bfb0fd5a89bb8d2eb92",
          "blockNumber": "0x17eb482",
          "blockTimestamp": "0x6a037783",
          "transactionHash": "0xed8f5ec81bfa799ef2bcc1e821d7fcea7c511af64a3795eab7fc7dd575ee9ea7",
          "transactionIndex": "0xd7",
          "logIndex": "0x2e0",
          "removed": false
        }
      ],
      "logsBloom": "0x00000000000000000000000000000000000000000000000000000000001000000000000000000000000000000000000008000000000000000000000000000000000000000000000000000000000000000000000000000000080040000001000000004000000000000000000000000000000000000008000000000000000000000000000000000000000000000000000000000000000000000000000000000000000000000000000000000040000000000000000000000000040000000000000000000000000000000000000000000000000000000102000000000000000000000000000000000000000000010000000000000000000000000000000000000000",
      "transactionHash": "0xed8f5ec81bfa799ef2bcc1e821d7fcea7c511af64a3795eab7fc7dd575ee9ea7",
      "transactionIndex": "0xd7",
      "blockHash": "0xafc2aa545f311884d82e05eb9b68e14804f7dff115603bfb0fd5a89bb8d2eb92",
      "blockNumber": "0x17eb482",
      "gasUsed": "0xc572",
      "effectiveGasPrice": "0x100cf6ce",
      "blobGasUsed": "0x0",
      "from": "0x000005281a2b04a182085d37cc9e6dd552795caa",
      "to": "0x863687e4e9751b57f38b4b0eba04744c72d0f7b8",
      "contractAddress": null
    },
    {
      "type": "0x2",
      "status": "0x1",
      "cumulativeGasUsed": "0x14d245b",
      "logs": [
        {
          "address": "0x863687e4e9751b57f38b4b0eba04744c72d0f7b8",
          "topics": [
            "0x78557646b1d8efa2cd49740d66df5aca39eb610ca8ca0e1ccac08979b6b2c46e",
            "0x00000000000000000000000016388463d60ffe0661cf7f1f31a7d658ac790ff7",
            "0x0000000000000000000000000000000000000000000000000000000000003fff"
          ],
          "data": "0x",
          "blockHash": "0x1a9a10b8b1af9a9a553c32f3ebe078916dd70b36483bed1b305393e8f929d946",
          "blockNumber": "0x17eb483",
          "blockTimestamp": "0x6a03778f",
          "transactionHash": "0x27d383822149df586441552f2d26c007790512a6bf9899a270f7b69242a83a89",
          "transactionIndex": "0xa5",
          "logIndex": "0x1b5",
          "removed": false
        }
      ],
      "logsBloom": "0x00000000080000000000000000000000000000000000000000000000001000000000000000000000000000000000000000000000000000000000000000000000000000000000000000000000000000000000000084000000000040000000000000004000000000000000000000000000000000000008000000000000000000000000000000000000000000000000000000000000000000000000000000000000000000000000000000000040000000000000000000000000040000000000000000000000000000000000000000000000000000000102000000000000000000000000000000000000000000010000000000000000000000000000000000000000",
      "transactionHash": "0x27d383822149df586441552f2d26c007790512a6bf9899a270f7b69242a83a89",
      "transactionIndex": "0xa5",
      "blockHash": "0x1a9a10b8b1af9a9a553c32f3ebe078916dd70b36483bed1b305393e8f929d946",
      "blockNumber": "0x17eb483",
      "gasUsed": "0xc58a",
      "effectiveGasPrice": "0x101d7535",
      "blobGasUsed": "0x0",
      "from": "0x000005281a2b04a182085d37cc9e6dd552795caa",
      "to": "0x863687e4e9751b57f38b4b0eba04744c72d0f7b8",
      "contractAddress": null
    },
    {
      "type": "0x2",
      "status": "0x1",
      "cumulativeGasUsed": "0x150e6aa",
      "logs": [
        {
          "address": "0x863687e4e9751b57f38b4b0eba04744c72d0f7b8",
          "topics": [
            "0x78557646b1d8efa2cd49740d66df5aca39eb610ca8ca0e1ccac08979b6b2c46e",
            "0x000000000000000000000000604e586f17ce106b64185a7a0d2c1da5bace711e",
            "0x0000000000000000000000000000000000000000000000000000000000000020"
          ],
          "data": "0x",
          "blockHash": "0xe0064efa7ae35b8d9a767524875ea0b687f9576cfd42d943e276b9de01e74882",
          "blockNumber": "0x17eb484",
          "blockTimestamp": "0x6a03779b",
          "transactionHash": "0x08fa8ffe803e5cb094c01bd9efebe473a2eecb844b9348ea02268bf51ce8496d",
          "transactionIndex": "0xb3",
          "logIndex": "0x22b",
          "removed": false
        }
      ],
      "logsBloom": "0x00000000000000000000000000000000000000000000000000000000000000000000000000000000000000000000000000400000000000000000000000000000000000000000000000000000000000000000000000000000000040000000000000004000000000000000000000000002000000000028000000000000000000000000000000000000000000000000000000000000000000000000000000000000000400000000000000000040000000000000000000000000040000000000000000000000000000000000000000000000080000000002000000000000000000000000400000000000000000000000000000000000000000000000000000000000",
      "transactionHash": "0x08fa8ffe803e5cb094c01bd9efebe473a2eecb844b9348ea02268bf51ce8496d",
      "transactionIndex": "0xb3",
      "blockHash": "0xe0064efa7ae35b8d9a767524875ea0b687f9576cfd42d943e276b9de01e74882",
      "blockNumber": "0x17eb484",
      "gasUsed": "0xc57e",
      "effectiveGasPrice": "0x1092c6f3",
      "blobGasUsed": "0x0",
      "from": "0x000005281a2b04a182085d37cc9e6dd552795caa",
      "to": "0x863687e4e9751b57f38b4b0eba04744c72d0f7b8",
      "contractAddress": null
    },
    {
      "type": "0x2",
      "status": "0x1",
      "cumulativeGasUsed": "0x210c48d",
      "logs": [
        {
          "address": "0x863687e4e9751b57f38b4b0eba04744c72d0f7b8",
          "topics": [
            "0xae565aab888bca5e19e25a13db7b0c9144305bf55cb0f3f4d724f730e5acdd62"
          ],
          "data": "0x0000000000000000000000000000000000000001431e0fae6d7217caa0000000",
          "blockHash": "0x975f196eec84e0a169e8e815f85cde481517af0b30ed03420c0b9c68b681f898",
          "blockNumber": "0x17eb485",
          "blockTimestamp": "0x6a0377a7",
          "transactionHash": "0xaf320cd50c1e0537f274d18314f3d13753ed46c5977c71457c16d40aa58e059d",
          "transactionIndex": "0xbe",
          "logIndex": "0x2c8",
          "removed": false
        }
      ],
      "logsBloom": "0x00000000000000000000000000000000000000000000000000001000000000000000000000000000000000000000000000000000000000000000000000000000000000000000000000000000000000000000000000000000000000000000000000004000000000000000000000000000000000040008000000000800000000000000000000000000000000000000000000000000000000000000000000000000000000000000000000000000000000000000000000000000040000000000000000000000000000000000000000000000000000000000000000000000000000000000000000000000000000000000000000000000000000000000000000000000",
      "transactionHash": "0xaf320cd50c1e0537f274d18314f3d13753ed46c5977c71457c16d40aa58e059d",
      "transactionIndex": "0xbe",
      "blockHash": "0x975f196eec84e0a169e8e815f85cde481517af0b30ed03420c0b9c68b681f898",
      "blockNumber": "0x17eb485",
      "gasUsed": "0xd28f",
      "effectiveGasPrice": "0x101c18e4",
      "blobGasUsed": "0x0",
      "from": "0x000005281a2b04a182085d37cc9e6dd552795caa",
      "to": "0x863687e4e9751b57f38b4b0eba04744c72d0f7b8",
      "contractAddress": null
    },
    {
      "type": "0x2",
      "status": "0x1",
      "cumulativeGasUsed": "0x141b1c3",
      "logs": [
        {
          "address": "0x863687e4e9751b57f38b4b0eba04744c72d0f7b8",
          "topics": [
            "0x68d2a9e78bb2679fce38ced936827f483b51ff64f0776fc33fc39b2881f237f8"
          ],
          "data": "0x0000000000000000000000000000000000000000000000000000000000000001",
          "blockHash": "0x40a5bc27fb6c20edd8fb39bb2f67be2c4f2ac7ea7c8d5ac22b881d46ca2f9151",
          "blockNumber": "0x17eb486",
          "blockTimestamp": "0x6a0377b3",
          "transactionHash": "0x7d5efcf416403a9a7dd816f6d26334ed726591775cc344d6a3803fcdfe231d19",
          "transactionIndex": "0xa3",
          "logIndex": "0x1b5",
          "removed": false
        }
      ],
      "logsBloom": "0x00000000000000000000000000000000000000000000000000000000000000000000000000000000000004020000000000000000000000000000000000000000000000000000000000000000000000000000000000000000000000000000000000004000000000000000000000000000000000000008000000000000000000000000000000000000000000000000000000000000000000000000000000000000000000000000000000000000000000000000000000000000040000000000000000000000000000000000000000000000000000000000000000000000000000000000000000000000000000000000000000000000000000002000000000000000",
      "transactionHash": "0x7d5efcf416403a9a7dd816f6d26334ed726591775cc344d6a3803fcdfe231d19",
      "transactionIndex": "0xa3",
      "blockHash": "0x40a5bc27fb6c20edd8fb39bb2f67be2c4f2ac7ea7c8d5ac22b881d46ca2f9151",
      "blockNumber": "0x17eb486",
      "gasUsed": "0xc17a",
      "effectiveGasPrice": "0x10a19f98",
      "blobGasUsed": "0x0",
      "from": "0x000005281a2b04a182085d37cc9e6dd552795caa",
      "to": "0x863687e4e9751b57f38b4b0eba04744c72d0f7b8",
      "contractAddress": null
    },
    {
      "type": "0x2",
      "status": "0x1",
      "cumulativeGasUsed": "0xfe5685",
      "logs": [
        {
          "address": "0x863687e4e9751b57f38b4b0eba04744c72d0f7b8",
          "topics": [
            "0x364d2f5fdafcc5778c92c031ccf715352535731482158c029793bd034198f571",
            "0x00000000000000000000000016388463d60ffe0661cf7f1f31a7d658ac790ff7"
          ],
          "data": "0x",
          "blockHash": "0x820ab30b7097bec786458f9984d4867cc2deb5de2d0c032da74ed7a546230e87",
          "blockNumber": "0x17eb487",
          "blockTimestamp": "0x6a0377bf",
          "transactionHash": "0xca425cdc1b3e67ac14859071f1f61cbd5a5a28f8203a7740655137dfaef1d59d",
          "transactionIndex": "0x9f",
          "logIndex": "0x229",
          "removed": false
        }
      ],
      "logsBloom": "0x00000000080000000000000000000000000000000000000000000000000000000000000000000002000000000000000000000000040000000000000000000000000000000002000000000000000000000000000084000000000000000000000000004000000000000000000000000000000000000008000000000000000000000000000000000000000000000000000000000000000000000000000000000000000000000000000000000000000000000000000000000000040000000000000000000000000000000000000000000000000000000000000000000000000000000000000000000000000000000000000000000000000000000000000000000000",
      "transactionHash": "0xca425cdc1b3e67ac14859071f1f61cbd5a5a28f8203a7740655137dfaef1d59d",
      "transactionIndex": "0x9f",
      "blockHash": "0x820ab30b7097bec786458f9984d4867cc2deb5de2d0c032da74ed7a546230e87",
      "blockNumber": "0x17eb487",
      "gasUsed": "0xc34d",
      "effectiveGasPrice": "0x104d1e96",
      "blobGasUsed": "0x0",
      "from": "0x000005281a2b04a182085d37cc9e6dd552795caa",
      "to": "0x863687e4e9751b57f38b4b0eba04744c72d0f7b8",
      "contractAddress": null
    },
    {
      "type": "0x2",
      "status": "0x1",
      "cumulativeGasUsed": "0x2244bc1",
      "logs": [
        {
          "address": "0x863687e4e9751b57f38b4b0eba04744c72d0f7b8",
          "topics": [
            "0x78557646b1d8efa2cd49740d66df5aca39eb610ca8ca0e1ccac08979b6b2c46e",
            "0x000000000000000000000000000005281a2b04a182085d37cc9e6dd552795caa",
            "0x0000000000000000000000000000000000000000000000000000000000000000"
          ],
          "data": "0x",
          "blockHash": "0xaa2ca76144479d1b2d59a41f31cbd9bec61d6e6966f7243cdf7ff627ceae7327",
          "blockNumber": "0x17eb488",
          "blockTimestamp": "0x6a0377cb",
          "transactionHash": "0x747d847540452a4195e4c949ce086b73d2e9f4523d35c959702003d981e53bd6",
          "transactionIndex": "0x109",
          "logIndex": "0x2f4",
          "removed": false
        }
      ],
      "logsBloom": "0x00000000000000000000000000000000000000000000000000000000000000000000000000000000000000000000000008000000000000000000000000000000000000000000000000000000000000000000000000000000080040000001000000004000020000000000000000000800000000000008000000000000000000000000000000000000000000000000000000000000000000000000000000000000000000000000000000000040000000000000000000000000040000000000000000000000000000000000000000000000000000000002000000000000000020000000000000000000000000000000000000000000000000000000000000000000",
      "transactionHash": "0x747d847540452a4195e4c949ce086b73d2e9f4523d35c959702003d981e53bd6",
      "transactionIndex": "0x109",
      "blockHash": "0xaa2ca76144479d1b2d59a41f31cbd9bec61d6e6966f7243cdf7ff627ceae7327",
      "blockNumber": "0x17eb488",
      "gasUsed": "0x6fce",
      "effectiveGasPrice": "0xfde60a1",
      "blobGasUsed": "0x0",
      "from": "0x000005281a2b04a182085d37cc9e6dd552795caa",
      "to": "0x863687e4e9751b57f38b4b0eba04744c72d0f7b8",
      "contractAddress": null
    }
  ],
  "libraries": [],
  "pending": [],
  "returns": {},
  "timestamp": 1778612175714,
  "chain": 1,
  "commit": "b5b89ae"
}