{
  "transactions": [
    {
      "hash": "0x93968a13b229ecb230dd439e579b407e0eb0d080f4fc1a56ad2b64308939b55e",
      "transactionType": "CALL",
      "contractName": null,
      "contractAddress": "0xbf3e996821d43ac3b6069ae74efa101ffc6137e0",
      "function": "lever_up_trove((address,address,address,uint256,uint256,uint256,uint256,uint256,uint256,uint256,(address,bytes),(address,bytes)))",
      "arguments": [
        "(0xd82DB9893751E9C90E2a6C3bE31183048E8E2e49, 0xA0b86991c6218b36c1d19D4a2e9Eb0cE3606eB48, 0x1Ee35C67f8031291AEf79e2aBC87b904B9c47f07, 55747671586403220826287365044824856006422462050911439375647723028660622133195, 2531207500, 0, 2531460646, 607208, 2531460646, 0, (0xF75584eF6673aD213a685a1B58Cc0330B8eA22Cf, 0xb94c3609000000000000000000000000000000000000000000000000000000000000004000000000000000000000000000000000000000000000000000000000000000e0000000000000000000000000000000000000000000000000000000000000000100000000000000000000000000000000000000000000000000000000000000400000000000000000000000000000000000000000000000000000000000000040000000000000000000000000a0b86991c6218b36c1d19d4a2e9eb0ce3606eb480000000000000000000000000000000000000000000000000000000096df294c00000000000000000000000000000000000000000000000000000000000002c495352c9f5425f86bfb267dca64186287ee4312f3e0ee923ec4afb3a8c933f04c9e4136aac3c7ff50201d32716c9056d9e6f9be07d40f4368570e888891c2ba54e207646f000000000000000000000000000000000000000000000000000000000000008000000000000000000000000000000000000000000000000000000000000001200000000000000000000000000000000000000000000000000000000000000004095ea7b3010001ffffffffffa0b86991c6218b36c1d19d4a2e9eb0ce3606eb486e553f65010102ffffffff02696d02db93291651ed510704c9b286841d5069876e7a43a3010203ffffffff027e7d64d987cab6eed08a191c4c2459daf2f8ed0b241c59120102ffffffffffff7e7d64d987cab6eed08a191c4c2459daf2f8ed0b0000000000000000000000000000000000000000000000000000000000000004000000000000000000000000000000000000000000000000000000000000008000000000000000000000000000000000000000000000000000000000000000c0000000000000000000000000000000000000000000000000000000000000010000000000000000000000000000000000000000000000000000000000000001400000000000000000000000000000000000000000000000000000000000000020000000000000000000000000696d02db93291651ed510704c9b286841d50698700000000000000000000000000000000000000000000000000000000000000200000000000000000000000000000000000000000000000000000000096df294c000000000000000000000000000000000000000000000000000000000000002000000000000000000000000091eb419d77962bf89a0f1ca8b1fa525f443d5421000000000000000000000000000000000000000000000000000000000000002000000000000000000000000000000000000000000000000000000000938577dd00000000000000000000000000000000000000000000000000000000), (0x0000000000000000000000000000000000000000, 0x))"
      ],
      "transaction": {
        "from": "0x5555e978e0732c198bc801477dfbccce66252ff5",
        "to": "0xbf3e996821d43ac3b6069ae74efa101ffc6137e0",
        "gas": "0x144a14",
        "value": "0x0",
        "input": "0x2199fa010000000000000000000000000000000000000000000000000000000000000020000000000000000000000000d82db9893751e9c90e2a6c3be31183048e8e2e49000000000000000000000000a0b86991c6218b36c1d19d4a2e9eb0ce3606eb480000000000000000000000001ee35c67f8031291aef79e2abc87b904b9c47f077b40105f590f776056974c301c2b203324db5f16c37c84eb1588270ac7eb07cb0000000000000000000000000000000000000000000000000000000096df294c00000000000000000000000000000000000000000000000000000000000000000000000000000000000000000000000000000000000000000000000096e3062600000000000000000000000000000000000000000000000000000000000943e80000000000000000000000000000000000000000000000000000000096e306260000000000000000000000000000000000000000000000000000000000000000000000000000000000000000000000000000000000000000000000000000018000000000000000000000000000000000000000000000000000000000000005e0000000000000000000000000f75584ef6673ad213a685a1b58cc0330b8ea22cf000000000000000000000000000000000000000000000000000000000000004000000000000000000000000000000000000000000000000000000000000003e4b94c3609000000000000000000000000000000000000000000000000000000000000004000000000000000000000000000000000000000000000000000000000000000e0000000000000000000000000000000000000000000000000000000000000000100000000000000000000000000000000000000000000000000000000000000400000000000000000000000000000000000000000000000000000000000000040000000000000000000000000a0b86991c6218b36c1d19d4a2e9eb0ce3606eb480000000000000000000000000000000000000000000000000000000096df294c00000000000000000000000000000000000000000000000000000000000002c495352c9f5425f86bfb267dca64186287ee4312f3e0ee923ec4afb3a8c933f04c9e4136aac3c7ff50201d32716c9056d9e6f9be07d40f4368570e888891c2ba54e207646f000000000000000000000000000000000000000000000000000000000000008000000000000000000000000000000000000000000000000000000000000001200000000000000000000000000000000000000000000000000000000000000004095ea7b3010001ffffffffffa0b86991c6218b36c1d19d4a2e9eb0ce3606eb486e553f65010102ffffffff02696d02db93291651ed510704c9b286841d5069876e7a43a3010203ffffffff027e7d64d987cab6eed08a191c4c2459daf2f8ed0b241c59120102ffffffffffff7e7d64d987cab6eed08a191c4c2459daf2f8ed0b0000000000000000000000000000000000000000000000000000000000000004000000000000000000000000000000000000000000000000000000000000008000000000000000000000000000000000000000000000000000000000000000c0000000000000000000000000000000000000000000000000000000000000010000000000000000000000000000000000000000000000000000000000000001400000000000000000000000000000000000000000000000000000000000000020000000000000000000000000696d02db93291651ed510704c9b286841d50698700000000000000000000000000000000000000000000000000000000000000200000000000000000000000000000000000000000000000000000000096df294c000000000000000000000000000000000000000000000000000000000000002000000000000000000000000091eb419d77962bf89a0f1ca8b1fa525f443d5421000000000000000000000000000000000000000000000000000000000000002000000000000000000000000000000000000000000000000000000000938577dd0000000000000000000000000000000000000000000000000000000000000000000000000000000000000000000000000000000000000000000000000000000000000000000000000000000000000000000000000000000000000000000000000000000000000000000000000000000000000000000000400000000000000000000000000000000000000000000000000000000000000000",
        "nonce": "0x95",
        "chainId": "0x1"
      },
      "additionalContracts": [],
      "isFixedGasLimit": false
    }
  ],
  "receipts": [
    {
      "type": "0x2",
      "status": "0x1",
      "cumulativeGasUsed": "0x121d9b5",
      "logs": [
        {
          "address": "0xbbbbbbbbbb9cc5e90e3b3af64bdaf62c37eeffcb",
          "topics": [
            "0xc76f1b4fe4396ac07a9fa55a415d4ca430e72651d37d3401f3bed7cb13fc4f12",
            "0x000000000000000000000000bf3e996821d43ac3b6069ae74efa101ffc6137e0",
            "0x000000000000000000000000a0b86991c6218b36c1d19d4a2e9eb0ce3606eb48"
          ],
          "data": "0x0000000000000000000000000000000000000000000000000000000096df294c",
          "blockHash": "0x7481da2a2a0c92c35f3068c7ba72c6039f9626f8b7b0fe400fa5ed09366c13a0",
          "blockNumber": "0x17fe22d",
          "blockTimestamp": "0x6a11a76f",
          "transactionHash": "0x93968a13b229ecb230dd439e579b407e0eb0d080f4fc1a56ad2b64308939b55e",
          "transactionIndex": "0xc9",
          "logIndex": "0x179",
          "removed": false
        },
        {
          "address": "0xa0b86991c6218b36c1d19d4a2e9eb0ce3606eb48",
          "topics": [
            "0xddf252ad1be2c89b69c2b068fc378daa952ba7f163c4a11628f55a4df523b3ef",
            "0x000000000000000000000000bbbbbbbbbb9cc5e90e3b3af64bdaf62c37eeffcb",
            "0x000000000000000000000000bf3e996821d43ac3b6069ae74efa101ffc6137e0"
          ],
          "data": "0x0000000000000000000000000000000000000000000000000000000096df294c",
          "blockHash": "0x7481da2a2a0c92c35f3068c7ba72c6039f9626f8b7b0fe400fa5ed09366c13a0",
          "blockNumber": "0x17fe22d",
          "blockTimestamp": "0x6a11a76f",
          "transactionHash": "0x93968a13b229ecb230dd439e579b407e0eb0d080f4fc1a56ad2b64308939b55e",
          "transactionIndex": "0xc9",
          "logIndex": "0x17a",
          "removed": false
        },
        {
          "address": "0xa0b86991c6218b36c1d19d4a2e9eb0ce3606eb48",
          "topics": [
            "0xddf252ad1be2c89b69c2b068fc378daa952ba7f163c4a11628f55a4df523b3ef",
            "0x000000000000000000000000bf3e996821d43ac3b6069ae74efa101ffc6137e0",
            "0x00000000000000000000000091eb419d77962bf89a0f1ca8b1fa525f443d5421"
          ],
          "data": "0x0000000000000000000000000000000000000000000000000000000096df294c",
          "blockHash": "0x7481da2a2a0c92c35f3068c7ba72c6039f9626f8b7b0fe400fa5ed09366c13a0",
          "blockNumber": "0x17fe22d",
          "blockTimestamp": "0x6a11a76f",
          "transactionHash": "0x93968a13b229ecb230dd439e579b407e0eb0d080f4fc1a56ad2b64308939b55e",
          "transactionIndex": "0xc9",
          "logIndex": "0x17b",
          "removed": false
        },
        {
          "address": "0xa0b86991c6218b36c1d19d4a2e9eb0ce3606eb48",
          "topics": [
            "0x8c5be1e5ebec7d5bd14f71427d1e84f3dd0314c0f7b2291e5b200ac8c7c3b925",
            "0x00000000000000000000000091eb419d77962bf89a0f1ca8b1fa525f443d5421",
            "0x000000000000000000000000f75584ef6673ad213a685a1b58cc0330b8ea22cf"
          ],
          "data": "0x0000000000000000000000000000000000000000000000000000000096df294c",
          "blockHash": "0x7481da2a2a0c92c35f3068c7ba72c6039f9626f8b7b0fe400fa5ed09366c13a0",
          "blockNumber": "0x17fe22d",
          "blockTimestamp": "0x6a11a76f",
          "transactionHash": "0x93968a13b229ecb230dd439e579b407e0eb0d080f4fc1a56ad2b64308939b55e",
          "transactionIndex": "0xc9",
          "logIndex": "0x17c",
          "removed": false
        },
        {
          "address": "0xa0b86991c6218b36c1d19d4a2e9eb0ce3606eb48",
          "topics": [
            "0xddf252ad1be2c89b69c2b068fc378daa952ba7f163c4a11628f55a4df523b3ef",
            "0x00000000000000000000000091eb419d77962bf89a0f1ca8b1fa525f443d5421",
            "0x0000000000000000000000004fe93ebc4ce6ae4f81601cc7ce7139023919e003"
          ],
          "data": "0x0000000000000000000000000000000000000000000000000000000096df294c",
          "blockHash": "0x7481da2a2a0c92c35f3068c7ba72c6039f9626f8b7b0fe400fa5ed09366c13a0",
          "blockNumber": "0x17fe22d",
          "blockTimestamp": "0x6a11a76f",
          "transactionHash": "0x93968a13b229ecb230dd439e579b407e0eb0d080f4fc1a56ad2b64308939b55e",
          "transactionIndex": "0xc9",
          "logIndex": "0x17d",
          "removed": false
        },
        {
          "address": "0xa0b86991c6218b36c1d19d4a2e9eb0ce3606eb48",
          "topics": [
            "0x8c5be1e5ebec7d5bd14f71427d1e84f3dd0314c0f7b2291e5b200ac8c7c3b925",
            "0x0000000000000000000000004fe93ebc4ce6ae4f81601cc7ce7139023919e003",
            "0x000000000000000000000000696d02db93291651ed510704c9b286841d506987"
          ],
          "data": "0x0000000000000000000000000000000000000000000000000000000096df294c",
          "blockHash": "0x7481da2a2a0c92c35f3068c7ba72c6039f9626f8b7b0fe400fa5ed09366c13a0",
          "blockNumber": "0x17fe22d",
          "blockTimestamp": "0x6a11a76f",
          "transactionHash": "0x93968a13b229ecb230dd439e579b407e0eb0d080f4fc1a56ad2b64308939b55e",
          "transactionIndex": "0xc9",
          "logIndex": "0x17e",
          "removed": false
        },
        {
          "address": "0xa0b86991c6218b36c1d19d4a2e9eb0ce3606eb48",
          "topics": [
            "0xddf252ad1be2c89b69c2b068fc378daa952ba7f163c4a11628f55a4df523b3ef",
            "0x0000000000000000000000004fe93ebc4ce6ae4f81601cc7ce7139023919e003",
            "0x000000000000000000000000696d02db93291651ed510704c9b286841d506987"
          ],
          "data": "0x0000000000000000000000000000000000000000000000000000000096df294c",
          "blockHash": "0x7481da2a2a0c92c35f3068c7ba72c6039f9626f8b7b0fe400fa5ed09366c13a0",
          "blockNumber": "0x17fe22d",
          "blockTimestamp": "0x6a11a76f",
          "transactionHash": "0x93968a13b229ecb230dd439e579b407e0eb0d080f4fc1a56ad2b64308939b55e",
          "transactionIndex": "0xc9",
          "logIndex": "0x17f",
          "removed": false
        },
        {
          "address": "0x696d02db93291651ed510704c9b286841d506987",
          "topics": [
            "0xddf252ad1be2c89b69c2b068fc378daa952ba7f163c4a11628f55a4df523b3ef",
            "0x0000000000000000000000000000000000000000000000000000000000000000",
            "0x00000000000000000000000091eb419d77962bf89a0f1ca8b1fa525f443d5421"
          ],
          "data": "0x000000000000000000000000000000000000000000000000000000009502ef60",
          "blockHash": "0x7481da2a2a0c92c35f3068c7ba72c6039f9626f8b7b0fe400fa5ed09366c13a0",
          "blockNumber": "0x17fe22d",
          "blockTimestamp": "0x6a11a76f",
          "transactionHash": "0x93968a13b229ecb230dd439e579b407e0eb0d080f4fc1a56ad2b64308939b55e",
          "transactionIndex": "0xc9",
          "logIndex": "0x180",
          "removed": false
        },
        {
          "address": "0x696d02db93291651ed510704c9b286841d506987",
          "topics": [
            "0xdcbc1c05240f31ff3ad067ef1ee35ce4997762752e3a095284754544f4c709d7",
            "0x0000000000000000000000004fe93ebc4ce6ae4f81601cc7ce7139023919e003",
            "0x00000000000000000000000091eb419d77962bf89a0f1ca8b1fa525f443d5421"
          ],
          "data": "0x0000000000000000000000000000000000000000000000000000000096df294c000000000000000000000000000000000000000000000000000000009502ef60",
          "blockHash": "0x7481da2a2a0c92c35f3068c7ba72c6039f9626f8b7b0fe400fa5ed09366c13a0",
          "blockNumber": "0x17fe22d",
          "blockTimestamp": "0x6a11a76f",
          "transactionHash": "0x93968a13b229ecb230dd439e579b407e0eb0d080f4fc1a56ad2b64308939b55e",
          "transactionIndex": "0xc9",
          "logIndex": "0x181",
          "removed": false
        },
        {
          "address": "0xa0b86991c6218b36c1d19d4a2e9eb0ce3606eb48",
          "topics": [
            "0x8c5be1e5ebec7d5bd14f71427d1e84f3dd0314c0f7b2291e5b200ac8c7c3b925",
            "0x000000000000000000000000696d02db93291651ed510704c9b286841d506987",
            "0x000000000000000000000000da2f1b3cba732d779cff56f0cf9d3bc8aea6cd8d"
          ],
          "data": "0x0000000000000000000000000000000000000000000000000000000096df294c",
          "blockHash": "0x7481da2a2a0c92c35f3068c7ba72c6039f9626f8b7b0fe400fa5ed09366c13a0",
          "blockNumber": "0x17fe22d",
          "blockTimestamp": "0x6a11a76f",
          "transactionHash": "0x93968a13b229ecb230dd439e579b407e0eb0d080f4fc1a56ad2b64308939b55e",
          "transactionIndex": "0xc9",
          "logIndex": "0x182",
          "removed": false
        },
        {
          "address": "0xa0b86991c6218b36c1d19d4a2e9eb0ce3606eb48",
          "topics": [
            "0xddf252ad1be2c89b69c2b068fc378daa952ba7f163c4a11628f55a4df523b3ef",
            "0x000000000000000000000000696d02db93291651ed510704c9b286841d506987",
            "0x000000000000000000000000da2f1b3cba732d779cff56f0cf9d3bc8aea6cd8d"
          ],
          "data": "0x0000000000000000000000000000000000000000000000000000000096df294c",
          "blockHash": "0x7481da2a2a0c92c35f3068c7ba72c6039f9626f8b7b0fe400fa5ed09366c13a0",
          "blockNumber": "0x17fe22d",
          "blockTimestamp": "0x6a11a76f",
          "transactionHash": "0x93968a13b229ecb230dd439e579b407e0eb0d080f4fc1a56ad2b64308939b55e",
          "transactionIndex": "0xc9",
          "logIndex": "0x183",
          "removed": false
        },
        {
          "address": "0xa0b86991c6218b36c1d19d4a2e9eb0ce3606eb48",
          "topics": [
            "0xddf252ad1be2c89b69c2b068fc378daa952ba7f163c4a11628f55a4df523b3ef",
            "0x000000000000000000000000da2f1b3cba732d779cff56f0cf9d3bc8aea6cd8d",
            "0x00000000000000000000000037305b1cd40574e4c5ce33f8e8306be057fd7341"
          ],
          "data": "0x0000000000000000000000000000000000000000000000000000000096df294c",
          "blockHash": "0x7481da2a2a0c92c35f3068c7ba72c6039f9626f8b7b0fe400fa5ed09366c13a0",
          "blockNumber": "0x17fe22d",
          "blockTimestamp": "0x6a11a76f",
          "transactionHash": "0x93968a13b229ecb230dd439e579b407e0eb0d080f4fc1a56ad2b64308939b55e",
          "transactionIndex": "0xc9",
          "logIndex": "0x184",
          "removed": false
        },
        {
          "address": "0x6b175474e89094c44da98b954eedeac495271d0f",
          "topics": [
            "0xddf252ad1be2c89b69c2b068fc378daa952ba7f163c4a11628f55a4df523b3ef",
            "0x000000000000000000000000f6e72db5454dd049d0788e411b06cfaf16853042",
            "0x000000000000000000000000da2f1b3cba732d779cff56f0cf9d3bc8aea6cd8d"
          ],
          "data": "0x000000000000000000000000000000000000000000000089378f82568090c000",
          "blockHash": "0x7481da2a2a0c92c35f3068c7ba72c6039f9626f8b7b0fe400fa5ed09366c13a0",
          "blockNumber": "0x17fe22d",
          "blockTimestamp": "0x6a11a76f",
          "transactionHash": "0x93968a13b229ecb230dd439e579b407e0eb0d080f4fc1a56ad2b64308939b55e",
          "transactionIndex": "0xc9",
          "logIndex": "0x185",
          "removed": false
        },
        {
          "address": "0xf6e72db5454dd049d0788e411b06cfaf16853042",
          "topics": [
            "0xef75f5a47cc9a929968796ceb84f19e7541617b4577f2c228ea95200e1572081",
            "0x000000000000000000000000da2f1b3cba732d779cff56f0cf9d3bc8aea6cd8d"
          ],
          "data": "0x0000000000000000000000000000000000000000000000000000000096df294c0000000000000000000000000000000000000000000000000000000000000000",
          "blockHash": "0x7481da2a2a0c92c35f3068c7ba72c6039f9626f8b7b0fe400fa5ed09366c13a0",
          "blockNumber": "0x17fe22d",
          "blockTimestamp": "0x6a11a76f",
          "transactionHash": "0x93968a13b229ecb230dd439e579b407e0eb0d080f4fc1a56ad2b64308939b55e",
          "transactionIndex": "0xc9",
          "logIndex": "0x186",
          "removed": false
        },
        {
          "address": "0x6b175474e89094c44da98b954eedeac495271d0f",
          "topics": [
            "0xddf252ad1be2c89b69c2b068fc378daa952ba7f163c4a11628f55a4df523b3ef",
            "0x000000000000000000000000da2f1b3cba732d779cff56f0cf9d3bc8aea6cd8d",
            "0x0000000000000000000000003225737a9bbb6473cb4a45b7244aca2befdb276a"
          ],
          "data": "0x000000000000000000000000000000000000000000000089378f82568090c000",
          "blockHash": "0x7481da2a2a0c92c35f3068c7ba72c6039f9626f8b7b0fe400fa5ed09366c13a0",
          "blockNumber": "0x17fe22d",
          "blockTimestamp": "0x6a11a76f",
          "transactionHash": "0x93968a13b229ecb230dd439e579b407e0eb0d080f4fc1a56ad2b64308939b55e",
          "transactionIndex": "0xc9",
          "logIndex": "0x187",
          "removed": false
        },
        {
          "address": "0x35d1b3f3d7966a1dfe207aa4514c12a259a0492b",
          "topics": [
            "0xbb35783b00000000000000000000000000000000000000000000000000000000",
            "0x0000000000000000000000009759a6ac90977b93b58547b4a71c78317f391a28",
            "0x0000000000000000000000003225737a9bbb6473cb4a45b7244aca2befdb276a",
            "0x000000000000000000000001bb5f451485c36df725b73788e6702e0000000000"
          ],
          "data": "0x000000000000000000000000000000000000000000000000000000000000002000000000000000000000000000000000000000000000000000000000000000e0bb35783b0000000000000000000000009759a6ac90977b93b58547b4a71c78317f391a280000000000000000000000003225737a9bbb6473cb4a45b7244aca2befdb276a000000000000000000000001bb5f451485c36df725b73788e6702e000000000000000000000000000000000000000000000000000000000000000000000000000000000000000000000000000000000000000000000000000000000000000000000000000000000000000000000000000000000000000000000000000000000000000000000000000000000000000000000000000000000000000000",
          "blockHash": "0x7481da2a2a0c92c35f3068c7ba72c6039f9626f8b7b0fe400fa5ed09366c13a0",
          "blockNumber": "0x17fe22d",
          "blockTimestamp": "0x6a11a76f",
          "transactionHash": "0x93968a13b229ecb230dd439e579b407e0eb0d080f4fc1a56ad2b64308939b55e",
          "transactionIndex": "0xc9",
          "logIndex": "0x188",
          "removed": false
        },
        {
          "address": "0x6b175474e89094c44da98b954eedeac495271d0f",
          "topics": [
            "0xddf252ad1be2c89b69c2b068fc378daa952ba7f163c4a11628f55a4df523b3ef",
            "0x0000000000000000000000003225737a9bbb6473cb4a45b7244aca2befdb276a",
            "0x0000000000000000000000000000000000000000000000000000000000000000"
          ],
          "data": "0x000000000000000000000000000000000000000000000089378f82568090c000",
          "blockHash": "0x7481da2a2a0c92c35f3068c7ba72c6039f9626f8b7b0fe400fa5ed09366c13a0",
          "blockNumber": "0x17fe22d",
          "blockTimestamp": "0x6a11a76f",
          "transactionHash": "0x93968a13b229ecb230dd439e579b407e0eb0d080f4fc1a56ad2b64308939b55e",
          "transactionIndex": "0xc9",
          "logIndex": "0x189",
          "removed": false
        },
        {
          "address": "0x9759a6ac90977b93b58547b4a71c78317f391a28",
          "topics": [
            "0x3b4da69f00000000000000000000000000000000000000000000000000000000",
            "0x0000000000000000000000003225737a9bbb6473cb4a45b7244aca2befdb276a",
            "0x0000000000000000000000003225737a9bbb6473cb4a45b7244aca2befdb276a",
            "0x000000000000000000000000000000000000000000000089378f82568090c000"
          ],
          "data": "0x000000000000000000000000000000000000000000000000000000000000002000000000000000000000000000000000000000000000000000000000000000e03b4da69f0000000000000000000000003225737a9bbb6473cb4a45b7244aca2befdb276a000000000000000000000000000000000000000000000089378f82568090c000000000000000000000000000000000000000000000000000000000000000000000000000000000000000000000000000000000000000000000000000000000000000000000000000000000000000000000000000000000000000000000000000000000000000000000000000000000000000000000000000000000000000000000000000000000000000000000000000000000000000000000000000",
          "blockHash": "0x7481da2a2a0c92c35f3068c7ba72c6039f9626f8b7b0fe400fa5ed09366c13a0",
          "blockNumber": "0x17fe22d",
          "blockTimestamp": "0x6a11a76f",
          "transactionHash": "0x93968a13b229ecb230dd439e579b407e0eb0d080f4fc1a56ad2b64308939b55e",
          "transactionIndex": "0xc9",
          "logIndex": "0x18a",
          "removed": false
        },
        {
          "address": "0x35d1b3f3d7966a1dfe207aa4514c12a259a0492b",
          "topics": [
            "0xbb35783b00000000000000000000000000000000000000000000000000000000",
            "0x0000000000000000000000003225737a9bbb6473cb4a45b7244aca2befdb276a",
            "0x0000000000000000000000003c0f895007ca717aa01c8693e59df1e8c3777feb",
            "0x000000000000000000000001bb5f451485c36df725b73788e6702e0000000000"
          ],
          "data": "0x000000000000000000000000000000000000000000000000000000000000002000000000000000000000000000000000000000000000000000000000000000e0bb35783b0000000000000000000000003225737a9bbb6473cb4a45b7244aca2befdb276a0000000000000000000000003c0f895007ca717aa01c8693e59df1e8c3777feb000000000000000000000001bb5f451485c36df725b73788e6702e000000000000000000000000000000000000000000000000000000000000000000000000000000000000000000000000000000000000000000000000000000000000000000000000000000000000000000000000000000000000000000000000000000000000000000000000000000000000000000000000000000000000000000",
          "blockHash": "0x7481da2a2a0c92c35f3068c7ba72c6039f9626f8b7b0fe400fa5ed09366c13a0",
          "blockNumber": "0x17fe22d",
          "blockTimestamp": "0x6a11a76f",
          "transactionHash": "0x93968a13b229ecb230dd439e579b407e0eb0d080f4fc1a56ad2b64308939b55e",
          "transactionIndex": "0xc9",
          "logIndex": "0x18b",
          "removed": false
        },
        {
          "address": "0xdc035d45d973e3ec169d2276ddab16f1e407384f",
          "topics": [
            "0xddf252ad1be2c89b69c2b068fc378daa952ba7f163c4a11628f55a4df523b3ef",
            "0x0000000000000000000000000000000000000000000000000000000000000000",
            "0x000000000000000000000000da2f1b3cba732d779cff56f0cf9d3bc8aea6cd8d"
          ],
          "data": "0x000000000000000000000000000000000000000000000089378f82568090c000",
          "blockHash": "0x7481da2a2a0c92c35f3068c7ba72c6039f9626f8b7b0fe400fa5ed09366c13a0",
          "blockNumber": "0x17fe22d",
          "blockTimestamp": "0x6a11a76f",
          "transactionHash": "0x93968a13b229ecb230dd439e579b407e0eb0d080f4fc1a56ad2b64308939b55e",
          "transactionIndex": "0xc9",
          "logIndex": "0x18c",
          "removed": false
        },
        {
          "address": "0x3c0f895007ca717aa01c8693e59df1e8c3777feb",
          "topics": [
            "0xbc2a67d422c268da6fe45f3e7d194e1d98906d221f1cfad62a5c80f2cd209f4c",
            "0x0000000000000000000000003225737a9bbb6473cb4a45b7244aca2befdb276a",
            "0x000000000000000000000000da2f1b3cba732d779cff56f0cf9d3bc8aea6cd8d"
          ],
          "data": "0x000000000000000000000000000000000000000000000089378f82568090c000",
          "blockHash": "0x7481da2a2a0c92c35f3068c7ba72c6039f9626f8b7b0fe400fa5ed09366c13a0",
          "blockNumber": "0x17fe22d",
          "blockTimestamp": "0x6a11a76f",
          "transactionHash": "0x93968a13b229ecb230dd439e579b407e0eb0d080f4fc1a56ad2b64308939b55e",
          "transactionIndex": "0xc9",
          "logIndex": "0x18d",
          "removed": false
        },
        {
          "address": "0x3225737a9bbb6473cb4a45b7244aca2befdb276a",
          "topics": [
            "0x23889db6b244d239344deac88ec7781d810b3873fe323939d1ce0e8ac9564235",
            "0x000000000000000000000000da2f1b3cba732d779cff56f0cf9d3bc8aea6cd8d",
            "0x000000000000000000000000da2f1b3cba732d779cff56f0cf9d3bc8aea6cd8d"
          ],
          "data": "0x000000000000000000000000000000000000000000000089378f82568090c000",
          "blockHash": "0x7481da2a2a0c92c35f3068c7ba72c6039f9626f8b7b0fe400fa5ed09366c13a0",
          "blockNumber": "0x17fe22d",
          "blockTimestamp": "0x6a11a76f",
          "transactionHash": "0x93968a13b229ecb230dd439e579b407e0eb0d080f4fc1a56ad2b64308939b55e",
          "transactionIndex": "0xc9",
          "logIndex": "0x18e",
          "removed": false
        },
        {
          "address": "0x35d1b3f3d7966a1dfe207aa4514c12a259a0492b",
          "topics": [
            "0xf24e23eb00000000000000000000000000000000000000000000000000000000",
            "0x000000000000000000000000a950524441892a31ebddf91d3ceefa04bf454466",
            "0x000000000000000000000000a3931d71877c0e7a3148cb7eb4463524fec27fbd",
            "0x000000000000000000000000a335c4294d56f0dcdea3727748ae6accf0000000"
          ],
          "data": "0x000000000000000000000000000000000000000000000000000000000000002000000000000000000000000000000000000000000000000000000000000000e0f24e23eb000000000000000000000000a950524441892a31ebddf91d3ceefa04bf454466000000000000000000000000a3931d71877c0e7a3148cb7eb4463524fec27fbd000000000000000000000000a335c4294d56f0dcdea3727748ae6accf000000000000000000000000000000000000000000000000000000000000000000000000000000000000000000000000000000000000000000000000000000000000000000000000000000000000000000000000000000000000000000000000000000000000000000000000000000000000000000000000000000000000000",
          "blockHash": "0x7481da2a2a0c92c35f3068c7ba72c6039f9626f8b7b0fe400fa5ed09366c13a0",
          "blockNumber": "0x17fe22d",
          "blockTimestamp": "0x6a11a76f",
          "transactionHash": "0x93968a13b229ecb230dd439e579b407e0eb0d080f4fc1a56ad2b64308939b55e",
          "transactionIndex": "0xc9",
          "logIndex": "0x18f",
          "removed": false
        },
        {
          "address": "0x35d1b3f3d7966a1dfe207aa4514c12a259a0492b",
          "topics": [
            "0xbb35783b00000000000000000000000000000000000000000000000000000000",
            "0x000000000000000000000000a3931d71877c0e7a3148cb7eb4463524fec27fbd",
            "0x0000000000000000000000003c0f895007ca717aa01c8693e59df1e8c3777feb",
            "0x000000000000000000000000a335c4294d56f0dcdea3727748ae6accf0000000"
          ],
          "data": "0x000000000000000000000000000000000000000000000000000000000000002000000000000000000000000000000000000000000000000000000000000000e0bb35783b000000000000000000000000a3931d71877c0e7a3148cb7eb4463524fec27fbd0000000000000000000000003c0f895007ca717aa01c8693e59df1e8c3777feb000000000000000000000000a335c4294d56f0dcdea3727748ae6accf000000000000000000000000000000000000000000000000000000000000000000000000000000000000000000000000000000000000000000000000000000000000000000000000000000000000000000000000000000000000000000000000000000000000000000000000000000000000000000000000000000000000000",
          "blockHash": "0x7481da2a2a0c92c35f3068c7ba72c6039f9626f8b7b0fe400fa5ed09366c13a0",
          "blockNumber": "0x17fe22d",
          "blockTimestamp": "0x6a11a76f",
          "transactionHash": "0x93968a13b229ecb230dd439e579b407e0eb0d080f4fc1a56ad2b64308939b55e",
          "transactionIndex": "0xc9",
          "logIndex": "0x190",
          "removed": false
        },
        {
          "address": "0xdc035d45d973e3ec169d2276ddab16f1e407384f",
          "topics": [
            "0xddf252ad1be2c89b69c2b068fc378daa952ba7f163c4a11628f55a4df523b3ef",
            "0x0000000000000000000000000000000000000000000000000000000000000000",
            "0x000000000000000000000000a3931d71877c0e7a3148cb7eb4463524fec27fbd"
          ],
          "data": "0x00000000000000000000000000000000000000000000003282d49127041cb0b6",
          "blockHash": "0x7481da2a2a0c92c35f3068c7ba72c6039f9626f8b7b0fe400fa5ed09366c13a0",
          "blockNumber": "0x17fe22d",
          "blockTimestamp": "0x6a11a76f",
          "transactionHash": "0x93968a13b229ecb230dd439e579b407e0eb0d080f4fc1a56ad2b64308939b55e",
          "transactionIndex": "0xc9",
          "logIndex": "0x191",
          "removed": false
        },
        {
          "address": "0x3c0f895007ca717aa01c8693e59df1e8c3777feb",
          "topics": [
            "0xbc2a67d422c268da6fe45f3e7d194e1d98906d221f1cfad62a5c80f2cd209f4c",
            "0x000000000000000000000000a3931d71877c0e7a3148cb7eb4463524fec27fbd",
            "0x000000000000000000000000a3931d71877c0e7a3148cb7eb4463524fec27fbd"
          ],
          "data": "0x00000000000000000000000000000000000000000000003282d49127041cb0b6",
          "blockHash": "0x7481da2a2a0c92c35f3068c7ba72c6039f9626f8b7b0fe400fa5ed09366c13a0",
          "blockNumber": "0x17fe22d",
          "blockTimestamp": "0x6a11a76f",
          "transactionHash": "0x93968a13b229ecb230dd439e579b407e0eb0d080f4fc1a56ad2b64308939b55e",
          "transactionIndex": "0xc9",
          "logIndex": "0x192",
          "removed": false
        },
        {
          "address": "0xa3931d71877c0e7a3148cb7eb4463524fec27fbd",
          "topics": [
            "0xad1e8a53178522eb68a9d94d862bf30c841f709d2115f743eb6b34528751c79f"
          ],
          "data": "0x0000000000000000000000000000000000000000038bc37a667a5e05c8988b5700000000000000000000000000000000000000000000003282d49127041cb0b6",
          "blockHash": "0x7481da2a2a0c92c35f3068c7ba72c6039f9626f8b7b0fe400fa5ed09366c13a0",
          "blockNumber": "0x17fe22d",
          "blockTimestamp": "0x6a11a76f",
          "transactionHash": "0x93968a13b229ecb230dd439e579b407e0eb0d080f4fc1a56ad2b64308939b55e",
          "transactionIndex": "0xc9",
          "logIndex": "0x193",
          "removed": false
        },
        {
          "address": "0xdc035d45d973e3ec169d2276ddab16f1e407384f",
          "topics": [
            "0xddf252ad1be2c89b69c2b068fc378daa952ba7f163c4a11628f55a4df523b3ef",
            "0x000000000000000000000000da2f1b3cba732d779cff56f0cf9d3bc8aea6cd8d",
            "0x000000000000000000000000a3931d71877c0e7a3148cb7eb4463524fec27fbd"
          ],
          "data": "0x000000000000000000000000000000000000000000000089378f82568090c000",
          "blockHash": "0x7481da2a2a0c92c35f3068c7ba72c6039f9626f8b7b0fe400fa5ed09366c13a0",
          "blockNumber": "0x17fe22d",
          "blockTimestamp": "0x6a11a76f",
          "transactionHash": "0x93968a13b229ecb230dd439e579b407e0eb0d080f4fc1a56ad2b64308939b55e",
          "transactionIndex": "0xc9",
          "logIndex": "0x194",
          "removed": false
        },
        {
          "address": "0xa3931d71877c0e7a3148cb7eb4463524fec27fbd",
          "topics": [
            "0xdcbc1c05240f31ff3ad067ef1ee35ce4997762752e3a095284754544f4c709d7",
            "0x000000000000000000000000da2f1b3cba732d779cff56f0cf9d3bc8aea6cd8d",
            "0x000000000000000000000000da2f1b3cba732d779cff56f0cf9d3bc8aea6cd8d"
          ],
          "data": "0x000000000000000000000000000000000000000000000089378f82568090c00000000000000000000000000000000000000000000000007d09418d2914705df9",
          "blockHash": "0x7481da2a2a0c92c35f3068c7ba72c6039f9626f8b7b0fe400fa5ed09366c13a0",
          "blockNumber": "0x17fe22d",
          "blockTimestamp": "0x6a11a76f",
          "transactionHash": "0x93968a13b229ecb230dd439e579b407e0eb0d080f4fc1a56ad2b64308939b55e",
          "transactionIndex": "0xc9",
          "logIndex": "0x195",
          "removed": false
        },
        {
          "address": "0xa3931d71877c0e7a3148cb7eb4463524fec27fbd",
          "topics": [
            "0xddf252ad1be2c89b69c2b068fc378daa952ba7f163c4a11628f55a4df523b3ef",
            "0x0000000000000000000000000000000000000000000000000000000000000000",
            "0x000000000000000000000000da2f1b3cba732d779cff56f0cf9d3bc8aea6cd8d"
          ],
          "data": "0x00000000000000000000000000000000000000000000007d09418d2914705df9",
          "blockHash": "0x7481da2a2a0c92c35f3068c7ba72c6039f9626f8b7b0fe400fa5ed09366c13a0",
          "blockNumber": "0x17fe22d",
          "blockTimestamp": "0x6a11a76f",
          "transactionHash": "0x93968a13b229ecb230dd439e579b407e0eb0d080f4fc1a56ad2b64308939b55e",
          "transactionIndex": "0xc9",
          "logIndex": "0x196",
          "removed": false
        },
        {
          "address": "0xa3931d71877c0e7a3148cb7eb4463524fec27fbd",
          "topics": [
            "0xb30a03a0e2a407f18ae0e83491331dc069d1521e292feffb071e61c8f7f40636",
            "0x00000000000000000000000000000000000000000000000000000000000000e0",
            "0x000000000000000000000000da2f1b3cba732d779cff56f0cf9d3bc8aea6cd8d"
          ],
          "data": "0x000000000000000000000000000000000000000000000089378f82568090c00000000000000000000000000000000000000000000000007d09418d2914705df9",
          "blockHash": "0x7481da2a2a0c92c35f3068c7ba72c6039f9626f8b7b0fe400fa5ed09366c13a0",
          "blockNumber": "0x17fe22d",
          "blockTimestamp": "0x6a11a76f",
          "transactionHash": "0x93968a13b229ecb230dd439e579b407e0eb0d080f4fc1a56ad2b64308939b55e",
          "transactionIndex": "0xc9",
          "logIndex": "0x197",
          "removed": false
        },
        {
          "address": "0xda2f1b3cba732d779cff56f0cf9d3bc8aea6cd8d",
          "topics": [
            "0xddf252ad1be2c89b69c2b068fc378daa952ba7f163c4a11628f55a4df523b3ef",
            "0x0000000000000000000000000000000000000000000000000000000000000000",
            "0x000000000000000000000000696d02db93291651ed510704c9b286841d506987"
          ],
          "data": "0x0000000000000000000000000000000000000000000000000000000096db06d6",
          "blockHash": "0x7481da2a2a0c92c35f3068c7ba72c6039f9626f8b7b0fe400fa5ed09366c13a0",
          "blockNumber": "0x17fe22d",
          "blockTimestamp": "0x6a11a76f",
          "transactionHash": "0x93968a13b229ecb230dd439e579b407e0eb0d080f4fc1a56ad2b64308939b55e",
          "transactionIndex": "0xc9",
          "logIndex": "0x198",
          "removed": false
        },
        {
          "address": "0xda2f1b3cba732d779cff56f0cf9d3bc8aea6cd8d",
          "topics": [
            "0xdcbc1c05240f31ff3ad067ef1ee35ce4997762752e3a095284754544f4c709d7",
            "0x000000000000000000000000696d02db93291651ed510704c9b286841d506987",
            "0x000000000000000000000000696d02db93291651ed510704c9b286841d506987"
          ],
          "data": "0x0000000000000000000000000000000000000000000000000000000096df294c0000000000000000000000000000000000000000000000000000000096db06d6",
          "blockHash": "0x7481da2a2a0c92c35f3068c7ba72c6039f9626f8b7b0fe400fa5ed09366c13a0",
          "blockNumber": "0x17fe22d",
          "blockTimestamp": "0x6a11a76f",
          "transactionHash": "0x93968a13b229ecb230dd439e579b407e0eb0d080f4fc1a56ad2b64308939b55e",
          "transactionIndex": "0xc9",
          "logIndex": "0x199",
          "removed": false
        },
        {
          "address": "0xa0b86991c6218b36c1d19d4a2e9eb0ce3606eb48",
          "topics": [
            "0x8c5be1e5ebec7d5bd14f71427d1e84f3dd0314c0f7b2291e5b200ac8c7c3b925",
            "0x000000000000000000000000696d02db93291651ed510704c9b286841d506987",
            "0x000000000000000000000000da2f1b3cba732d779cff56f0cf9d3bc8aea6cd8d"
          ],
          "data": "0x0000000000000000000000000000000000000000000000000000000000000000",
          "blockHash": "0x7481da2a2a0c92c35f3068c7ba72c6039f9626f8b7b0fe400fa5ed09366c13a0",
          "blockNumber": "0x17fe22d",
          "blockTimestamp": "0x6a11a76f",
          "transactionHash": "0x93968a13b229ecb230dd439e579b407e0eb0d080f4fc1a56ad2b64308939b55e",
          "transactionIndex": "0xc9",
          "logIndex": "0x19a",
          "removed": false
        },
        {
          "address": "0x696d02db93291651ed510704c9b286841d506987",
          "topics": [
            "0x5e2b8821ad6e0e26207e0cb4d242d07eeb1cbb1cfd853e645bdcd27cc5484f95",
            "0x000000000000000000000000da2f1b3cba732d779cff56f0cf9d3bc8aea6cd8d"
          ],
          "data": "0x00000000000000000000000000000000000000000000000000000106da31ee9800000000000000000000000000000000000000000000000000000107711117e4",
          "blockHash": "0x7481da2a2a0c92c35f3068c7ba72c6039f9626f8b7b0fe400fa5ed09366c13a0",
          "blockNumber": "0x17fe22d",
          "blockTimestamp": "0x6a11a76f",
          "transactionHash": "0x93968a13b229ecb230dd439e579b407e0eb0d080f4fc1a56ad2b64308939b55e",
          "transactionIndex": "0xc9",
          "logIndex": "0x19b",
          "removed": false
        },
        {
          "address": "0x4fe93ebc4ce6ae4f81601cc7ce7139023919e003",
          "topics": [
            "0x049d8dd84b6a6cc45d5f68a74b23450bd3e54d84fd405d91b8b286c78d51d249"
          ],
          "data": "0x5425f86bfb267dca64186287ee4312f3e0ee923ec4afb3a8c933f04c9e4136aac3c7ff50201d32716c9056d9e6f9be07d40f4368570e888891c2ba54e207646f",
          "blockHash": "0x7481da2a2a0c92c35f3068c7ba72c6039f9626f8b7b0fe400fa5ed09366c13a0",
          "blockNumber": "0x17fe22d",
          "blockTimestamp": "0x6a11a76f",
          "transactionHash": "0x93968a13b229ecb230dd439e579b407e0eb0d080f4fc1a56ad2b64308939b55e",
          "transactionIndex": "0xc9",
          "logIndex": "0x19c",
          "removed": false
        },
        {
          "address": "0xa0b86991c6218b36c1d19d4a2e9eb0ce3606eb48",
          "topics": [
            "0x8c5be1e5ebec7d5bd14f71427d1e84f3dd0314c0f7b2291e5b200ac8c7c3b925",
            "0x00000000000000000000000091eb419d77962bf89a0f1ca8b1fa525f443d5421",
            "0x000000000000000000000000f75584ef6673ad213a685a1b58cc0330b8ea22cf"
          ],
          "data": "0x0000000000000000000000000000000000000000000000000000000000000000",
          "blockHash": "0x7481da2a2a0c92c35f3068c7ba72c6039f9626f8b7b0fe400fa5ed09366c13a0",
          "blockNumber": "0x17fe22d",
          "blockTimestamp": "0x6a11a76f",
          "transactionHash": "0x93968a13b229ecb230dd439e579b407e0eb0d080f4fc1a56ad2b64308939b55e",
          "transactionIndex": "0xc9",
          "logIndex": "0x19d",
          "removed": false
        },
        {
          "address": "0x696d02db93291651ed510704c9b286841d506987",
          "topics": [
            "0xddf252ad1be2c89b69c2b068fc378daa952ba7f163c4a11628f55a4df523b3ef",
            "0x00000000000000000000000091eb419d77962bf89a0f1ca8b1fa525f443d5421",
            "0x000000000000000000000000bf3e996821d43ac3b6069ae74efa101ffc6137e0"
          ],
          "data": "0x000000000000000000000000000000000000000000000000000000009502ef60",
          "blockHash": "0x7481da2a2a0c92c35f3068c7ba72c6039f9626f8b7b0fe400fa5ed09366c13a0",
          "blockNumber": "0x17fe22d",
          "blockTimestamp": "0x6a11a76f",
          "transactionHash": "0x93968a13b229ecb230dd439e579b407e0eb0d080f4fc1a56ad2b64308939b55e",
          "transactionIndex": "0xc9",
          "logIndex": "0x19e",
          "removed": false
        },
        {
          "address": "0x696d02db93291651ed510704c9b286841d506987",
          "topics": [
            "0x8c5be1e5ebec7d5bd14f71427d1e84f3dd0314c0f7b2291e5b200ac8c7c3b925",
            "0x000000000000000000000000bf3e996821d43ac3b6069ae74efa101ffc6137e0",
            "0x000000000000000000000000d82db9893751e9c90e2a6c3be31183048e8e2e49"
          ],
          "data": "0x000000000000000000000000000000000000000000000000000000009502ef60",
          "blockHash": "0x7481da2a2a0c92c35f3068c7ba72c6039f9626f8b7b0fe400fa5ed09366c13a0",
          "blockNumber": "0x17fe22d",
          "blockTimestamp": "0x6a11a76f",
          "transactionHash": "0x93968a13b229ecb230dd439e579b407e0eb0d080f4fc1a56ad2b64308939b55e",
          "transactionIndex": "0xc9",
          "logIndex": "0x19f",
          "removed": false
        },
        {
          "address": "0x696d02db93291651ed510704c9b286841d506987",
          "topics": [
            "0x8c5be1e5ebec7d5bd14f71427d1e84f3dd0314c0f7b2291e5b200ac8c7c3b925",
            "0x000000000000000000000000bf3e996821d43ac3b6069ae74efa101ffc6137e0",
            "0x000000000000000000000000d82db9893751e9c90e2a6c3be31183048e8e2e49"
          ],
          "data": "0x0000000000000000000000000000000000000000000000000000000000000000",
          "blockHash": "0x7481da2a2a0c92c35f3068c7ba72c6039f9626f8b7b0fe400fa5ed09366c13a0",
          "blockNumber": "0x17fe22d",
          "blockTimestamp": "0x6a11a76f",
          "transactionHash": "0x93968a13b229ecb230dd439e579b407e0eb0d080f4fc1a56ad2b64308939b55e",
          "transactionIndex": "0xc9",
          "logIndex": "0x1a0",
          "removed": false
        },
        {
          "address": "0x696d02db93291651ed510704c9b286841d506987",
          "topics": [
            "0xddf252ad1be2c89b69c2b068fc378daa952ba7f163c4a11628f55a4df523b3ef",
            "0x000000000000000000000000bf3e996821d43ac3b6069ae74efa101ffc6137e0",
            "0x000000000000000000000000d82db9893751e9c90e2a6c3be31183048e8e2e49"
          ],
          "data": "0x000000000000000000000000000000000000000000000000000000009502ef60",
          "blockHash": "0x7481da2a2a0c92c35f3068c7ba72c6039f9626f8b7b0fe400fa5ed09366c13a0",
          "blockNumber": "0x17fe22d",
          "blockTimestamp": "0x6a11a76f",
          "transactionHash": "0x93968a13b229ecb230dd439e579b407e0eb0d080f4fc1a56ad2b64308939b55e",
          "transactionIndex": "0xc9",
          "logIndex": "0x1a1",
          "removed": false
        },
        {
          "address": "0xd82db9893751e9c90e2a6c3be31183048e8e2e49",
          "topics": [
            "0xda18d0b037712b628d658e8fb6f6701086c449aab7cefd33b9f7f95e3a3082b8",
            "0x7b40105f590f776056974c301c2b203324db5f16c37c84eb1588270ac7eb07cb",
            "0x0000000000000000000000005555e978e0732c198bc801477dfbccce66252ff5"
          ],
          "data": "0x000000000000000000000000000000000000000000000000000000009502ef60",
          "blockHash": "0x7481da2a2a0c92c35f3068c7ba72c6039f9626f8b7b0fe400fa5ed09366c13a0",
          "blockNumber": "0x17fe22d",
          "blockTimestamp": "0x6a11a76f",
          "transactionHash": "0x93968a13b229ecb230dd439e579b407e0eb0d080f4fc1a56ad2b64308939b55e",
          "transactionIndex": "0xc9",
          "logIndex": "0x1a2",
          "removed": false
        },
        {
          "address": "0x696d02db93291651ed510704c9b286841d506987",
          "topics": [
            "0x8c5be1e5ebec7d5bd14f71427d1e84f3dd0314c0f7b2291e5b200ac8c7c3b925",
            "0x000000000000000000000000bf3e996821d43ac3b6069ae74efa101ffc6137e0",
            "0x000000000000000000000000d82db9893751e9c90e2a6c3be31183048e8e2e49"
          ],
          "data": "0x0000000000000000000000000000000000000000000000000000000000000000",
          "blockHash": "0x7481da2a2a0c92c35f3068c7ba72c6039f9626f8b7b0fe400fa5ed09366c13a0",
          "blockNumber": "0x17fe22d",
          "blockTimestamp": "0x6a11a76f",
          "transactionHash": "0x93968a13b229ecb230dd439e579b407e0eb0d080f4fc1a56ad2b64308939b55e",
          "transactionIndex": "0xc9",
          "logIndex": "0x1a3",
          "removed": false
        },
        {
          "address": "0xa0b86991c6218b36c1d19d4a2e9eb0ce3606eb48",
          "topics": [
            "0xddf252ad1be2c89b69c2b068fc378daa952ba7f163c4a11628f55a4df523b3ef",
            "0x00000000000000000000000033c45216e121e31f1a8cd24c7e9d0d0c9e29b732",
            "0x000000000000000000000000bf3e996821d43ac3b6069ae74efa101ffc6137e0"
          ],
          "data": "0x0000000000000000000000000000000000000000000000000000000096e30626",
          "blockHash": "0x7481da2a2a0c92c35f3068c7ba72c6039f9626f8b7b0fe400fa5ed09366c13a0",
          "blockNumber": "0x17fe22d",
          "blockTimestamp": "0x6a11a76f",
          "transactionHash": "0x93968a13b229ecb230dd439e579b407e0eb0d080f4fc1a56ad2b64308939b55e",
          "transactionIndex": "0xc9",
          "logIndex": "0x1a4",
          "removed": false
        },
        {
          "address": "0xd82db9893751e9c90e2a6c3be31183048e8e2e49",
          "topics": [
            "0xbf608caf5cc20aaeea74ecfce286b511362b0ecbaa0e56ded00f76f7e2e39c44",
            "0x7b40105f590f776056974c301c2b203324db5f16c37c84eb1588270ac7eb07cb",
            "0x0000000000000000000000005555e978e0732c198bc801477dfbccce66252ff5"
          ],
          "data": "0x000000000000000000000000000000000000000000000000000000010fa970d500000000000000000000000000000000000000000000000000000000000943ac",
          "blockHash": "0x7481da2a2a0c92c35f3068c7ba72c6039f9626f8b7b0fe400fa5ed09366c13a0",
          "blockNumber": "0x17fe22d",
          "blockTimestamp": "0x6a11a76f",
          "transactionHash": "0x93968a13b229ecb230dd439e579b407e0eb0d080f4fc1a56ad2b64308939b55e",
          "transactionIndex": "0xc9",
          "logIndex": "0x1a5",
          "removed": false
        },
        {
          "address": "0xa0b86991c6218b36c1d19d4a2e9eb0ce3606eb48",
          "topics": [
            "0x8c5be1e5ebec7d5bd14f71427d1e84f3dd0314c0f7b2291e5b200ac8c7c3b925",
            "0x000000000000000000000000bf3e996821d43ac3b6069ae74efa101ffc6137e0",
            "0x000000000000000000000000bbbbbbbbbb9cc5e90e3b3af64bdaf62c37eeffcb"
          ],
          "data": "0x0000000000000000000000000000000000000000000000000000000096df294c",
          "blockHash": "0x7481da2a2a0c92c35f3068c7ba72c6039f9626f8b7b0fe400fa5ed09366c13a0",
          "blockNumber": "0x17fe22d",
          "blockTimestamp": "0x6a11a76f",
          "transactionHash": "0x93968a13b229ecb230dd439e579b407e0eb0d080f4fc1a56ad2b64308939b55e",
          "transactionIndex": "0xc9",
          "logIndex": "0x1a6",
          "removed": false
        },
        {
          "address": "0xa0b86991c6218b36c1d19d4a2e9eb0ce3606eb48",
          "topics": [
            "0xddf252ad1be2c89b69c2b068fc378daa952ba7f163c4a11628f55a4df523b3ef",
            "0x000000000000000000000000bf3e996821d43ac3b6069ae74efa101ffc6137e0",
            "0x000000000000000000000000bbbbbbbbbb9cc5e90e3b3af64bdaf62c37eeffcb"
          ],
          "data": "0x0000000000000000000000000000000000000000000000000000000096df294c",
          "blockHash": "0x7481da2a2a0c92c35f3068c7ba72c6039f9626f8b7b0fe400fa5ed09366c13a0",
          "blockNumber": "0x17fe22d",
          "blockTimestamp": "0x6a11a76f",
          "transactionHash": "0x93968a13b229ecb230dd439e579b407e0eb0d080f4fc1a56ad2b64308939b55e",
          "transactionIndex": "0xc9",
          "logIndex": "0x1a7",
          "removed": false
        },
        {
          "address": "0xa0b86991c6218b36c1d19d4a2e9eb0ce3606eb48",
          "topics": [
            "0xddf252ad1be2c89b69c2b068fc378daa952ba7f163c4a11628f55a4df523b3ef",
            "0x000000000000000000000000bf3e996821d43ac3b6069ae74efa101ffc6137e0",
            "0x0000000000000000000000005555e978e0732c198bc801477dfbccce66252ff5"
          ],
          "data": "0x000000000000000000000000000000000000000000000000000000000003dcda",
          "blockHash": "0x7481da2a2a0c92c35f3068c7ba72c6039f9626f8b7b0fe400fa5ed09366c13a0",
          "blockNumber": "0x17fe22d",
          "blockTimestamp": "0x6a11a76f",
          "transactionHash": "0x93968a13b229ecb230dd439e579b407e0eb0d080f4fc1a56ad2b64308939b55e",
          "transactionIndex": "0xc9",
          "logIndex": "0x1a8",
          "removed": false
        }
      ],
      "logsBloom": "0x00000040000000000000002000800080001000100000002000000100400008000004120440100000000003800000030160190040000000400000040045200000400000500010000008900028000000010002004402028000004078200080000250000040120210000000021000000a0800000000000400000000801240001800000040020000000800040000101004420000c000198410080010000100000000020008010600210000000400000000000800000480010000084080001040400220002002001004c00040040002000020000902290008000000200000202020400010080001000000802001280000000004010000800010008002000000008000",
      "transactionHash": "0x93968a13b229ecb230dd439e579b407e0eb0d080f4fc1a56ad2b64308939b55e",
      "transactionIndex": "0xc9",
      "blockHash": "0x7481da2a2a0c92c35f3068c7ba72c6039f9626f8b7b0fe400fa5ed09366c13a0",
      "blockNumber": "0x17fe22d",
      "gasUsed": "0xeb038",
      "effectiveGasPrice": "0x5c2b9cf",
      "blobGasUsed": "0x0",
      "from": "0x5555e978e0732c198bc801477dfbccce66252ff5",
      "to": "0xbf3e996821d43ac3b6069ae74efa101ffc6137e0",
      "contractAddress": null
    }
  ],
  "libraries": [],
  "pending": [],
  "returns": {},
  "timestamp": 1779541875137,
  "chain": 1,
  "commit": "7a94215"
}