{
  "transactions": [
    {
      "hash": "0x521abee5381535f5b2cd77bb44952c4631e384359ea4df1a4aa667503e509463",
      "transactionType": "CALL",
      "contractName": null,
      "contractAddress": "0xbf3e996821d43ac3b6069ae74efa101ffc6137e0",
      "function": "close_leveraged_trove((address,address,uint256,uint256,(address,bytes),(address,bytes)))",
      "arguments": [
        "(0xd82DB9893751E9C90E2a6C3bE31183048E8E2e49, 0xA0b86991c6218b36c1d19D4a2e9Eb0cE3606eB48, 76057750948051624527605852786732355105175779745148975017889238692073227212750, 4557844897, (0xF75584eF6673aD213a685a1B58Cc0330B8eA22Cf, 0xb94c3609000000000000000000000000000000000000000000000000000000000000004000000000000000000000000000000000000000000000000000000000000000e0000000000000000000000000000000000000000000000000000000000000000100000000000000000000000000000000000000000000000000000000000000400000000000000000000000000000000000000000000000000000000000000040000000000000000000000000696d02db93291651ed510704c9b286841d506987000000000000000000000000000000000000000000000000000000012a05e87b00000000000000000000000000000000000000000000000000000000000002a495352c9f5425f86bfb267dca64186287ee4312f3e0ee923ec4afb3a8c933f04c9e4136aa695ad490ec303287d522a9b072dafa87256f7cc9f91e863e422d6f4da0316564000000000000000000000000000000000000000000000000000000000000008000000000000000000000000000000000000000000000000000000000000001000000000000000000000000000000000000000000000000000000000000000003ba08765201000102ffffff02696d02db93291651ed510704c9b286841d5069876e7a43a3010203ffffffff027e7d64d987cab6eed08a191c4c2459daf2f8ed0b241c59120102ffffffffffff7e7d64d987cab6eed08a191c4c2459daf2f8ed0b0000000000000000000000000000000000000000000000000000000000000004000000000000000000000000000000000000000000000000000000000000008000000000000000000000000000000000000000000000000000000000000000c0000000000000000000000000000000000000000000000000000000000000010000000000000000000000000000000000000000000000000000000000000001400000000000000000000000000000000000000000000000000000000000000020000000000000000000000000000000000000000000000000000000012a05e87b000000000000000000000000000000000000000000000000000000000000002000000000000000000000000091eb419d77962bf89a0f1ca8b1fa525f443d542100000000000000000000000000000000000000000000000000000000000000200000000000000000000000004fe93ebc4ce6ae4f81601cc7ce7139023919e0030000000000000000000000000000000000000000000000000000000000000020000000000000000000000000000000000000000000000000000000012ab463f400000000000000000000000000000000000000000000000000000000), (0x0000000000000000000000000000000000000000, 0x))"
      ],
      "transaction": {
        "from": "0x5555e978e0732c198bc801477dfbccce66252ff5",
        "to": "0xbf3e996821d43ac3b6069ae74efa101ffc6137e0",
        "gas": "0x14a6e8",
        "value": "0x0",
        "input": "0xe5be3bea0000000000000000000000000000000000000000000000000000000000000020000000000000000000000000d82db9893751e9c90e2a6c3be31183048e8e2e49000000000000000000000000a0b86991c6218b36c1d19d4a2e9eb0ce3606eb48a82729583d59cb6e690973b34265f9749f68b94a68fcce3ca73cea01ad4cd7ce000000000000000000000000000000000000000000000000000000010fab31a100000000000000000000000000000000000000000000000000000000000000c00000000000000000000000000000000000000000000000000000000000000500000000000000000000000000f75584ef6673ad213a685a1b58cc0330b8ea22cf000000000000000000000000000000000000000000000000000000000000004000000000000000000000000000000000000000000000000000000000000003c4b94c3609000000000000000000000000000000000000000000000000000000000000004000000000000000000000000000000000000000000000000000000000000000e0000000000000000000000000000000000000000000000000000000000000000100000000000000000000000000000000000000000000000000000000000000400000000000000000000000000000000000000000000000000000000000000040000000000000000000000000696d02db93291651ed510704c9b286841d506987000000000000000000000000000000000000000000000000000000012a05e87b00000000000000000000000000000000000000000000000000000000000002a495352c9f5425f86bfb267dca64186287ee4312f3e0ee923ec4afb3a8c933f04c9e4136aa695ad490ec303287d522a9b072dafa87256f7cc9f91e863e422d6f4da0316564000000000000000000000000000000000000000000000000000000000000008000000000000000000000000000000000000000000000000000000000000001000000000000000000000000000000000000000000000000000000000000000003ba08765201000102ffffff02696d02db93291651ed510704c9b286841d5069876e7a43a3010203ffffffff027e7d64d987cab6eed08a191c4c2459daf2f8ed0b241c59120102ffffffffffff7e7d64d987cab6eed08a191c4c2459daf2f8ed0b0000000000000000000000000000000000000000000000000000000000000004000000000000000000000000000000000000000000000000000000000000008000000000000000000000000000000000000000000000000000000000000000c0000000000000000000000000000000000000000000000000000000000000010000000000000000000000000000000000000000000000000000000000000001400000000000000000000000000000000000000000000000000000000000000020000000000000000000000000000000000000000000000000000000012a05e87b000000000000000000000000000000000000000000000000000000000000002000000000000000000000000091eb419d77962bf89a0f1ca8b1fa525f443d542100000000000000000000000000000000000000000000000000000000000000200000000000000000000000004fe93ebc4ce6ae4f81601cc7ce7139023919e0030000000000000000000000000000000000000000000000000000000000000020000000000000000000000000000000000000000000000000000000012ab463f40000000000000000000000000000000000000000000000000000000000000000000000000000000000000000000000000000000000000000000000000000000000000000000000000000000000000000000000000000000000000000000000000000000000000000000000000000000000000000000000400000000000000000000000000000000000000000000000000000000000000000",
        "nonce": "0x90",
        "chainId": "0x1"
      },
      "additionalContracts": [],
      "isFixedGasLimit": false
    }
  ],
  "receipts": [
    {
      "type": "0x2",
      "status": "0x1",
      "cumulativeGasUsed": "0x3483d9",
      "logs": [
        {
          "address": "0xbbbbbbbbbb9cc5e90e3b3af64bdaf62c37eeffcb",
          "topics": [
            "0xc76f1b4fe4396ac07a9fa55a415d4ca430e72651d37d3401f3bed7cb13fc4f12",
            "0x000000000000000000000000bf3e996821d43ac3b6069ae74efa101ffc6137e0",
            "0x000000000000000000000000a0b86991c6218b36c1d19d4a2e9eb0ce3606eb48"
          ],
          "data": "0x000000000000000000000000000000000000000000000000000000010fab31a1",
          "blockHash": "0x8614dd12242716c4226338f79ba8367e4e73f6a06fac4595508701678c362614",
          "blockNumber": "0x17fd164",
          "blockTimestamp": "0x6a10dd7f",
          "transactionHash": "0x521abee5381535f5b2cd77bb44952c4631e384359ea4df1a4aa667503e509463",
          "transactionIndex": "0x16",
          "logIndex": "0x2a",
          "removed": false
        },
        {
          "address": "0xa0b86991c6218b36c1d19d4a2e9eb0ce3606eb48",
          "topics": [
            "0xddf252ad1be2c89b69c2b068fc378daa952ba7f163c4a11628f55a4df523b3ef",
            "0x000000000000000000000000bbbbbbbbbb9cc5e90e3b3af64bdaf62c37eeffcb",
            "0x000000000000000000000000bf3e996821d43ac3b6069ae74efa101ffc6137e0"
          ],
          "data": "0x000000000000000000000000000000000000000000000000000000010fab31a1",
          "blockHash": "0x8614dd12242716c4226338f79ba8367e4e73f6a06fac4595508701678c362614",
          "blockNumber": "0x17fd164",
          "blockTimestamp": "0x6a10dd7f",
          "transactionHash": "0x521abee5381535f5b2cd77bb44952c4631e384359ea4df1a4aa667503e509463",
          "transactionIndex": "0x16",
          "logIndex": "0x2b",
          "removed": false
        },
        {
          "address": "0xa0b86991c6218b36c1d19d4a2e9eb0ce3606eb48",
          "topics": [
            "0x8c5be1e5ebec7d5bd14f71427d1e84f3dd0314c0f7b2291e5b200ac8c7c3b925",
            "0x000000000000000000000000bf3e996821d43ac3b6069ae74efa101ffc6137e0",
            "0x000000000000000000000000d82db9893751e9c90e2a6c3be31183048e8e2e49"
          ],
          "data": "0x000000000000000000000000000000000000000000000000000000010fa43d6f",
          "blockHash": "0x8614dd12242716c4226338f79ba8367e4e73f6a06fac4595508701678c362614",
          "blockNumber": "0x17fd164",
          "blockTimestamp": "0x6a10dd7f",
          "transactionHash": "0x521abee5381535f5b2cd77bb44952c4631e384359ea4df1a4aa667503e509463",
          "transactionIndex": "0x16",
          "logIndex": "0x2c",
          "removed": false
        },
        {
          "address": "0xa0b86991c6218b36c1d19d4a2e9eb0ce3606eb48",
          "topics": [
            "0xddf252ad1be2c89b69c2b068fc378daa952ba7f163c4a11628f55a4df523b3ef",
            "0x000000000000000000000000bf3e996821d43ac3b6069ae74efa101ffc6137e0",
            "0x00000000000000000000000033c45216e121e31f1a8cd24c7e9d0d0c9e29b732"
          ],
          "data": "0x000000000000000000000000000000000000000000000000000000010fa43d6f",
          "blockHash": "0x8614dd12242716c4226338f79ba8367e4e73f6a06fac4595508701678c362614",
          "blockNumber": "0x17fd164",
          "blockTimestamp": "0x6a10dd7f",
          "transactionHash": "0x521abee5381535f5b2cd77bb44952c4631e384359ea4df1a4aa667503e509463",
          "transactionIndex": "0x16",
          "logIndex": "0x2d",
          "removed": false
        },
        {
          "address": "0x696d02db93291651ed510704c9b286841d506987",
          "topics": [
            "0xddf252ad1be2c89b69c2b068fc378daa952ba7f163c4a11628f55a4df523b3ef",
            "0x000000000000000000000000d82db9893751e9c90e2a6c3be31183048e8e2e49",
            "0x000000000000000000000000bf3e996821d43ac3b6069ae74efa101ffc6137e0"
          ],
          "data": "0x000000000000000000000000000000000000000000000000000000012a05e87b",
          "blockHash": "0x8614dd12242716c4226338f79ba8367e4e73f6a06fac4595508701678c362614",
          "blockNumber": "0x17fd164",
          "blockTimestamp": "0x6a10dd7f",
          "transactionHash": "0x521abee5381535f5b2cd77bb44952c4631e384359ea4df1a4aa667503e509463",
          "transactionIndex": "0x16",
          "logIndex": "0x2e",
          "removed": false
        },
        {
          "address": "0xd82db9893751e9c90e2a6c3be31183048e8e2e49",
          "topics": [
            "0x964b676865fdc5f2f6264c1031ea231c957ef38127566ceb9f336ce1458c96a9",
            "0xa82729583d59cb6e690973b34265f9749f68b94a68fcce3ca73cea01ad4cd7ce",
            "0x0000000000000000000000005555e978e0732c198bc801477dfbccce66252ff5"
          ],
          "data": "0x000000000000000000000000000000000000000000000000000000012a05e87b000000000000000000000000000000000000000000000000000000010fa43d6f",
          "blockHash": "0x8614dd12242716c4226338f79ba8367e4e73f6a06fac4595508701678c362614",
          "blockNumber": "0x17fd164",
          "blockTimestamp": "0x6a10dd7f",
          "transactionHash": "0x521abee5381535f5b2cd77bb44952c4631e384359ea4df1a4aa667503e509463",
          "transactionIndex": "0x16",
          "logIndex": "0x2f",
          "removed": false
        },
        {
          "address": "0xa0b86991c6218b36c1d19d4a2e9eb0ce3606eb48",
          "topics": [
            "0x8c5be1e5ebec7d5bd14f71427d1e84f3dd0314c0f7b2291e5b200ac8c7c3b925",
            "0x000000000000000000000000bf3e996821d43ac3b6069ae74efa101ffc6137e0",
            "0x000000000000000000000000d82db9893751e9c90e2a6c3be31183048e8e2e49"
          ],
          "data": "0x0000000000000000000000000000000000000000000000000000000000000000",
          "blockHash": "0x8614dd12242716c4226338f79ba8367e4e73f6a06fac4595508701678c362614",
          "blockNumber": "0x17fd164",
          "blockTimestamp": "0x6a10dd7f",
          "transactionHash": "0x521abee5381535f5b2cd77bb44952c4631e384359ea4df1a4aa667503e509463",
          "transactionIndex": "0x16",
          "logIndex": "0x30",
          "removed": false
        },
        {
          "address": "0x696d02db93291651ed510704c9b286841d506987",
          "topics": [
            "0xddf252ad1be2c89b69c2b068fc378daa952ba7f163c4a11628f55a4df523b3ef",
            "0x000000000000000000000000bf3e996821d43ac3b6069ae74efa101ffc6137e0",
            "0x00000000000000000000000091eb419d77962bf89a0f1ca8b1fa525f443d5421"
          ],
          "data": "0x000000000000000000000000000000000000000000000000000000012a05e87b",
          "blockHash": "0x8614dd12242716c4226338f79ba8367e4e73f6a06fac4595508701678c362614",
          "blockNumber": "0x17fd164",
          "blockTimestamp": "0x6a10dd7f",
          "transactionHash": "0x521abee5381535f5b2cd77bb44952c4631e384359ea4df1a4aa667503e509463",
          "transactionIndex": "0x16",
          "logIndex": "0x31",
          "removed": false
        },
        {
          "address": "0x696d02db93291651ed510704c9b286841d506987",
          "topics": [
            "0x8c5be1e5ebec7d5bd14f71427d1e84f3dd0314c0f7b2291e5b200ac8c7c3b925",
            "0x00000000000000000000000091eb419d77962bf89a0f1ca8b1fa525f443d5421",
            "0x000000000000000000000000f75584ef6673ad213a685a1b58cc0330b8ea22cf"
          ],
          "data": "0x000000000000000000000000000000000000000000000000000000012a05e87b",
          "blockHash": "0x8614dd12242716c4226338f79ba8367e4e73f6a06fac4595508701678c362614",
          "blockNumber": "0x17fd164",
          "blockTimestamp": "0x6a10dd7f",
          "transactionHash": "0x521abee5381535f5b2cd77bb44952c4631e384359ea4df1a4aa667503e509463",
          "transactionIndex": "0x16",
          "logIndex": "0x32",
          "removed": false
        },
        {
          "address": "0x696d02db93291651ed510704c9b286841d506987",
          "topics": [
            "0x8c5be1e5ebec7d5bd14f71427d1e84f3dd0314c0f7b2291e5b200ac8c7c3b925",
            "0x00000000000000000000000091eb419d77962bf89a0f1ca8b1fa525f443d5421",
            "0x000000000000000000000000f75584ef6673ad213a685a1b58cc0330b8ea22cf"
          ],
          "data": "0x0000000000000000000000000000000000000000000000000000000000000000",
          "blockHash": "0x8614dd12242716c4226338f79ba8367e4e73f6a06fac4595508701678c362614",
          "blockNumber": "0x17fd164",
          "blockTimestamp": "0x6a10dd7f",
          "transactionHash": "0x521abee5381535f5b2cd77bb44952c4631e384359ea4df1a4aa667503e509463",
          "transactionIndex": "0x16",
          "logIndex": "0x33",
          "removed": false
        },
        {
          "address": "0x696d02db93291651ed510704c9b286841d506987",
          "topics": [
            "0xddf252ad1be2c89b69c2b068fc378daa952ba7f163c4a11628f55a4df523b3ef",
            "0x00000000000000000000000091eb419d77962bf89a0f1ca8b1fa525f443d5421",
            "0x0000000000000000000000004fe93ebc4ce6ae4f81601cc7ce7139023919e003"
          ],
          "data": "0x000000000000000000000000000000000000000000000000000000012a05e87b",
          "blockHash": "0x8614dd12242716c4226338f79ba8367e4e73f6a06fac4595508701678c362614",
          "blockNumber": "0x17fd164",
          "blockTimestamp": "0x6a10dd7f",
          "transactionHash": "0x521abee5381535f5b2cd77bb44952c4631e384359ea4df1a4aa667503e509463",
          "transactionIndex": "0x16",
          "logIndex": "0x34",
          "removed": false
        },
        {
          "address": "0x35d1b3f3d7966a1dfe207aa4514c12a259a0492b",
          "topics": [
            "0xf24e23eb00000000000000000000000000000000000000000000000000000000",
            "0x000000000000000000000000a950524441892a31ebddf91d3ceefa04bf454466",
            "0x000000000000000000000000a3931d71877c0e7a3148cb7eb4463524fec27fbd",
            "0x0000000000000000000000015711f32de30a15a3c191326f3c14ca2a80000000"
          ],
          "data": "0x000000000000000000000000000000000000000000000000000000000000002000000000000000000000000000000000000000000000000000000000000000e0f24e23eb000000000000000000000000a950524441892a31ebddf91d3ceefa04bf454466000000000000000000000000a3931d71877c0e7a3148cb7eb4463524fec27fbd0000000000000000000000015711f32de30a15a3c191326f3c14ca2a8000000000000000000000000000000000000000000000000000000000000000000000000000000000000000000000000000000000000000000000000000000000000000000000000000000000000000000000000000000000000000000000000000000000000000000000000000000000000000000000000000000000000000",
          "blockHash": "0x8614dd12242716c4226338f79ba8367e4e73f6a06fac4595508701678c362614",
          "blockNumber": "0x17fd164",
          "blockTimestamp": "0x6a10dd7f",
          "transactionHash": "0x521abee5381535f5b2cd77bb44952c4631e384359ea4df1a4aa667503e509463",
          "transactionIndex": "0x16",
          "logIndex": "0x35",
          "removed": false
        },
        {
          "address": "0x35d1b3f3d7966a1dfe207aa4514c12a259a0492b",
          "topics": [
            "0xbb35783b00000000000000000000000000000000000000000000000000000000",
            "0x000000000000000000000000a3931d71877c0e7a3148cb7eb4463524fec27fbd",
            "0x0000000000000000000000003c0f895007ca717aa01c8693e59df1e8c3777feb",
            "0x0000000000000000000000015711f32de30a15a3c191326f3c14ca2a80000000"
          ],
          "data": "0x000000000000000000000000000000000000000000000000000000000000002000000000000000000000000000000000000000000000000000000000000000e0bb35783b000000000000000000000000a3931d71877c0e7a3148cb7eb4463524fec27fbd0000000000000000000000003c0f895007ca717aa01c8693e59df1e8c3777feb0000000000000000000000015711f32de30a15a3c191326f3c14ca2a8000000000000000000000000000000000000000000000000000000000000000000000000000000000000000000000000000000000000000000000000000000000000000000000000000000000000000000000000000000000000000000000000000000000000000000000000000000000000000000000000000000000000000",
          "blockHash": "0x8614dd12242716c4226338f79ba8367e4e73f6a06fac4595508701678c362614",
          "blockNumber": "0x17fd164",
          "blockTimestamp": "0x6a10dd7f",
          "transactionHash": "0x521abee5381535f5b2cd77bb44952c4631e384359ea4df1a4aa667503e509463",
          "transactionIndex": "0x16",
          "logIndex": "0x36",
          "removed": false
        },
        {
          "address": "0xdc035d45d973e3ec169d2276ddab16f1e407384f",
          "topics": [
            "0xddf252ad1be2c89b69c2b068fc378daa952ba7f163c4a11628f55a4df523b3ef",
            "0x0000000000000000000000000000000000000000000000000000000000000000",
            "0x000000000000000000000000a3931d71877c0e7a3148cb7eb4463524fec27fbd"
          ],
          "data": "0x00000000000000000000000000000000000000000000006a2cd0a215e334e190",
          "blockHash": "0x8614dd12242716c4226338f79ba8367e4e73f6a06fac4595508701678c362614",
          "blockNumber": "0x17fd164",
          "blockTimestamp": "0x6a10dd7f",
          "transactionHash": "0x521abee5381535f5b2cd77bb44952c4631e384359ea4df1a4aa667503e509463",
          "transactionIndex": "0x16",
          "logIndex": "0x37",
          "removed": false
        },
        {
          "address": "0x3c0f895007ca717aa01c8693e59df1e8c3777feb",
          "topics": [
            "0xbc2a67d422c268da6fe45f3e7d194e1d98906d221f1cfad62a5c80f2cd209f4c",
            "0x000000000000000000000000a3931d71877c0e7a3148cb7eb4463524fec27fbd",
            "0x000000000000000000000000a3931d71877c0e7a3148cb7eb4463524fec27fbd"
          ],
          "data": "0x00000000000000000000000000000000000000000000006a2cd0a215e334e190",
          "blockHash": "0x8614dd12242716c4226338f79ba8367e4e73f6a06fac4595508701678c362614",
          "blockNumber": "0x17fd164",
          "blockTimestamp": "0x6a10dd7f",
          "transactionHash": "0x521abee5381535f5b2cd77bb44952c4631e384359ea4df1a4aa667503e509463",
          "transactionIndex": "0x16",
          "logIndex": "0x38",
          "removed": false
        },
        {
          "address": "0xa3931d71877c0e7a3148cb7eb4463524fec27fbd",
          "topics": [
            "0xad1e8a53178522eb68a9d94d862bf30c841f709d2115f743eb6b34528751c79f"
          ],
          "data": "0x0000000000000000000000000000000000000000038bb5d25ea9d62a3806b68900000000000000000000000000000000000000000000006a2cd0a215e334e190",
          "blockHash": "0x8614dd12242716c4226338f79ba8367e4e73f6a06fac4595508701678c362614",
          "blockNumber": "0x17fd164",
          "blockTimestamp": "0x6a10dd7f",
          "transactionHash": "0x521abee5381535f5b2cd77bb44952c4631e384359ea4df1a4aa667503e509463",
          "transactionIndex": "0x16",
          "logIndex": "0x39",
          "removed": false
        },
        {
          "address": "0xdc035d45d973e3ec169d2276ddab16f1e407384f",
          "topics": [
            "0xddf252ad1be2c89b69c2b068fc378daa952ba7f163c4a11628f55a4df523b3ef",
            "0x000000000000000000000000a3931d71877c0e7a3148cb7eb4463524fec27fbd",
            "0x000000000000000000000000da2f1b3cba732d779cff56f0cf9d3bc8aea6cd8d"
          ],
          "data": "0x0000000000000000000000000000000000000000000001126a1a04fd59189000",
          "blockHash": "0x8614dd12242716c4226338f79ba8367e4e73f6a06fac4595508701678c362614",
          "blockNumber": "0x17fd164",
          "blockTimestamp": "0x6a10dd7f",
          "transactionHash": "0x521abee5381535f5b2cd77bb44952c4631e384359ea4df1a4aa667503e509463",
          "transactionIndex": "0x16",
          "logIndex": "0x3a",
          "removed": false
        },
        {
          "address": "0xa3931d71877c0e7a3148cb7eb4463524fec27fbd",
          "topics": [
            "0xddf252ad1be2c89b69c2b068fc378daa952ba7f163c4a11628f55a4df523b3ef",
            "0x000000000000000000000000da2f1b3cba732d779cff56f0cf9d3bc8aea6cd8d",
            "0x0000000000000000000000000000000000000000000000000000000000000000"
          ],
          "data": "0x0000000000000000000000000000000000000000000000fa11b34144a6f76c0b",
          "blockHash": "0x8614dd12242716c4226338f79ba8367e4e73f6a06fac4595508701678c362614",
          "blockNumber": "0x17fd164",
          "blockTimestamp": "0x6a10dd7f",
          "transactionHash": "0x521abee5381535f5b2cd77bb44952c4631e384359ea4df1a4aa667503e509463",
          "transactionIndex": "0x16",
          "logIndex": "0x3b",
          "removed": false
        },
        {
          "address": "0xa3931d71877c0e7a3148cb7eb4463524fec27fbd",
          "topics": [
            "0xfbde797d201c681b91056529119e0b02407c7bb96a4a2c75c01fc9667232c8db",
            "0x000000000000000000000000da2f1b3cba732d779cff56f0cf9d3bc8aea6cd8d",
            "0x000000000000000000000000da2f1b3cba732d779cff56f0cf9d3bc8aea6cd8d",
            "0x000000000000000000000000da2f1b3cba732d779cff56f0cf9d3bc8aea6cd8d"
          ],
          "data": "0x0000000000000000000000000000000000000000000001126a1a04fd591890000000000000000000000000000000000000000000000000fa11b34144a6f76c0b",
          "blockHash": "0x8614dd12242716c4226338f79ba8367e4e73f6a06fac4595508701678c362614",
          "blockNumber": "0x17fd164",
          "blockTimestamp": "0x6a10dd7f",
          "transactionHash": "0x521abee5381535f5b2cd77bb44952c4631e384359ea4df1a4aa667503e509463",
          "transactionIndex": "0x16",
          "logIndex": "0x3c",
          "removed": false
        },
        {
          "address": "0xdc035d45d973e3ec169d2276ddab16f1e407384f",
          "topics": [
            "0xddf252ad1be2c89b69c2b068fc378daa952ba7f163c4a11628f55a4df523b3ef",
            "0x000000000000000000000000da2f1b3cba732d779cff56f0cf9d3bc8aea6cd8d",
            "0x0000000000000000000000003225737a9bbb6473cb4a45b7244aca2befdb276a"
          ],
          "data": "0x0000000000000000000000000000000000000000000001126a1a04fd59189000",
          "blockHash": "0x8614dd12242716c4226338f79ba8367e4e73f6a06fac4595508701678c362614",
          "blockNumber": "0x17fd164",
          "blockTimestamp": "0x6a10dd7f",
          "transactionHash": "0x521abee5381535f5b2cd77bb44952c4631e384359ea4df1a4aa667503e509463",
          "transactionIndex": "0x16",
          "logIndex": "0x3d",
          "removed": false
        },
        {
          "address": "0x35d1b3f3d7966a1dfe207aa4514c12a259a0492b",
          "topics": [
            "0xbb35783b00000000000000000000000000000000000000000000000000000000",
            "0x0000000000000000000000003c0f895007ca717aa01c8693e59df1e8c3777feb",
            "0x0000000000000000000000003225737a9bbb6473cb4a45b7244aca2befdb276a",
            "0x00000000000000000000000376ae521af8d35850748fd1d7c280028000000000"
          ],
          "data": "0x000000000000000000000000000000000000000000000000000000000000002000000000000000000000000000000000000000000000000000000000000000e0bb35783b0000000000000000000000003c0f895007ca717aa01c8693e59df1e8c3777feb0000000000000000000000003225737a9bbb6473cb4a45b7244aca2befdb276a00000000000000000000000376ae521af8d35850748fd1d7c28002800000000000000000000000000000000000000000000000000000000000000000000000000000000000000000000000000000000000000000000000000000000000000000000000000000000000000000000000000000000000000000000000000000000000000000000000000000000000000000000000000000000000000000",
          "blockHash": "0x8614dd12242716c4226338f79ba8367e4e73f6a06fac4595508701678c362614",
          "blockNumber": "0x17fd164",
          "blockTimestamp": "0x6a10dd7f",
          "transactionHash": "0x521abee5381535f5b2cd77bb44952c4631e384359ea4df1a4aa667503e509463",
          "transactionIndex": "0x16",
          "logIndex": "0x3e",
          "removed": false
        },
        {
          "address": "0xdc035d45d973e3ec169d2276ddab16f1e407384f",
          "topics": [
            "0xddf252ad1be2c89b69c2b068fc378daa952ba7f163c4a11628f55a4df523b3ef",
            "0x0000000000000000000000003225737a9bbb6473cb4a45b7244aca2befdb276a",
            "0x0000000000000000000000000000000000000000000000000000000000000000"
          ],
          "data": "0x0000000000000000000000000000000000000000000001126a1a04fd59189000",
          "blockHash": "0x8614dd12242716c4226338f79ba8367e4e73f6a06fac4595508701678c362614",
          "blockNumber": "0x17fd164",
          "blockTimestamp": "0x6a10dd7f",
          "transactionHash": "0x521abee5381535f5b2cd77bb44952c4631e384359ea4df1a4aa667503e509463",
          "transactionIndex": "0x16",
          "logIndex": "0x3f",
          "removed": false
        },
        {
          "address": "0x3c0f895007ca717aa01c8693e59df1e8c3777feb",
          "topics": [
            "0x0e64978d073561c3dfd4d4e3e4dce066cde2ab246a44f990fabb0a21a4a3bd95",
            "0x0000000000000000000000003225737a9bbb6473cb4a45b7244aca2befdb276a",
            "0x0000000000000000000000003225737a9bbb6473cb4a45b7244aca2befdb276a"
          ],
          "data": "0x0000000000000000000000000000000000000000000001126a1a04fd59189000",
          "blockHash": "0x8614dd12242716c4226338f79ba8367e4e73f6a06fac4595508701678c362614",
          "blockNumber": "0x17fd164",
          "blockTimestamp": "0x6a10dd7f",
          "transactionHash": "0x521abee5381535f5b2cd77bb44952c4631e384359ea4df1a4aa667503e509463",
          "transactionIndex": "0x16",
          "logIndex": "0x40",
          "removed": false
        },
        {
          "address": "0x35d1b3f3d7966a1dfe207aa4514c12a259a0492b",
          "topics": [
            "0xbb35783b00000000000000000000000000000000000000000000000000000000",
            "0x0000000000000000000000003225737a9bbb6473cb4a45b7244aca2befdb276a",
            "0x0000000000000000000000009759a6ac90977b93b58547b4a71c78317f391a28",
            "0x00000000000000000000000376ae521af8d35850748fd1d7c280028000000000"
          ],
          "data": "0x000000000000000000000000000000000000000000000000000000000000002000000000000000000000000000000000000000000000000000000000000000e0bb35783b0000000000000000000000003225737a9bbb6473cb4a45b7244aca2befdb276a0000000000000000000000009759a6ac90977b93b58547b4a71c78317f391a2800000000000000000000000376ae521af8d35850748fd1d7c28002800000000000000000000000000000000000000000000000000000000000000000000000000000000000000000000000000000000000000000000000000000000000000000000000000000000000000000000000000000000000000000000000000000000000000000000000000000000000000000000000000000000000000000",
          "blockHash": "0x8614dd12242716c4226338f79ba8367e4e73f6a06fac4595508701678c362614",
          "blockNumber": "0x17fd164",
          "blockTimestamp": "0x6a10dd7f",
          "transactionHash": "0x521abee5381535f5b2cd77bb44952c4631e384359ea4df1a4aa667503e509463",
          "transactionIndex": "0x16",
          "logIndex": "0x41",
          "removed": false
        },
        {
          "address": "0x6b175474e89094c44da98b954eedeac495271d0f",
          "topics": [
            "0xddf252ad1be2c89b69c2b068fc378daa952ba7f163c4a11628f55a4df523b3ef",
            "0x0000000000000000000000000000000000000000000000000000000000000000",
            "0x000000000000000000000000da2f1b3cba732d779cff56f0cf9d3bc8aea6cd8d"
          ],
          "data": "0x0000000000000000000000000000000000000000000001126a1a04fd59189000",
          "blockHash": "0x8614dd12242716c4226338f79ba8367e4e73f6a06fac4595508701678c362614",
          "blockNumber": "0x17fd164",
          "blockTimestamp": "0x6a10dd7f",
          "transactionHash": "0x521abee5381535f5b2cd77bb44952c4631e384359ea4df1a4aa667503e509463",
          "transactionIndex": "0x16",
          "logIndex": "0x42",
          "removed": false
        },
        {
          "address": "0x9759a6ac90977b93b58547b4a71c78317f391a28",
          "topics": [
            "0xef693bed00000000000000000000000000000000000000000000000000000000",
            "0x0000000000000000000000003225737a9bbb6473cb4a45b7244aca2befdb276a",
            "0x000000000000000000000000da2f1b3cba732d779cff56f0cf9d3bc8aea6cd8d",
            "0x0000000000000000000000000000000000000000000001126a1a04fd59189000"
          ],
          "data": "0x000000000000000000000000000000000000000000000000000000000000002000000000000000000000000000000000000000000000000000000000000000e0ef693bed000000000000000000000000da2f1b3cba732d779cff56f0cf9d3bc8aea6cd8d0000000000000000000000000000000000000000000001126a1a04fd59189000000000000000000000000000000000000000000000000000000000000000000000000000000000000000000000000000000000000000000000000000000000000000000000000000000000000000000000000000000000000000000000000000000000000000000000000000000000000000000000000000000000000000000000000000000000000000000000000000000000000000000000000000",
          "blockHash": "0x8614dd12242716c4226338f79ba8367e4e73f6a06fac4595508701678c362614",
          "blockNumber": "0x17fd164",
          "blockTimestamp": "0x6a10dd7f",
          "transactionHash": "0x521abee5381535f5b2cd77bb44952c4631e384359ea4df1a4aa667503e509463",
          "transactionIndex": "0x16",
          "logIndex": "0x43",
          "removed": false
        },
        {
          "address": "0x3225737a9bbb6473cb4a45b7244aca2befdb276a",
          "topics": [
            "0x9c7bd3b60b7e46fc1d7a38d88b7dd4be0e028b80b706848fc3c065eabc8e6a9b",
            "0x000000000000000000000000da2f1b3cba732d779cff56f0cf9d3bc8aea6cd8d",
            "0x000000000000000000000000da2f1b3cba732d779cff56f0cf9d3bc8aea6cd8d"
          ],
          "data": "0x0000000000000000000000000000000000000000000001126a1a04fd59189000",
          "blockHash": "0x8614dd12242716c4226338f79ba8367e4e73f6a06fac4595508701678c362614",
          "blockNumber": "0x17fd164",
          "blockTimestamp": "0x6a10dd7f",
          "transactionHash": "0x521abee5381535f5b2cd77bb44952c4631e384359ea4df1a4aa667503e509463",
          "transactionIndex": "0x16",
          "logIndex": "0x44",
          "removed": false
        },
        {
          "address": "0x6b175474e89094c44da98b954eedeac495271d0f",
          "topics": [
            "0xddf252ad1be2c89b69c2b068fc378daa952ba7f163c4a11628f55a4df523b3ef",
            "0x000000000000000000000000da2f1b3cba732d779cff56f0cf9d3bc8aea6cd8d",
            "0x000000000000000000000000f6e72db5454dd049d0788e411b06cfaf16853042"
          ],
          "data": "0x0000000000000000000000000000000000000000000001126a1a04fd59189000",
          "blockHash": "0x8614dd12242716c4226338f79ba8367e4e73f6a06fac4595508701678c362614",
          "blockNumber": "0x17fd164",
          "blockTimestamp": "0x6a10dd7f",
          "transactionHash": "0x521abee5381535f5b2cd77bb44952c4631e384359ea4df1a4aa667503e509463",
          "transactionIndex": "0x16",
          "logIndex": "0x45",
          "removed": false
        },
        {
          "address": "0xa0b86991c6218b36c1d19d4a2e9eb0ce3606eb48",
          "topics": [
            "0xddf252ad1be2c89b69c2b068fc378daa952ba7f163c4a11628f55a4df523b3ef",
            "0x00000000000000000000000037305b1cd40574e4c5ce33f8e8306be057fd7341",
            "0x000000000000000000000000da2f1b3cba732d779cff56f0cf9d3bc8aea6cd8d"
          ],
          "data": "0x000000000000000000000000000000000000000000000000000000012db8cdb9",
          "blockHash": "0x8614dd12242716c4226338f79ba8367e4e73f6a06fac4595508701678c362614",
          "blockNumber": "0x17fd164",
          "blockTimestamp": "0x6a10dd7f",
          "transactionHash": "0x521abee5381535f5b2cd77bb44952c4631e384359ea4df1a4aa667503e509463",
          "transactionIndex": "0x16",
          "logIndex": "0x46",
          "removed": false
        },
        {
          "address": "0xf6e72db5454dd049d0788e411b06cfaf16853042",
          "topics": [
            "0x085d06ecf4c34b237767a31c0888e121d89546a77f186f1987c6b8715e1a8caa",
            "0x000000000000000000000000da2f1b3cba732d779cff56f0cf9d3bc8aea6cd8d"
          ],
          "data": "0x000000000000000000000000000000000000000000000000000000012db8cdb90000000000000000000000000000000000000000000000000000000000000000",
          "blockHash": "0x8614dd12242716c4226338f79ba8367e4e73f6a06fac4595508701678c362614",
          "blockNumber": "0x17fd164",
          "blockTimestamp": "0x6a10dd7f",
          "transactionHash": "0x521abee5381535f5b2cd77bb44952c4631e384359ea4df1a4aa667503e509463",
          "transactionIndex": "0x16",
          "logIndex": "0x47",
          "removed": false
        },
        {
          "address": "0xda2f1b3cba732d779cff56f0cf9d3bc8aea6cd8d",
          "topics": [
            "0xddf252ad1be2c89b69c2b068fc378daa952ba7f163c4a11628f55a4df523b3ef",
            "0x000000000000000000000000696d02db93291651ed510704c9b286841d506987",
            "0x0000000000000000000000000000000000000000000000000000000000000000"
          ],
          "data": "0x000000000000000000000000000000000000000000000000000000012db088f6",
          "blockHash": "0x8614dd12242716c4226338f79ba8367e4e73f6a06fac4595508701678c362614",
          "blockNumber": "0x17fd164",
          "blockTimestamp": "0x6a10dd7f",
          "transactionHash": "0x521abee5381535f5b2cd77bb44952c4631e384359ea4df1a4aa667503e509463",
          "transactionIndex": "0x16",
          "logIndex": "0x48",
          "removed": false
        },
        {
          "address": "0xa0b86991c6218b36c1d19d4a2e9eb0ce3606eb48",
          "topics": [
            "0xddf252ad1be2c89b69c2b068fc378daa952ba7f163c4a11628f55a4df523b3ef",
            "0x000000000000000000000000da2f1b3cba732d779cff56f0cf9d3bc8aea6cd8d",
            "0x000000000000000000000000696d02db93291651ed510704c9b286841d506987"
          ],
          "data": "0x000000000000000000000000000000000000000000000000000000012db8cdb9",
          "blockHash": "0x8614dd12242716c4226338f79ba8367e4e73f6a06fac4595508701678c362614",
          "blockNumber": "0x17fd164",
          "blockTimestamp": "0x6a10dd7f",
          "transactionHash": "0x521abee5381535f5b2cd77bb44952c4631e384359ea4df1a4aa667503e509463",
          "transactionIndex": "0x16",
          "logIndex": "0x49",
          "removed": false
        },
        {
          "address": "0xda2f1b3cba732d779cff56f0cf9d3bc8aea6cd8d",
          "topics": [
            "0xfbde797d201c681b91056529119e0b02407c7bb96a4a2c75c01fc9667232c8db",
            "0x000000000000000000000000696d02db93291651ed510704c9b286841d506987",
            "0x000000000000000000000000696d02db93291651ed510704c9b286841d506987",
            "0x000000000000000000000000696d02db93291651ed510704c9b286841d506987"
          ],
          "data": "0x000000000000000000000000000000000000000000000000000000012db8cdb9000000000000000000000000000000000000000000000000000000012db088f6",
          "blockHash": "0x8614dd12242716c4226338f79ba8367e4e73f6a06fac4595508701678c362614",
          "blockNumber": "0x17fd164",
          "blockTimestamp": "0x6a10dd7f",
          "transactionHash": "0x521abee5381535f5b2cd77bb44952c4631e384359ea4df1a4aa667503e509463",
          "transactionIndex": "0x16",
          "logIndex": "0x4a",
          "removed": false
        },
        {
          "address": "0x696d02db93291651ed510704c9b286841d506987",
          "topics": [
            "0x5e2b8821ad6e0e26207e0cb4d242d07eeb1cbb1cfd853e645bdcd27cc5484f95",
            "0x000000000000000000000000da2f1b3cba732d779cff56f0cf9d3bc8aea6cd8d"
          ],
          "data": "0x0000000000000000000000000000000000000000000000000000010579441080000000000000000000000000000000000000000000000000000001044b8b42c7",
          "blockHash": "0x8614dd12242716c4226338f79ba8367e4e73f6a06fac4595508701678c362614",
          "blockNumber": "0x17fd164",
          "blockTimestamp": "0x6a10dd7f",
          "transactionHash": "0x521abee5381535f5b2cd77bb44952c4631e384359ea4df1a4aa667503e509463",
          "transactionIndex": "0x16",
          "logIndex": "0x4b",
          "removed": false
        },
        {
          "address": "0x696d02db93291651ed510704c9b286841d506987",
          "topics": [
            "0xddf252ad1be2c89b69c2b068fc378daa952ba7f163c4a11628f55a4df523b3ef",
            "0x0000000000000000000000004fe93ebc4ce6ae4f81601cc7ce7139023919e003",
            "0x0000000000000000000000000000000000000000000000000000000000000000"
          ],
          "data": "0x000000000000000000000000000000000000000000000000000000012a05e87b",
          "blockHash": "0x8614dd12242716c4226338f79ba8367e4e73f6a06fac4595508701678c362614",
          "blockNumber": "0x17fd164",
          "blockTimestamp": "0x6a10dd7f",
          "transactionHash": "0x521abee5381535f5b2cd77bb44952c4631e384359ea4df1a4aa667503e509463",
          "transactionIndex": "0x16",
          "logIndex": "0x4c",
          "removed": false
        },
        {
          "address": "0xa0b86991c6218b36c1d19d4a2e9eb0ce3606eb48",
          "topics": [
            "0xddf252ad1be2c89b69c2b068fc378daa952ba7f163c4a11628f55a4df523b3ef",
            "0x000000000000000000000000696d02db93291651ed510704c9b286841d506987",
            "0x00000000000000000000000091eb419d77962bf89a0f1ca8b1fa525f443d5421"
          ],
          "data": "0x000000000000000000000000000000000000000000000000000000012db8cdb9",
          "blockHash": "0x8614dd12242716c4226338f79ba8367e4e73f6a06fac4595508701678c362614",
          "blockNumber": "0x17fd164",
          "blockTimestamp": "0x6a10dd7f",
          "transactionHash": "0x521abee5381535f5b2cd77bb44952c4631e384359ea4df1a4aa667503e509463",
          "transactionIndex": "0x16",
          "logIndex": "0x4d",
          "removed": false
        },
        {
          "address": "0x696d02db93291651ed510704c9b286841d506987",
          "topics": [
            "0xfbde797d201c681b91056529119e0b02407c7bb96a4a2c75c01fc9667232c8db",
            "0x0000000000000000000000004fe93ebc4ce6ae4f81601cc7ce7139023919e003",
            "0x00000000000000000000000091eb419d77962bf89a0f1ca8b1fa525f443d5421",
            "0x0000000000000000000000004fe93ebc4ce6ae4f81601cc7ce7139023919e003"
          ],
          "data": "0x000000000000000000000000000000000000000000000000000000012db8cdb9000000000000000000000000000000000000000000000000000000012a05e87b",
          "blockHash": "0x8614dd12242716c4226338f79ba8367e4e73f6a06fac4595508701678c362614",
          "blockNumber": "0x17fd164",
          "blockTimestamp": "0x6a10dd7f",
          "transactionHash": "0x521abee5381535f5b2cd77bb44952c4631e384359ea4df1a4aa667503e509463",
          "transactionIndex": "0x16",
          "logIndex": "0x4e",
          "removed": false
        },
        {
          "address": "0x4fe93ebc4ce6ae4f81601cc7ce7139023919e003",
          "topics": [
            "0x049d8dd84b6a6cc45d5f68a74b23450bd3e54d84fd405d91b8b286c78d51d249"
          ],
          "data": "0x5425f86bfb267dca64186287ee4312f3e0ee923ec4afb3a8c933f04c9e4136aa695ad490ec303287d522a9b072dafa87256f7cc9f91e863e422d6f4da0316564",
          "blockHash": "0x8614dd12242716c4226338f79ba8367e4e73f6a06fac4595508701678c362614",
          "blockNumber": "0x17fd164",
          "blockTimestamp": "0x6a10dd7f",
          "transactionHash": "0x521abee5381535f5b2cd77bb44952c4631e384359ea4df1a4aa667503e509463",
          "transactionIndex": "0x16",
          "logIndex": "0x4f",
          "removed": false
        },
        {
          "address": "0x696d02db93291651ed510704c9b286841d506987",
          "topics": [
            "0x8c5be1e5ebec7d5bd14f71427d1e84f3dd0314c0f7b2291e5b200ac8c7c3b925",
            "0x00000000000000000000000091eb419d77962bf89a0f1ca8b1fa525f443d5421",
            "0x000000000000000000000000f75584ef6673ad213a685a1b58cc0330b8ea22cf"
          ],
          "data": "0x0000000000000000000000000000000000000000000000000000000000000000",
          "blockHash": "0x8614dd12242716c4226338f79ba8367e4e73f6a06fac4595508701678c362614",
          "blockNumber": "0x17fd164",
          "blockTimestamp": "0x6a10dd7f",
          "transactionHash": "0x521abee5381535f5b2cd77bb44952c4631e384359ea4df1a4aa667503e509463",
          "transactionIndex": "0x16",
          "logIndex": "0x50",
          "removed": false
        },
        {
          "address": "0xa0b86991c6218b36c1d19d4a2e9eb0ce3606eb48",
          "topics": [
            "0xddf252ad1be2c89b69c2b068fc378daa952ba7f163c4a11628f55a4df523b3ef",
            "0x00000000000000000000000091eb419d77962bf89a0f1ca8b1fa525f443d5421",
            "0x000000000000000000000000bf3e996821d43ac3b6069ae74efa101ffc6137e0"
          ],
          "data": "0x000000000000000000000000000000000000000000000000000000012db8cdb9",
          "blockHash": "0x8614dd12242716c4226338f79ba8367e4e73f6a06fac4595508701678c362614",
          "blockNumber": "0x17fd164",
          "blockTimestamp": "0x6a10dd7f",
          "transactionHash": "0x521abee5381535f5b2cd77bb44952c4631e384359ea4df1a4aa667503e509463",
          "transactionIndex": "0x16",
          "logIndex": "0x51",
          "removed": false
        },
        {
          "address": "0xa0b86991c6218b36c1d19d4a2e9eb0ce3606eb48",
          "topics": [
            "0x8c5be1e5ebec7d5bd14f71427d1e84f3dd0314c0f7b2291e5b200ac8c7c3b925",
            "0x000000000000000000000000bf3e996821d43ac3b6069ae74efa101ffc6137e0",
            "0x000000000000000000000000bbbbbbbbbb9cc5e90e3b3af64bdaf62c37eeffcb"
          ],
          "data": "0x000000000000000000000000000000000000000000000000000000010fab31a1",
          "blockHash": "0x8614dd12242716c4226338f79ba8367e4e73f6a06fac4595508701678c362614",
          "blockNumber": "0x17fd164",
          "blockTimestamp": "0x6a10dd7f",
          "transactionHash": "0x521abee5381535f5b2cd77bb44952c4631e384359ea4df1a4aa667503e509463",
          "transactionIndex": "0x16",
          "logIndex": "0x52",
          "removed": false
        },
        {
          "address": "0xa0b86991c6218b36c1d19d4a2e9eb0ce3606eb48",
          "topics": [
            "0xddf252ad1be2c89b69c2b068fc378daa952ba7f163c4a11628f55a4df523b3ef",
            "0x000000000000000000000000bf3e996821d43ac3b6069ae74efa101ffc6137e0",
            "0x000000000000000000000000bbbbbbbbbb9cc5e90e3b3af64bdaf62c37eeffcb"
          ],
          "data": "0x000000000000000000000000000000000000000000000000000000010fab31a1",
          "blockHash": "0x8614dd12242716c4226338f79ba8367e4e73f6a06fac4595508701678c362614",
          "blockNumber": "0x17fd164",
          "blockTimestamp": "0x6a10dd7f",
          "transactionHash": "0x521abee5381535f5b2cd77bb44952c4631e384359ea4df1a4aa667503e509463",
          "transactionIndex": "0x16",
          "logIndex": "0x53",
          "removed": false
        },
        {
          "address": "0xa0b86991c6218b36c1d19d4a2e9eb0ce3606eb48",
          "topics": [
            "0xddf252ad1be2c89b69c2b068fc378daa952ba7f163c4a11628f55a4df523b3ef",
            "0x000000000000000000000000bf3e996821d43ac3b6069ae74efa101ffc6137e0",
            "0x0000000000000000000000005555e978e0732c198bc801477dfbccce66252ff5"
          ],
          "data": "0x000000000000000000000000000000000000000000000000000000001e14904a",
          "blockHash": "0x8614dd12242716c4226338f79ba8367e4e73f6a06fac4595508701678c362614",
          "blockNumber": "0x17fd164",
          "blockTimestamp": "0x6a10dd7f",
          "transactionHash": "0x521abee5381535f5b2cd77bb44952c4631e384359ea4df1a4aa667503e509463",
          "transactionIndex": "0x16",
          "logIndex": "0x54",
          "removed": false
        }
      ],
      "logsBloom": "0x00000040000001400010200000000080001000000000002000000000400008000004100440000000000003800000030120110050000400400000048001200000000080101010000008904008000000010002004402028040004078200080000250000044120210008000020000000a08000100000000000000008012400018000008000208040008000000101010044200008000110400000010000100000000020008010600210000000000000000020800000080010400000080001040400220002002001001c00040040002002020000902280420000000200000002020400010080101000000802001280000000004000000800010008012010000008000",
      "transactionHash": "0x521abee5381535f5b2cd77bb44952c4631e384359ea4df1a4aa667503e509463",
      "transactionIndex": "0x16",
      "blockHash": "0x8614dd12242716c4226338f79ba8367e4e73f6a06fac4595508701678c362614",
      "blockNumber": "0x17fd164",
      "gasUsed": "0xe1cb1",
      "effectiveGasPrice": "0x31747af",
      "blobGasUsed": "0x0",
      "from": "0x5555e978e0732c198bc801477dfbccce66252ff5",
      "to": "0xbf3e996821d43ac3b6069ae74efa101ffc6137e0",
      "contractAddress": null
    }
  ],
  "libraries": [],
  "pending": [],
  "returns": {},
  "timestamp": 1779490178823,
  "chain": 1,
  "commit": "7a94215"
}