{
  "transactions": [
    {
      "hash": "0x3fa950cbe8618148c254cfc87de3cfe0a4abc842eadc3ade82a5f4d17a54cac7",
      "transactionType": "CALL",
      "contractName": null,
      "contractAddress": "0xbf3e996821d43ac3b6069ae74efa101ffc6137e0",
      "function": "lever_down_trove((address,address,uint256,uint256,uint256,(address,bytes),(address,bytes)))",
      "arguments": [
        "(0xd82DB9893751E9C90E2a6C3bE31183048E8E2e49, 0xA0b86991c6218b36c1d19D4a2e9Eb0cE3606eB48, 55747671586403220826287365044824856006422462050911439375647723028660622133195, 4049547004, 4000000000, (0xF75584eF6673aD213a685a1B58Cc0330B8eA22Cf, 0xb94c3609000000000000000000000000000000000000000000000000000000000000004000000000000000000000000000000000000000000000000000000000000000e0000000000000000000000000000000000000000000000000000000000000000100000000000000000000000000000000000000000000000000000000000000400000000000000000000000000000000000000000000000000000000000000040000000000000000000000000696d02db93291651ed510704c9b286841d50698700000000000000000000000000000000000000000000000000000000ee6b280000000000000000000000000000000000000000000000000000000000000002a495352c9f5425f86bfb267dca64186287ee4312f3e0ee923ec4afb3a8c933f04c9e4136aa97ddf89488b37cf4c865c466b3e29e8a9e494ae89075ccd5abf72847e80cab04000000000000000000000000000000000000000000000000000000000000008000000000000000000000000000000000000000000000000000000000000001000000000000000000000000000000000000000000000000000000000000000003ba08765201000102ffffff02696d02db93291651ed510704c9b286841d5069876e7a43a3010203ffffffff027e7d64d987cab6eed08a191c4c2459daf2f8ed0b241c59120102ffffffffffff7e7d64d987cab6eed08a191c4c2459daf2f8ed0b0000000000000000000000000000000000000000000000000000000000000004000000000000000000000000000000000000000000000000000000000000008000000000000000000000000000000000000000000000000000000000000000c000000000000000000000000000000000000000000000000000000000000001000000000000000000000000000000000000000000000000000000000000000140000000000000000000000000000000000000000000000000000000000000002000000000000000000000000000000000000000000000000000000000ee6b2800000000000000000000000000000000000000000000000000000000000000002000000000000000000000000091eb419d77962bf89a0f1ca8b1fa525f443d542100000000000000000000000000000000000000000000000000000000000000200000000000000000000000004fe93ebc4ce6ae4f81601cc7ce7139023919e003000000000000000000000000000000000000000000000000000000000000002000000000000000000000000000000000000000000000000000000000eefb6ad500000000000000000000000000000000000000000000000000000000), (0x0000000000000000000000000000000000000000, 0x))"
      ],
      "transaction": {
        "from": "0x5555e978e0732c198bc801477dfbccce66252ff5",
        "to": "0xbf3e996821d43ac3b6069ae74efa101ffc6137e0",
        "gas": "0x1468c9",
        "value": "0x0",
        "input": "0x37d231850000000000000000000000000000000000000000000000000000000000000020000000000000000000000000d82db9893751e9c90e2a6c3be31183048e8e2e49000000000000000000000000a0b86991c6218b36c1d19d4a2e9eb0ce3606eb487b40105f590f776056974c301c2b203324db5f16c37c84eb1588270ac7eb07cb00000000000000000000000000000000000000000000000000000000f15f2efc00000000000000000000000000000000000000000000000000000000ee6b280000000000000000000000000000000000000000000000000000000000000000e00000000000000000000000000000000000000000000000000000000000000520000000000000000000000000f75584ef6673ad213a685a1b58cc0330b8ea22cf000000000000000000000000000000000000000000000000000000000000004000000000000000000000000000000000000000000000000000000000000003c4b94c3609000000000000000000000000000000000000000000000000000000000000004000000000000000000000000000000000000000000000000000000000000000e0000000000000000000000000000000000000000000000000000000000000000100000000000000000000000000000000000000000000000000000000000000400000000000000000000000000000000000000000000000000000000000000040000000000000000000000000696d02db93291651ed510704c9b286841d50698700000000000000000000000000000000000000000000000000000000ee6b280000000000000000000000000000000000000000000000000000000000000002a495352c9f5425f86bfb267dca64186287ee4312f3e0ee923ec4afb3a8c933f04c9e4136aa97ddf89488b37cf4c865c466b3e29e8a9e494ae89075ccd5abf72847e80cab04000000000000000000000000000000000000000000000000000000000000008000000000000000000000000000000000000000000000000000000000000001000000000000000000000000000000000000000000000000000000000000000003ba08765201000102ffffff02696d02db93291651ed510704c9b286841d5069876e7a43a3010203ffffffff027e7d64d987cab6eed08a191c4c2459daf2f8ed0b241c59120102ffffffffffff7e7d64d987cab6eed08a191c4c2459daf2f8ed0b0000000000000000000000000000000000000000000000000000000000000004000000000000000000000000000000000000000000000000000000000000008000000000000000000000000000000000000000000000000000000000000000c000000000000000000000000000000000000000000000000000000000000001000000000000000000000000000000000000000000000000000000000000000140000000000000000000000000000000000000000000000000000000000000002000000000000000000000000000000000000000000000000000000000ee6b2800000000000000000000000000000000000000000000000000000000000000002000000000000000000000000091eb419d77962bf89a0f1ca8b1fa525f443d542100000000000000000000000000000000000000000000000000000000000000200000000000000000000000004fe93ebc4ce6ae4f81601cc7ce7139023919e003000000000000000000000000000000000000000000000000000000000000002000000000000000000000000000000000000000000000000000000000eefb6ad50000000000000000000000000000000000000000000000000000000000000000000000000000000000000000000000000000000000000000000000000000000000000000000000000000000000000000000000000000000000000000000000000000000000000000000000000000000000000000000000400000000000000000000000000000000000000000000000000000000000000000",
        "nonce": "0x96",
        "chainId": "0x1"
      },
      "additionalContracts": [],
      "isFixedGasLimit": false
    }
  ],
  "receipts": [
    {
      "type": "0x2",
      "status": "0x1",
      "cumulativeGasUsed": "0xd8bda4",
      "logs": [
        {
          "address": "0xbbbbbbbbbb9cc5e90e3b3af64bdaf62c37eeffcb",
          "topics": [
            "0xc76f1b4fe4396ac07a9fa55a415d4ca430e72651d37d3401f3bed7cb13fc4f12",
            "0x000000000000000000000000bf3e996821d43ac3b6069ae74efa101ffc6137e0",
            "0x000000000000000000000000a0b86991c6218b36c1d19d4a2e9eb0ce3606eb48"
          ],
          "data": "0x00000000000000000000000000000000000000000000000000000000f15f2efc",
          "blockHash": "0x8aba49d023a57fab01b8a36cd387b9c38ed8a7c385e31649c18ece69a64bc3c2",
          "blockNumber": "0x17fe337",
          "blockTimestamp": "0x6a11b3f3",
          "transactionHash": "0x3fa950cbe8618148c254cfc87de3cfe0a4abc842eadc3ade82a5f4d17a54cac7",
          "transactionIndex": "0x6f",
          "logIndex": "0x148",
          "removed": false
        },
        {
          "address": "0xa0b86991c6218b36c1d19d4a2e9eb0ce3606eb48",
          "topics": [
            "0xddf252ad1be2c89b69c2b068fc378daa952ba7f163c4a11628f55a4df523b3ef",
            "0x000000000000000000000000bbbbbbbbbb9cc5e90e3b3af64bdaf62c37eeffcb",
            "0x000000000000000000000000bf3e996821d43ac3b6069ae74efa101ffc6137e0"
          ],
          "data": "0x00000000000000000000000000000000000000000000000000000000f15f2efc",
          "blockHash": "0x8aba49d023a57fab01b8a36cd387b9c38ed8a7c385e31649c18ece69a64bc3c2",
          "blockNumber": "0x17fe337",
          "blockTimestamp": "0x6a11b3f3",
          "transactionHash": "0x3fa950cbe8618148c254cfc87de3cfe0a4abc842eadc3ade82a5f4d17a54cac7",
          "transactionIndex": "0x6f",
          "logIndex": "0x149",
          "removed": false
        },
        {
          "address": "0xa0b86991c6218b36c1d19d4a2e9eb0ce3606eb48",
          "topics": [
            "0x8c5be1e5ebec7d5bd14f71427d1e84f3dd0314c0f7b2291e5b200ac8c7c3b925",
            "0x000000000000000000000000bf3e996821d43ac3b6069ae74efa101ffc6137e0",
            "0x000000000000000000000000d82db9893751e9c90e2a6c3be31183048e8e2e49"
          ],
          "data": "0x00000000000000000000000000000000000000000000000000000000f15f2efc",
          "blockHash": "0x8aba49d023a57fab01b8a36cd387b9c38ed8a7c385e31649c18ece69a64bc3c2",
          "blockNumber": "0x17fe337",
          "blockTimestamp": "0x6a11b3f3",
          "transactionHash": "0x3fa950cbe8618148c254cfc87de3cfe0a4abc842eadc3ade82a5f4d17a54cac7",
          "transactionIndex": "0x6f",
          "logIndex": "0x14a",
          "removed": false
        },
        {
          "address": "0xa0b86991c6218b36c1d19d4a2e9eb0ce3606eb48",
          "topics": [
            "0xddf252ad1be2c89b69c2b068fc378daa952ba7f163c4a11628f55a4df523b3ef",
            "0x000000000000000000000000bf3e996821d43ac3b6069ae74efa101ffc6137e0",
            "0x00000000000000000000000033c45216e121e31f1a8cd24c7e9d0d0c9e29b732"
          ],
          "data": "0x00000000000000000000000000000000000000000000000000000000f15f2efc",
          "blockHash": "0x8aba49d023a57fab01b8a36cd387b9c38ed8a7c385e31649c18ece69a64bc3c2",
          "blockNumber": "0x17fe337",
          "blockTimestamp": "0x6a11b3f3",
          "transactionHash": "0x3fa950cbe8618148c254cfc87de3cfe0a4abc842eadc3ade82a5f4d17a54cac7",
          "transactionIndex": "0x6f",
          "logIndex": "0x14b",
          "removed": false
        },
        {
          "address": "0xd82db9893751e9c90e2a6c3be31183048e8e2e49",
          "topics": [
            "0xc030da26557a891f33dbaee473c007cdfa269acb9628d7d12e744ec6923ed2b3",
            "0x7b40105f590f776056974c301c2b203324db5f16c37c84eb1588270ac7eb07cb",
            "0x0000000000000000000000005555e978e0732c198bc801477dfbccce66252ff5"
          ],
          "data": "0x00000000000000000000000000000000000000000000000000000000f15f2efc",
          "blockHash": "0x8aba49d023a57fab01b8a36cd387b9c38ed8a7c385e31649c18ece69a64bc3c2",
          "blockNumber": "0x17fe337",
          "blockTimestamp": "0x6a11b3f3",
          "transactionHash": "0x3fa950cbe8618148c254cfc87de3cfe0a4abc842eadc3ade82a5f4d17a54cac7",
          "transactionIndex": "0x6f",
          "logIndex": "0x14c",
          "removed": false
        },
        {
          "address": "0xa0b86991c6218b36c1d19d4a2e9eb0ce3606eb48",
          "topics": [
            "0x8c5be1e5ebec7d5bd14f71427d1e84f3dd0314c0f7b2291e5b200ac8c7c3b925",
            "0x000000000000000000000000bf3e996821d43ac3b6069ae74efa101ffc6137e0",
            "0x000000000000000000000000d82db9893751e9c90e2a6c3be31183048e8e2e49"
          ],
          "data": "0x0000000000000000000000000000000000000000000000000000000000000000",
          "blockHash": "0x8aba49d023a57fab01b8a36cd387b9c38ed8a7c385e31649c18ece69a64bc3c2",
          "blockNumber": "0x17fe337",
          "blockTimestamp": "0x6a11b3f3",
          "transactionHash": "0x3fa950cbe8618148c254cfc87de3cfe0a4abc842eadc3ade82a5f4d17a54cac7",
          "transactionIndex": "0x6f",
          "logIndex": "0x14d",
          "removed": false
        },
        {
          "address": "0x696d02db93291651ed510704c9b286841d506987",
          "topics": [
            "0xddf252ad1be2c89b69c2b068fc378daa952ba7f163c4a11628f55a4df523b3ef",
            "0x000000000000000000000000d82db9893751e9c90e2a6c3be31183048e8e2e49",
            "0x000000000000000000000000bf3e996821d43ac3b6069ae74efa101ffc6137e0"
          ],
          "data": "0x00000000000000000000000000000000000000000000000000000000ee6b2800",
          "blockHash": "0x8aba49d023a57fab01b8a36cd387b9c38ed8a7c385e31649c18ece69a64bc3c2",
          "blockNumber": "0x17fe337",
          "blockTimestamp": "0x6a11b3f3",
          "transactionHash": "0x3fa950cbe8618148c254cfc87de3cfe0a4abc842eadc3ade82a5f4d17a54cac7",
          "transactionIndex": "0x6f",
          "logIndex": "0x14e",
          "removed": false
        },
        {
          "address": "0xd82db9893751e9c90e2a6c3be31183048e8e2e49",
          "topics": [
            "0xb7464e08add10846d62a84243a08bcd31fb4d0c9bb84591709b39de1fad9ae0e",
            "0x7b40105f590f776056974c301c2b203324db5f16c37c84eb1588270ac7eb07cb",
            "0x0000000000000000000000005555e978e0732c198bc801477dfbccce66252ff5"
          ],
          "data": "0x00000000000000000000000000000000000000000000000000000000ee6b2800",
          "blockHash": "0x8aba49d023a57fab01b8a36cd387b9c38ed8a7c385e31649c18ece69a64bc3c2",
          "blockNumber": "0x17fe337",
          "blockTimestamp": "0x6a11b3f3",
          "transactionHash": "0x3fa950cbe8618148c254cfc87de3cfe0a4abc842eadc3ade82a5f4d17a54cac7",
          "transactionIndex": "0x6f",
          "logIndex": "0x14f",
          "removed": false
        },
        {
          "address": "0x696d02db93291651ed510704c9b286841d506987",
          "topics": [
            "0xddf252ad1be2c89b69c2b068fc378daa952ba7f163c4a11628f55a4df523b3ef",
            "0x000000000000000000000000bf3e996821d43ac3b6069ae74efa101ffc6137e0",
            "0x00000000000000000000000091eb419d77962bf89a0f1ca8b1fa525f443d5421"
          ],
          "data": "0x00000000000000000000000000000000000000000000000000000000ee6b2800",
          "blockHash": "0x8aba49d023a57fab01b8a36cd387b9c38ed8a7c385e31649c18ece69a64bc3c2",
          "blockNumber": "0x17fe337",
          "blockTimestamp": "0x6a11b3f3",
          "transactionHash": "0x3fa950cbe8618148c254cfc87de3cfe0a4abc842eadc3ade82a5f4d17a54cac7",
          "transactionIndex": "0x6f",
          "logIndex": "0x150",
          "removed": false
        },
        {
          "address": "0x696d02db93291651ed510704c9b286841d506987",
          "topics": [
            "0x8c5be1e5ebec7d5bd14f71427d1e84f3dd0314c0f7b2291e5b200ac8c7c3b925",
            "0x00000000000000000000000091eb419d77962bf89a0f1ca8b1fa525f443d5421",
            "0x000000000000000000000000f75584ef6673ad213a685a1b58cc0330b8ea22cf"
          ],
          "data": "0x00000000000000000000000000000000000000000000000000000000ee6b2800",
          "blockHash": "0x8aba49d023a57fab01b8a36cd387b9c38ed8a7c385e31649c18ece69a64bc3c2",
          "blockNumber": "0x17fe337",
          "blockTimestamp": "0x6a11b3f3",
          "transactionHash": "0x3fa950cbe8618148c254cfc87de3cfe0a4abc842eadc3ade82a5f4d17a54cac7",
          "transactionIndex": "0x6f",
          "logIndex": "0x151",
          "removed": false
        },
        {
          "address": "0x696d02db93291651ed510704c9b286841d506987",
          "topics": [
            "0x8c5be1e5ebec7d5bd14f71427d1e84f3dd0314c0f7b2291e5b200ac8c7c3b925",
            "0x00000000000000000000000091eb419d77962bf89a0f1ca8b1fa525f443d5421",
            "0x000000000000000000000000f75584ef6673ad213a685a1b58cc0330b8ea22cf"
          ],
          "data": "0x0000000000000000000000000000000000000000000000000000000000000000",
          "blockHash": "0x8aba49d023a57fab01b8a36cd387b9c38ed8a7c385e31649c18ece69a64bc3c2",
          "blockNumber": "0x17fe337",
          "blockTimestamp": "0x6a11b3f3",
          "transactionHash": "0x3fa950cbe8618148c254cfc87de3cfe0a4abc842eadc3ade82a5f4d17a54cac7",
          "transactionIndex": "0x6f",
          "logIndex": "0x152",
          "removed": false
        },
        {
          "address": "0x696d02db93291651ed510704c9b286841d506987",
          "topics": [
            "0xddf252ad1be2c89b69c2b068fc378daa952ba7f163c4a11628f55a4df523b3ef",
            "0x00000000000000000000000091eb419d77962bf89a0f1ca8b1fa525f443d5421",
            "0x0000000000000000000000004fe93ebc4ce6ae4f81601cc7ce7139023919e003"
          ],
          "data": "0x00000000000000000000000000000000000000000000000000000000ee6b2800",
          "blockHash": "0x8aba49d023a57fab01b8a36cd387b9c38ed8a7c385e31649c18ece69a64bc3c2",
          "blockNumber": "0x17fe337",
          "blockTimestamp": "0x6a11b3f3",
          "transactionHash": "0x3fa950cbe8618148c254cfc87de3cfe0a4abc842eadc3ade82a5f4d17a54cac7",
          "transactionIndex": "0x6f",
          "logIndex": "0x153",
          "removed": false
        },
        {
          "address": "0x35d1b3f3d7966a1dfe207aa4514c12a259a0492b",
          "topics": [
            "0xf24e23eb00000000000000000000000000000000000000000000000000000000",
            "0x000000000000000000000000a950524441892a31ebddf91d3ceefa04bf454466",
            "0x000000000000000000000000a3931d71877c0e7a3148cb7eb4463524fec27fbd",
            "0x0000000000000000000000004a3afb832032e0f59163f81f0061571ac0000000"
          ],
          "data": "0x000000000000000000000000000000000000000000000000000000000000002000000000000000000000000000000000000000000000000000000000000000e0f24e23eb000000000000000000000000a950524441892a31ebddf91d3ceefa04bf454466000000000000000000000000a3931d71877c0e7a3148cb7eb4463524fec27fbd0000000000000000000000004a3afb832032e0f59163f81f0061571ac000000000000000000000000000000000000000000000000000000000000000000000000000000000000000000000000000000000000000000000000000000000000000000000000000000000000000000000000000000000000000000000000000000000000000000000000000000000000000000000000000000000000000",
          "blockHash": "0x8aba49d023a57fab01b8a36cd387b9c38ed8a7c385e31649c18ece69a64bc3c2",
          "blockNumber": "0x17fe337",
          "blockTimestamp": "0x6a11b3f3",
          "transactionHash": "0x3fa950cbe8618148c254cfc87de3cfe0a4abc842eadc3ade82a5f4d17a54cac7",
          "transactionIndex": "0x6f",
          "logIndex": "0x154",
          "removed": false
        },
        {
          "address": "0x35d1b3f3d7966a1dfe207aa4514c12a259a0492b",
          "topics": [
            "0xbb35783b00000000000000000000000000000000000000000000000000000000",
            "0x000000000000000000000000a3931d71877c0e7a3148cb7eb4463524fec27fbd",
            "0x0000000000000000000000003c0f895007ca717aa01c8693e59df1e8c3777feb",
            "0x0000000000000000000000004a3afb832032e0f59163f81f0061571ac0000000"
          ],
          "data": "0x000000000000000000000000000000000000000000000000000000000000002000000000000000000000000000000000000000000000000000000000000000e0bb35783b000000000000000000000000a3931d71877c0e7a3148cb7eb4463524fec27fbd0000000000000000000000003c0f895007ca717aa01c8693e59df1e8c3777feb0000000000000000000000004a3afb832032e0f59163f81f0061571ac000000000000000000000000000000000000000000000000000000000000000000000000000000000000000000000000000000000000000000000000000000000000000000000000000000000000000000000000000000000000000000000000000000000000000000000000000000000000000000000000000000000000000",
          "blockHash": "0x8aba49d023a57fab01b8a36cd387b9c38ed8a7c385e31649c18ece69a64bc3c2",
          "blockNumber": "0x17fe337",
          "blockTimestamp": "0x6a11b3f3",
          "transactionHash": "0x3fa950cbe8618148c254cfc87de3cfe0a4abc842eadc3ade82a5f4d17a54cac7",
          "transactionIndex": "0x6f",
          "logIndex": "0x155",
          "removed": false
        },
        {
          "address": "0xdc035d45d973e3ec169d2276ddab16f1e407384f",
          "topics": [
            "0xddf252ad1be2c89b69c2b068fc378daa952ba7f163c4a11628f55a4df523b3ef",
            "0x0000000000000000000000000000000000000000000000000000000000000000",
            "0x000000000000000000000000a3931d71877c0e7a3148cb7eb4463524fec27fbd"
          ],
          "data": "0x000000000000000000000000000000000000000000000016f92362238b2b4d38",
          "blockHash": "0x8aba49d023a57fab01b8a36cd387b9c38ed8a7c385e31649c18ece69a64bc3c2",
          "blockNumber": "0x17fe337",
          "blockTimestamp": "0x6a11b3f3",
          "transactionHash": "0x3fa950cbe8618148c254cfc87de3cfe0a4abc842eadc3ade82a5f4d17a54cac7",
          "transactionIndex": "0x6f",
          "logIndex": "0x156",
          "removed": false
        },
        {
          "address": "0x3c0f895007ca717aa01c8693e59df1e8c3777feb",
          "topics": [
            "0xbc2a67d422c268da6fe45f3e7d194e1d98906d221f1cfad62a5c80f2cd209f4c",
            "0x000000000000000000000000a3931d71877c0e7a3148cb7eb4463524fec27fbd",
            "0x000000000000000000000000a3931d71877c0e7a3148cb7eb4463524fec27fbd"
          ],
          "data": "0x000000000000000000000000000000000000000000000016f92362238b2b4d38",
          "blockHash": "0x8aba49d023a57fab01b8a36cd387b9c38ed8a7c385e31649c18ece69a64bc3c2",
          "blockNumber": "0x17fe337",
          "blockTimestamp": "0x6a11b3f3",
          "transactionHash": "0x3fa950cbe8618148c254cfc87de3cfe0a4abc842eadc3ade82a5f4d17a54cac7",
          "transactionIndex": "0x6f",
          "logIndex": "0x157",
          "removed": false
        },
        {
          "address": "0xa3931d71877c0e7a3148cb7eb4463524fec27fbd",
          "topics": [
            "0xad1e8a53178522eb68a9d94d862bf30c841f709d2115f743eb6b34528751c79f"
          ],
          "data": "0x0000000000000000000000000000000000000000038bc4531542f0eaf3dc3701000000000000000000000000000000000000000000000016f92362238b2b4d38",
          "blockHash": "0x8aba49d023a57fab01b8a36cd387b9c38ed8a7c385e31649c18ece69a64bc3c2",
          "blockNumber": "0x17fe337",
          "blockTimestamp": "0x6a11b3f3",
          "transactionHash": "0x3fa950cbe8618148c254cfc87de3cfe0a4abc842eadc3ade82a5f4d17a54cac7",
          "transactionIndex": "0x6f",
          "logIndex": "0x158",
          "removed": false
        },
        {
          "address": "0xdc035d45d973e3ec169d2276ddab16f1e407384f",
          "topics": [
            "0xddf252ad1be2c89b69c2b068fc378daa952ba7f163c4a11628f55a4df523b3ef",
            "0x000000000000000000000000a3931d71877c0e7a3148cb7eb4463524fec27fbd",
            "0x000000000000000000000000da2f1b3cba732d779cff56f0cf9d3bc8aea6cd8d"
          ],
          "data": "0x0000000000000000000000000000000000000000000000db8c671941a2ee3000",
          "blockHash": "0x8aba49d023a57fab01b8a36cd387b9c38ed8a7c385e31649c18ece69a64bc3c2",
          "blockNumber": "0x17fe337",
          "blockTimestamp": "0x6a11b3f3",
          "transactionHash": "0x3fa950cbe8618148c254cfc87de3cfe0a4abc842eadc3ade82a5f4d17a54cac7",
          "transactionIndex": "0x6f",
          "logIndex": "0x159",
          "removed": false
        },
        {
          "address": "0xa3931d71877c0e7a3148cb7eb4463524fec27fbd",
          "topics": [
            "0xddf252ad1be2c89b69c2b068fc378daa952ba7f163c4a11628f55a4df523b3ef",
            "0x000000000000000000000000da2f1b3cba732d779cff56f0cf9d3bc8aea6cd8d",
            "0x0000000000000000000000000000000000000000000000000000000000000000"
          ],
          "data": "0x0000000000000000000000000000000000000000000000c80ee6dcf796205635",
          "blockHash": "0x8aba49d023a57fab01b8a36cd387b9c38ed8a7c385e31649c18ece69a64bc3c2",
          "blockNumber": "0x17fe337",
          "blockTimestamp": "0x6a11b3f3",
          "transactionHash": "0x3fa950cbe8618148c254cfc87de3cfe0a4abc842eadc3ade82a5f4d17a54cac7",
          "transactionIndex": "0x6f",
          "logIndex": "0x15a",
          "removed": false
        },
        {
          "address": "0xa3931d71877c0e7a3148cb7eb4463524fec27fbd",
          "topics": [
            "0xfbde797d201c681b91056529119e0b02407c7bb96a4a2c75c01fc9667232c8db",
            "0x000000000000000000000000da2f1b3cba732d779cff56f0cf9d3bc8aea6cd8d",
            "0x000000000000000000000000da2f1b3cba732d779cff56f0cf9d3bc8aea6cd8d",
            "0x000000000000000000000000da2f1b3cba732d779cff56f0cf9d3bc8aea6cd8d"
          ],
          "data": "0x0000000000000000000000000000000000000000000000db8c671941a2ee30000000000000000000000000000000000000000000000000c80ee6dcf796205635",
          "blockHash": "0x8aba49d023a57fab01b8a36cd387b9c38ed8a7c385e31649c18ece69a64bc3c2",
          "blockNumber": "0x17fe337",
          "blockTimestamp": "0x6a11b3f3",
          "transactionHash": "0x3fa950cbe8618148c254cfc87de3cfe0a4abc842eadc3ade82a5f4d17a54cac7",
          "transactionIndex": "0x6f",
          "logIndex": "0x15b",
          "removed": false
        },
        {
          "address": "0xdc035d45d973e3ec169d2276ddab16f1e407384f",
          "topics": [
            "0xddf252ad1be2c89b69c2b068fc378daa952ba7f163c4a11628f55a4df523b3ef",
            "0x000000000000000000000000da2f1b3cba732d779cff56f0cf9d3bc8aea6cd8d",
            "0x0000000000000000000000003225737a9bbb6473cb4a45b7244aca2befdb276a"
          ],
          "data": "0x0000000000000000000000000000000000000000000000db8c671941a2ee3000",
          "blockHash": "0x8aba49d023a57fab01b8a36cd387b9c38ed8a7c385e31649c18ece69a64bc3c2",
          "blockNumber": "0x17fe337",
          "blockTimestamp": "0x6a11b3f3",
          "transactionHash": "0x3fa950cbe8618148c254cfc87de3cfe0a4abc842eadc3ade82a5f4d17a54cac7",
          "transactionIndex": "0x6f",
          "logIndex": "0x15c",
          "removed": false
        },
        {
          "address": "0x35d1b3f3d7966a1dfe207aa4514c12a259a0492b",
          "topics": [
            "0xbb35783b00000000000000000000000000000000000000000000000000000000",
            "0x0000000000000000000000003c0f895007ca717aa01c8693e59df1e8c3777feb",
            "0x0000000000000000000000003225737a9bbb6473cb4a45b7244aca2befdb276a",
            "0x000000000000000000000002c566384714c12501c201bd13c37b1b8000000000"
          ],
          "data": "0x000000000000000000000000000000000000000000000000000000000000002000000000000000000000000000000000000000000000000000000000000000e0bb35783b0000000000000000000000003c0f895007ca717aa01c8693e59df1e8c3777feb0000000000000000000000003225737a9bbb6473cb4a45b7244aca2befdb276a000000000000000000000002c566384714c12501c201bd13c37b1b800000000000000000000000000000000000000000000000000000000000000000000000000000000000000000000000000000000000000000000000000000000000000000000000000000000000000000000000000000000000000000000000000000000000000000000000000000000000000000000000000000000000000000",
          "blockHash": "0x8aba49d023a57fab01b8a36cd387b9c38ed8a7c385e31649c18ece69a64bc3c2",
          "blockNumber": "0x17fe337",
          "blockTimestamp": "0x6a11b3f3",
          "transactionHash": "0x3fa950cbe8618148c254cfc87de3cfe0a4abc842eadc3ade82a5f4d17a54cac7",
          "transactionIndex": "0x6f",
          "logIndex": "0x15d",
          "removed": false
        },
        {
          "address": "0xdc035d45d973e3ec169d2276ddab16f1e407384f",
          "topics": [
            "0xddf252ad1be2c89b69c2b068fc378daa952ba7f163c4a11628f55a4df523b3ef",
            "0x0000000000000000000000003225737a9bbb6473cb4a45b7244aca2befdb276a",
            "0x0000000000000000000000000000000000000000000000000000000000000000"
          ],
          "data": "0x0000000000000000000000000000000000000000000000db8c671941a2ee3000",
          "blockHash": "0x8aba49d023a57fab01b8a36cd387b9c38ed8a7c385e31649c18ece69a64bc3c2",
          "blockNumber": "0x17fe337",
          "blockTimestamp": "0x6a11b3f3",
          "transactionHash": "0x3fa950cbe8618148c254cfc87de3cfe0a4abc842eadc3ade82a5f4d17a54cac7",
          "transactionIndex": "0x6f",
          "logIndex": "0x15e",
          "removed": false
        },
        {
          "address": "0x3c0f895007ca717aa01c8693e59df1e8c3777feb",
          "topics": [
            "0x0e64978d073561c3dfd4d4e3e4dce066cde2ab246a44f990fabb0a21a4a3bd95",
            "0x0000000000000000000000003225737a9bbb6473cb4a45b7244aca2befdb276a",
            "0x0000000000000000000000003225737a9bbb6473cb4a45b7244aca2befdb276a"
          ],
          "data": "0x0000000000000000000000000000000000000000000000db8c671941a2ee3000",
          "blockHash": "0x8aba49d023a57fab01b8a36cd387b9c38ed8a7c385e31649c18ece69a64bc3c2",
          "blockNumber": "0x17fe337",
          "blockTimestamp": "0x6a11b3f3",
          "transactionHash": "0x3fa950cbe8618148c254cfc87de3cfe0a4abc842eadc3ade82a5f4d17a54cac7",
          "transactionIndex": "0x6f",
          "logIndex": "0x15f",
          "removed": false
        },
        {
          "address": "0x35d1b3f3d7966a1dfe207aa4514c12a259a0492b",
          "topics": [
            "0xbb35783b00000000000000000000000000000000000000000000000000000000",
            "0x0000000000000000000000003225737a9bbb6473cb4a45b7244aca2befdb276a",
            "0x0000000000000000000000009759a6ac90977b93b58547b4a71c78317f391a28",
            "0x000000000000000000000002c566384714c12501c201bd13c37b1b8000000000"
          ],
          "data": "0x000000000000000000000000000000000000000000000000000000000000002000000000000000000000000000000000000000000000000000000000000000e0bb35783b0000000000000000000000003225737a9bbb6473cb4a45b7244aca2befdb276a0000000000000000000000009759a6ac90977b93b58547b4a71c78317f391a28000000000000000000000002c566384714c12501c201bd13c37b1b800000000000000000000000000000000000000000000000000000000000000000000000000000000000000000000000000000000000000000000000000000000000000000000000000000000000000000000000000000000000000000000000000000000000000000000000000000000000000000000000000000000000000000",
          "blockHash": "0x8aba49d023a57fab01b8a36cd387b9c38ed8a7c385e31649c18ece69a64bc3c2",
          "blockNumber": "0x17fe337",
          "blockTimestamp": "0x6a11b3f3",
          "transactionHash": "0x3fa950cbe8618148c254cfc87de3cfe0a4abc842eadc3ade82a5f4d17a54cac7",
          "transactionIndex": "0x6f",
          "logIndex": "0x160",
          "removed": false
        },
        {
          "address": "0x6b175474e89094c44da98b954eedeac495271d0f",
          "topics": [
            "0xddf252ad1be2c89b69c2b068fc378daa952ba7f163c4a11628f55a4df523b3ef",
            "0x0000000000000000000000000000000000000000000000000000000000000000",
            "0x000000000000000000000000da2f1b3cba732d779cff56f0cf9d3bc8aea6cd8d"
          ],
          "data": "0x0000000000000000000000000000000000000000000000db8c671941a2ee3000",
          "blockHash": "0x8aba49d023a57fab01b8a36cd387b9c38ed8a7c385e31649c18ece69a64bc3c2",
          "blockNumber": "0x17fe337",
          "blockTimestamp": "0x6a11b3f3",
          "transactionHash": "0x3fa950cbe8618148c254cfc87de3cfe0a4abc842eadc3ade82a5f4d17a54cac7",
          "transactionIndex": "0x6f",
          "logIndex": "0x161",
          "removed": false
        },
        {
          "address": "0x9759a6ac90977b93b58547b4a71c78317f391a28",
          "topics": [
            "0xef693bed00000000000000000000000000000000000000000000000000000000",
            "0x0000000000000000000000003225737a9bbb6473cb4a45b7244aca2befdb276a",
            "0x000000000000000000000000da2f1b3cba732d779cff56f0cf9d3bc8aea6cd8d",
            "0x0000000000000000000000000000000000000000000000db8c671941a2ee3000"
          ],
          "data": "0x000000000000000000000000000000000000000000000000000000000000002000000000000000000000000000000000000000000000000000000000000000e0ef693bed000000000000000000000000da2f1b3cba732d779cff56f0cf9d3bc8aea6cd8d0000000000000000000000000000000000000000000000db8c671941a2ee3000000000000000000000000000000000000000000000000000000000000000000000000000000000000000000000000000000000000000000000000000000000000000000000000000000000000000000000000000000000000000000000000000000000000000000000000000000000000000000000000000000000000000000000000000000000000000000000000000000000000000000000000000",
          "blockHash": "0x8aba49d023a57fab01b8a36cd387b9c38ed8a7c385e31649c18ece69a64bc3c2",
          "blockNumber": "0x17fe337",
          "blockTimestamp": "0x6a11b3f3",
          "transactionHash": "0x3fa950cbe8618148c254cfc87de3cfe0a4abc842eadc3ade82a5f4d17a54cac7",
          "transactionIndex": "0x6f",
          "logIndex": "0x162",
          "removed": false
        },
        {
          "address": "0x3225737a9bbb6473cb4a45b7244aca2befdb276a",
          "topics": [
            "0x9c7bd3b60b7e46fc1d7a38d88b7dd4be0e028b80b706848fc3c065eabc8e6a9b",
            "0x000000000000000000000000da2f1b3cba732d779cff56f0cf9d3bc8aea6cd8d",
            "0x000000000000000000000000da2f1b3cba732d779cff56f0cf9d3bc8aea6cd8d"
          ],
          "data": "0x0000000000000000000000000000000000000000000000db8c671941a2ee3000",
          "blockHash": "0x8aba49d023a57fab01b8a36cd387b9c38ed8a7c385e31649c18ece69a64bc3c2",
          "blockNumber": "0x17fe337",
          "blockTimestamp": "0x6a11b3f3",
          "transactionHash": "0x3fa950cbe8618148c254cfc87de3cfe0a4abc842eadc3ade82a5f4d17a54cac7",
          "transactionIndex": "0x6f",
          "logIndex": "0x163",
          "removed": false
        },
        {
          "address": "0x6b175474e89094c44da98b954eedeac495271d0f",
          "topics": [
            "0xddf252ad1be2c89b69c2b068fc378daa952ba7f163c4a11628f55a4df523b3ef",
            "0x000000000000000000000000da2f1b3cba732d779cff56f0cf9d3bc8aea6cd8d",
            "0x000000000000000000000000f6e72db5454dd049d0788e411b06cfaf16853042"
          ],
          "data": "0x0000000000000000000000000000000000000000000000db8c671941a2ee3000",
          "blockHash": "0x8aba49d023a57fab01b8a36cd387b9c38ed8a7c385e31649c18ece69a64bc3c2",
          "blockNumber": "0x17fe337",
          "blockTimestamp": "0x6a11b3f3",
          "transactionHash": "0x3fa950cbe8618148c254cfc87de3cfe0a4abc842eadc3ade82a5f4d17a54cac7",
          "transactionIndex": "0x6f",
          "logIndex": "0x164",
          "removed": false
        },
        {
          "address": "0xa0b86991c6218b36c1d19d4a2e9eb0ce3606eb48",
          "topics": [
            "0xddf252ad1be2c89b69c2b068fc378daa952ba7f163c4a11628f55a4df523b3ef",
            "0x00000000000000000000000037305b1cd40574e4c5ce33f8e8306be057fd7341",
            "0x000000000000000000000000da2f1b3cba732d779cff56f0cf9d3bc8aea6cd8d"
          ],
          "data": "0x00000000000000000000000000000000000000000000000000000000f16564f3",
          "blockHash": "0x8aba49d023a57fab01b8a36cd387b9c38ed8a7c385e31649c18ece69a64bc3c2",
          "blockNumber": "0x17fe337",
          "blockTimestamp": "0x6a11b3f3",
          "transactionHash": "0x3fa950cbe8618148c254cfc87de3cfe0a4abc842eadc3ade82a5f4d17a54cac7",
          "transactionIndex": "0x6f",
          "logIndex": "0x165",
          "removed": false
        },
        {
          "address": "0xf6e72db5454dd049d0788e411b06cfaf16853042",
          "topics": [
            "0x085d06ecf4c34b237767a31c0888e121d89546a77f186f1987c6b8715e1a8caa",
            "0x000000000000000000000000da2f1b3cba732d779cff56f0cf9d3bc8aea6cd8d"
          ],
          "data": "0x00000000000000000000000000000000000000000000000000000000f16564f30000000000000000000000000000000000000000000000000000000000000000",
          "blockHash": "0x8aba49d023a57fab01b8a36cd387b9c38ed8a7c385e31649c18ece69a64bc3c2",
          "blockNumber": "0x17fe337",
          "blockTimestamp": "0x6a11b3f3",
          "transactionHash": "0x3fa950cbe8618148c254cfc87de3cfe0a4abc842eadc3ade82a5f4d17a54cac7",
          "transactionIndex": "0x6f",
          "logIndex": "0x166",
          "removed": false
        },
        {
          "address": "0xda2f1b3cba732d779cff56f0cf9d3bc8aea6cd8d",
          "topics": [
            "0xddf252ad1be2c89b69c2b068fc378daa952ba7f163c4a11628f55a4df523b3ef",
            "0x000000000000000000000000696d02db93291651ed510704c9b286841d506987",
            "0x0000000000000000000000000000000000000000000000000000000000000000"
          ],
          "data": "0x00000000000000000000000000000000000000000000000000000000f15ec769",
          "blockHash": "0x8aba49d023a57fab01b8a36cd387b9c38ed8a7c385e31649c18ece69a64bc3c2",
          "blockNumber": "0x17fe337",
          "blockTimestamp": "0x6a11b3f3",
          "transactionHash": "0x3fa950cbe8618148c254cfc87de3cfe0a4abc842eadc3ade82a5f4d17a54cac7",
          "transactionIndex": "0x6f",
          "logIndex": "0x167",
          "removed": false
        },
        {
          "address": "0xa0b86991c6218b36c1d19d4a2e9eb0ce3606eb48",
          "topics": [
            "0xddf252ad1be2c89b69c2b068fc378daa952ba7f163c4a11628f55a4df523b3ef",
            "0x000000000000000000000000da2f1b3cba732d779cff56f0cf9d3bc8aea6cd8d",
            "0x000000000000000000000000696d02db93291651ed510704c9b286841d506987"
          ],
          "data": "0x00000000000000000000000000000000000000000000000000000000f16564f3",
          "blockHash": "0x8aba49d023a57fab01b8a36cd387b9c38ed8a7c385e31649c18ece69a64bc3c2",
          "blockNumber": "0x17fe337",
          "blockTimestamp": "0x6a11b3f3",
          "transactionHash": "0x3fa950cbe8618148c254cfc87de3cfe0a4abc842eadc3ade82a5f4d17a54cac7",
          "transactionIndex": "0x6f",
          "logIndex": "0x168",
          "removed": false
        },
        {
          "address": "0xda2f1b3cba732d779cff56f0cf9d3bc8aea6cd8d",
          "topics": [
            "0xfbde797d201c681b91056529119e0b02407c7bb96a4a2c75c01fc9667232c8db",
            "0x000000000000000000000000696d02db93291651ed510704c9b286841d506987",
            "0x000000000000000000000000696d02db93291651ed510704c9b286841d506987",
            "0x000000000000000000000000696d02db93291651ed510704c9b286841d506987"
          ],
          "data": "0x00000000000000000000000000000000000000000000000000000000f16564f300000000000000000000000000000000000000000000000000000000f15ec769",
          "blockHash": "0x8aba49d023a57fab01b8a36cd387b9c38ed8a7c385e31649c18ece69a64bc3c2",
          "blockNumber": "0x17fe337",
          "blockTimestamp": "0x6a11b3f3",
          "transactionHash": "0x3fa950cbe8618148c254cfc87de3cfe0a4abc842eadc3ade82a5f4d17a54cac7",
          "transactionIndex": "0x6f",
          "logIndex": "0x169",
          "removed": false
        },
        {
          "address": "0x696d02db93291651ed510704c9b286841d506987",
          "topics": [
            "0x5e2b8821ad6e0e26207e0cb4d242d07eeb1cbb1cfd853e645bdcd27cc5484f95",
            "0x000000000000000000000000da2f1b3cba732d779cff56f0cf9d3bc8aea6cd8d"
          ],
          "data": "0x00000000000000000000000000000000000000000000000000000107711117e4000000000000000000000000000000000000000000000000000001067fabb2f1",
          "blockHash": "0x8aba49d023a57fab01b8a36cd387b9c38ed8a7c385e31649c18ece69a64bc3c2",
          "blockNumber": "0x17fe337",
          "blockTimestamp": "0x6a11b3f3",
          "transactionHash": "0x3fa950cbe8618148c254cfc87de3cfe0a4abc842eadc3ade82a5f4d17a54cac7",
          "transactionIndex": "0x6f",
          "logIndex": "0x16a",
          "removed": false
        },
        {
          "address": "0x696d02db93291651ed510704c9b286841d506987",
          "topics": [
            "0xddf252ad1be2c89b69c2b068fc378daa952ba7f163c4a11628f55a4df523b3ef",
            "0x0000000000000000000000004fe93ebc4ce6ae4f81601cc7ce7139023919e003",
            "0x0000000000000000000000000000000000000000000000000000000000000000"
          ],
          "data": "0x00000000000000000000000000000000000000000000000000000000ee6b2800",
          "blockHash": "0x8aba49d023a57fab01b8a36cd387b9c38ed8a7c385e31649c18ece69a64bc3c2",
          "blockNumber": "0x17fe337",
          "blockTimestamp": "0x6a11b3f3",
          "transactionHash": "0x3fa950cbe8618148c254cfc87de3cfe0a4abc842eadc3ade82a5f4d17a54cac7",
          "transactionIndex": "0x6f",
          "logIndex": "0x16b",
          "removed": false
        },
        {
          "address": "0xa0b86991c6218b36c1d19d4a2e9eb0ce3606eb48",
          "topics": [
            "0xddf252ad1be2c89b69c2b068fc378daa952ba7f163c4a11628f55a4df523b3ef",
            "0x000000000000000000000000696d02db93291651ed510704c9b286841d506987",
            "0x00000000000000000000000091eb419d77962bf89a0f1ca8b1fa525f443d5421"
          ],
          "data": "0x00000000000000000000000000000000000000000000000000000000f16564f3",
          "blockHash": "0x8aba49d023a57fab01b8a36cd387b9c38ed8a7c385e31649c18ece69a64bc3c2",
          "blockNumber": "0x17fe337",
          "blockTimestamp": "0x6a11b3f3",
          "transactionHash": "0x3fa950cbe8618148c254cfc87de3cfe0a4abc842eadc3ade82a5f4d17a54cac7",
          "transactionIndex": "0x6f",
          "logIndex": "0x16c",
          "removed": false
        },
        {
          "address": "0x696d02db93291651ed510704c9b286841d506987",
          "topics": [
            "0xfbde797d201c681b91056529119e0b02407c7bb96a4a2c75c01fc9667232c8db",
            "0x0000000000000000000000004fe93ebc4ce6ae4f81601cc7ce7139023919e003",
            "0x00000000000000000000000091eb419d77962bf89a0f1ca8b1fa525f443d5421",
            "0x0000000000000000000000004fe93ebc4ce6ae4f81601cc7ce7139023919e003"
          ],
          "data": "0x00000000000000000000000000000000000000000000000000000000f16564f300000000000000000000000000000000000000000000000000000000ee6b2800",
          "blockHash": "0x8aba49d023a57fab01b8a36cd387b9c38ed8a7c385e31649c18ece69a64bc3c2",
          "blockNumber": "0x17fe337",
          "blockTimestamp": "0x6a11b3f3",
          "transactionHash": "0x3fa950cbe8618148c254cfc87de3cfe0a4abc842eadc3ade82a5f4d17a54cac7",
          "transactionIndex": "0x6f",
          "logIndex": "0x16d",
          "removed": false
        },
        {
          "address": "0x4fe93ebc4ce6ae4f81601cc7ce7139023919e003",
          "topics": [
            "0x049d8dd84b6a6cc45d5f68a74b23450bd3e54d84fd405d91b8b286c78d51d249"
          ],
          "data": "0x5425f86bfb267dca64186287ee4312f3e0ee923ec4afb3a8c933f04c9e4136aa97ddf89488b37cf4c865c466b3e29e8a9e494ae89075ccd5abf72847e80cab04",
          "blockHash": "0x8aba49d023a57fab01b8a36cd387b9c38ed8a7c385e31649c18ece69a64bc3c2",
          "blockNumber": "0x17fe337",
          "blockTimestamp": "0x6a11b3f3",
          "transactionHash": "0x3fa950cbe8618148c254cfc87de3cfe0a4abc842eadc3ade82a5f4d17a54cac7",
          "transactionIndex": "0x6f",
          "logIndex": "0x16e",
          "removed": false
        },
        {
          "address": "0x696d02db93291651ed510704c9b286841d506987",
          "topics": [
            "0x8c5be1e5ebec7d5bd14f71427d1e84f3dd0314c0f7b2291e5b200ac8c7c3b925",
            "0x00000000000000000000000091eb419d77962bf89a0f1ca8b1fa525f443d5421",
            "0x000000000000000000000000f75584ef6673ad213a685a1b58cc0330b8ea22cf"
          ],
          "data": "0x0000000000000000000000000000000000000000000000000000000000000000",
          "blockHash": "0x8aba49d023a57fab01b8a36cd387b9c38ed8a7c385e31649c18ece69a64bc3c2",
          "blockNumber": "0x17fe337",
          "blockTimestamp": "0x6a11b3f3",
          "transactionHash": "0x3fa950cbe8618148c254cfc87de3cfe0a4abc842eadc3ade82a5f4d17a54cac7",
          "transactionIndex": "0x6f",
          "logIndex": "0x16f",
          "removed": false
        },
        {
          "address": "0xa0b86991c6218b36c1d19d4a2e9eb0ce3606eb48",
          "topics": [
            "0xddf252ad1be2c89b69c2b068fc378daa952ba7f163c4a11628f55a4df523b3ef",
            "0x00000000000000000000000091eb419d77962bf89a0f1ca8b1fa525f443d5421",
            "0x000000000000000000000000bf3e996821d43ac3b6069ae74efa101ffc6137e0"
          ],
          "data": "0x00000000000000000000000000000000000000000000000000000000f16564f3",
          "blockHash": "0x8aba49d023a57fab01b8a36cd387b9c38ed8a7c385e31649c18ece69a64bc3c2",
          "blockNumber": "0x17fe337",
          "blockTimestamp": "0x6a11b3f3",
          "transactionHash": "0x3fa950cbe8618148c254cfc87de3cfe0a4abc842eadc3ade82a5f4d17a54cac7",
          "transactionIndex": "0x6f",
          "logIndex": "0x170",
          "removed": false
        },
        {
          "address": "0xa0b86991c6218b36c1d19d4a2e9eb0ce3606eb48",
          "topics": [
            "0x8c5be1e5ebec7d5bd14f71427d1e84f3dd0314c0f7b2291e5b200ac8c7c3b925",
            "0x000000000000000000000000bf3e996821d43ac3b6069ae74efa101ffc6137e0",
            "0x000000000000000000000000bbbbbbbbbb9cc5e90e3b3af64bdaf62c37eeffcb"
          ],
          "data": "0x00000000000000000000000000000000000000000000000000000000f15f2efc",
          "blockHash": "0x8aba49d023a57fab01b8a36cd387b9c38ed8a7c385e31649c18ece69a64bc3c2",
          "blockNumber": "0x17fe337",
          "blockTimestamp": "0x6a11b3f3",
          "transactionHash": "0x3fa950cbe8618148c254cfc87de3cfe0a4abc842eadc3ade82a5f4d17a54cac7",
          "transactionIndex": "0x6f",
          "logIndex": "0x171",
          "removed": false
        },
        {
          "address": "0xa0b86991c6218b36c1d19d4a2e9eb0ce3606eb48",
          "topics": [
            "0xddf252ad1be2c89b69c2b068fc378daa952ba7f163c4a11628f55a4df523b3ef",
            "0x000000000000000000000000bf3e996821d43ac3b6069ae74efa101ffc6137e0",
            "0x000000000000000000000000bbbbbbbbbb9cc5e90e3b3af64bdaf62c37eeffcb"
          ],
          "data": "0x00000000000000000000000000000000000000000000000000000000f15f2efc",
          "blockHash": "0x8aba49d023a57fab01b8a36cd387b9c38ed8a7c385e31649c18ece69a64bc3c2",
          "blockNumber": "0x17fe337",
          "blockTimestamp": "0x6a11b3f3",
          "transactionHash": "0x3fa950cbe8618148c254cfc87de3cfe0a4abc842eadc3ade82a5f4d17a54cac7",
          "transactionIndex": "0x6f",
          "logIndex": "0x172",
          "removed": false
        },
        {
          "address": "0xa0b86991c6218b36c1d19d4a2e9eb0ce3606eb48",
          "topics": [
            "0xddf252ad1be2c89b69c2b068fc378daa952ba7f163c4a11628f55a4df523b3ef",
            "0x000000000000000000000000bf3e996821d43ac3b6069ae74efa101ffc6137e0",
            "0x0000000000000000000000005555e978e0732c198bc801477dfbccce66252ff5"
          ],
          "data": "0x00000000000000000000000000000000000000000000000000000000000635f7",
          "blockHash": "0x8aba49d023a57fab01b8a36cd387b9c38ed8a7c385e31649c18ece69a64bc3c2",
          "blockNumber": "0x17fe337",
          "blockTimestamp": "0x6a11b3f3",
          "transactionHash": "0x3fa950cbe8618148c254cfc87de3cfe0a4abc842eadc3ade82a5f4d17a54cac7",
          "transactionIndex": "0x6f",
          "logIndex": "0x173",
          "removed": false
        }
      ],
      "logsBloom": "0x00000040000000400010000000000080001000100000002000000000400008000004120440000000000103800000030120110050000400400000048001200000004000101010200008904008000000010002804402028040004078200080004250000044120210000000020000000a0800010000000000000000803240001a000000000200000008000400001010044a00008000110400008010000100000000020008010600210000000000000000820800000080010000000080001040400220002002001000c00040040002000020000902280000000000200000082020400010080801000000802001380000000004000040800010008012010000008000",
      "transactionHash": "0x3fa950cbe8618148c254cfc87de3cfe0a4abc842eadc3ade82a5f4d17a54cac7",
      "transactionIndex": "0x6f",
      "blockHash": "0x8aba49d023a57fab01b8a36cd387b9c38ed8a7c385e31649c18ece69a64bc3c2",
      "blockNumber": "0x17fe337",
      "gasUsed": "0xdf77b",
      "effectiveGasPrice": "0x7c1e094",
      "blobGasUsed": "0x0",
      "from": "0x5555e978e0732c198bc801477dfbccce66252ff5",
      "to": "0xbf3e996821d43ac3b6069ae74efa101ffc6137e0",
      "contractAddress": null
    }
  ],
  "libraries": [],
  "pending": [],
  "returns": {},
  "timestamp": 1779545080631,
  "chain": 1,
  "commit": "7a94215"
}